:03000000020752A2
:0C075200787FE4F6D8FD758179020799E4
:100EC000046500000000046000000000046A0000E7
:080ED00000000169000164004B
:0D10EC00EF2401FFE43EFEE43DFDE43C2264
:100EE9008F828E83E4F568F567F566F565AF82AEA6
:100EF90083E4FCFDAB68AA67A966A865C31204D0A0
:080F0900500543BD1080E622F3
:10000300758E5190FE917401F0A37410F075BD5F6D
:0700130090FEA07420F02212
:100FC500E490FE80F0758901758DFA758BCB43A889
:0E0FD50008438840758CCB758AEB4388102248
:100DD70090FF10E054F04408F090FF02E054F04414
:100DE70002F0D28490FFA07420F0A37404F075CCB5
:100DF7000675CEFF75CD98759E0275981043A8109D
:010E070022C8
:0B1106008F99E59830E1FB5398FD2223
:1008D3001210F9120003120FC5120DD775BBAA909F
:1008E300FEA774FFF053BBF7D2AF7FF47E01120E65
:1008F300E9E4F56412106B43BD107F027E00120E13
:10090300E9120026E56960EFE4F569E56470E8E55E
:100913006D2401FFE4356CFEE4356BFDE4356A8F2D
:100923006D8E6C8D6BF56A8F1F8E1E8D1DF51C7F72
:060933009712086280C16A
:03001B000207DEFB
:1007DE00C0E0C0F0C083C082C0D075D000C000C0E1
:1007EE0001C002C003C004C005C006C007AF68AE9A
:1007FE0067AD66AC651210EC8F688E678D66F56519
:10080E00E47FE87E03FDFCAB63AA62A961A860D316
:10081E001204D04011756300756200756100756039
:10082E00007569018013AF63AE62AD61AC601210EA
:10083E00EC8F638E628D61F560D007D006D005D047
:10084E0004D003D002D001D000D0D0D082D083D03B
:04085E00F0D0E032C4
:03002300020D0DBE
:100D0D00C0E0C083C082C0D075D000C004C005C093
:030D1D0006C00706
:0F0D2000E59830E00AAF991209FC5398FED2AF64
:100D2F00D007D006D005D004D0D0D082D083D0E069
:010D3F003281
:100E9400D310AF01C3C0D053BBF7E5BB20E3F8C206
:100EA400AF75FDF075FC0F8EFA8FF975FDD275FCE8
:0C0EB4002D75FDE175FC1ED0D092AF2220
:100E3900D310AF01C3C0D053BBF7E5BB20E3F8C261
:100E4900AF8FFB75FDF075FC0F8CFA8DF975FDB44C
:0E0E590075FC4B75FDE175FC1ED0D092AF22EA
:040ED800027800009C
:100A5600AF1FAE1EAD1DAC1C1204E1AD0722AF1FC9
:100A6600AE1EAD1DAC1C1204E1AD0722E579950959
:100A7600F579E5789508F57822FEE51DFDE51CFC7F
:100A8600E47BFF22E4F522F521F520F51F2212046E
:100A96006FAB3AAA3BA93C22AC06AD077F0622748F
:090AA600002509F974003508224D
:060BA0008B1C8A1D891E5A
:100BA600120A8AE94A4B7005FFFEFDFC22120A8AE8
:100BB600781CE475F0011204F4120456601AE5225A
:100BC6002401FFE43521FEE43520FDE4351F8F22A4
:100BD6008E218D20F51F80D8AF22AE21AD20AC1F0F
:010BE60022EC
:060C6D008B1A8A1B891C92
:100C73008B208A218922E94A4B7004FBFAF922E589
:100C83001F151FAE1E7002151E4E600F7820E475EF
:100C9300F0011204F4ED12049C80E4AB1AAA1BA920
:010CA3001C34
:010CA400222D
:0605F0008B328A338934CE
:1005F6008B3A8A3B893C85353D85363E85373FE9D2
:100606004A4B6008E5374536453570077B007A006A
:10061600790022D3853E83853F82E53C9582E53B82
:1006260095834019E53F2539F9E53E3538FA8A8341
:100636008982D3E53C9582E53B95834032E4F540DB
:10064600F541C3E5419539E5409538505BAB3DAA88
:100656003EA93F854182854083120A948541828561
:1006660040831204AE0541E54170D7054080D3852D
:100676003840853941D3E5419400E540940040284F
:10068600AB3DAA3EA93FE54124FFFFE54034FFFE0E
:100696008F82F583120A948F828E831204AEE5410F
:0E06A600154170D1154080CDAB32AA33A93476
:0106B4002223
:040D73008D25AB0718
:100D7700E4FCFFFEAD031210807D04120D9DE4FD1F
:100D87001210807D01120D9DAD25121080120A9E52
:050D970012099B7F0121
:090D9C0022AC06121080AC062204
:02052A00AB071D
:10052C00900000AD031205CC7D051205D8E4FD1238
:10053C0005D874FFFFE51E120A7FFAF9F8C31204FE
:10054C00D0700A7D011205CCAD1F0205B974FFFFF6
:10055C00120A7F7AFFF9F8C31204D0AF82AE83700F
:10056C00047D0280227D041205E0C006C0077818C5
:10057C00120A56D007D0061205E0C006C007781044
:10058C00120A56D007D0061205E8C006C007AF1FE6
:10059C00AE1EAD1DAC1C78081204E1AD07D007D01F
:1005AC00061205E8C007E51FFFAD07D00712108043
:0F05BC008E838F82AD82AC837F0612099B7F01F5
:1005CB0022AF82AE831210808E838F822212108014
:1005DB008E838F82221210808E838F822212108044
:0505EB008E838F8222C7
:080BE7008F258B268A2789283F
:100BEF00E4FCFFFEAD25121080AC067D03121080D1
:100BFF00AC06E529FD121080AC06AD2A121080ACB0
:100C0F0006AD07AB26AA27A928852930852A3112D8
:0A0C1F000E08120A9E12099B7F01C5
:010C290022A8
:02086200AB07E2
:10086400E4FCFFFEAD03121080AC067D0212108082
:10087400AC06E4FD121080AC067D04121080C006A4
:10088400C0077818120A64D007D006121080C00678
:10089400C007AF1FAE1EAD1DAC1C78101204E1AD35
:1008A40007D007D006121080C006C0077808120AC5
:1008B40064D007D006121080AC06C007E51FFFAD58
:0E08C40007D007121080120A9E12099B7F01B6
:0108D2002203
:081126008C258D26120456FFF2
:01112E00229E
:1010B900E4FDFCFFFE121080AC06AD077F030209B8
:0110C9009B8B
:10106B00E4FDFC756401FFFE0D121080AC06AD07AC
:05107B007F0302099B48
:1009FC008F42AC5EAD5FC3ED955DFFEC955CFEEF99
:100A0C0064014E6044D3E55D955FE55C955E4013F3
:100A1C00E55D9DFFE55C9CFEC3EF9449EE6480941C
:100A2C00805026C3900049E55D9582E55C95834036
:100A3C0006755C00755D00055DE55DAE5C700205DC
:0A0A4C005C14F5828E83E542F0226F
:0D10F900755C00755D74755E00755F742296
:100DA500E55F655D7004E55E655C6025C39000499F
:100DB500E55F9582E55E95834006755E00755F008B
:100DC500055FE55FAC5E7002055E14F5828C83E01D
:010DD500FF1E
:010DD60022FA
:1010A700E55F655D7004E55E655C60037F01227F37
:0210B700002215
:10002600E4F508F509F50AF50BF50CF50DF50E7571
:100036000F09C3E5799449E578940050231210A777
:10004600EF9400401B120DA50579E579AC78700296
:100056000578142400F58274003CF583EFF080D215
:10006600C3E5799409E578940050030201B6C3E527
:10007600799509FDE5789508FCC3ED9409EC9400A3
:10008600500302017374002509F58274003508F5E2
:1000960083E06455600A0509E50970D2050880CE3B
:1000A60074012509F58274003508F583E064AA60B9
:1000B6000A0509E50970B7050880B374022509F534
:1000C6008274003508F583E0750C00F50D64024571
:1000D6000C60047402803C74062509F582740035B0
:1000E60008F583E0750B00F50A74072509F5827497
:1000F600003508F583E02409FFE433FEEF250BF510
:100106000BEE350AF50AD3E50B9449E50A9400404F
:100116000974032509F509E4804CC3ED950BEC95AC
:100126000A404A120AA5FA7B01E50B24FFFDE50AFF
:1001360034FFFC120E67E509250BFDE508350AFCC0
:1001460074FF2DF58274FF3CF583E06F600974033C
:100156002509F509E4800FAF09AE08120313E50B74
:100166002509F509E50A3508F508020074C3120ADF
:1001760072D3E5799400E57894004034E5094508A2
:100186007015E5799449E5789400400B0509E50971
:1001960070020508120A72120AA5753501F536892C
:1001A600378578388579397B017A0079001205F030
:0101B6002226
:100F110068656C6C6F2100616C7265616479206930
:100F21006E20626F6F746C6F6164657200627474BD
:060F3100716263686C00B0
:0C0EDC000A6E96049702980599039A0488
:0B111100AB1EAA1FA920AD22AC2122BA
:03001E00021106C6
:100CA5007D067F96120D73E4F51FF51EF51DF51CE7
:100CB5007F97120862E4F51FF51EF51DF51C7F9858
:100CC50012052A7BFF7A0F7911752900752A077F8E
:040CD50099020BE78E
:100AAF001211268F24E5241205040AD2000AD70159
:100ABF000ADC020AE1030AE6040AEB050AF0060063
:100ACF00000AF3121132801C120F80801712113599
:100ADF008012121138800D1200218008120022801E
:100AEF000312111CAD247F96120D73BF01037F01FA
:030AFF00227F0053
:010B020022D0
:10109400121126AD077F9A120D73BF01037F01223F
:0210A4007F00CB
:0110A6002227
:060F5C008B1E8A1F892094
:100F6200EF2466600E24047012121111120AAF8F60
:0D0F72002380081211111210948F23AF2359
:010F7F00224F
:03112F007F052217
:020D40008F1A08
:100D4200E4FCFFFE7D10121080AC06AD077F02129C
:100D5200099BE51A14600C14601314600C240370D0
:100D62000C800AE4F564020CA575640122E4F564C2
:010D7200225E
:01001A0022C3
:100FE300E4F51AF51B120C2AAD07AF1BAE1A12104B
:0E0FF300808E1A8F1BAD1BAC1A7F0B02099B60
:031132000210CADE
:100F80007F807E2E120E947D807C2E7F01120E3982
:100F90007BFF7A0F7918752900752A167F99120B35
:040FA000E70210DB79
:0311350002106B3A
:031138000210B9E9
:0100210022BC
:0100220022BB
:1010CA00C2AF75FDF075FC0F75FD8775FC78D2AF60
:0110DA0022F3
:1010DB00C2AF75FDF075FC0F75FD7875FC87D2AF4F
:0110EB0022E2
:0A111C00E4F56DF56CF56BF56A2241
:020B03008F2041
:100B0500E4FCF5217522087523FF75240F75252E44
:100B1500FFFEAD20801EE5221522AE2170021521B3
:100B25004E601AAF05AE047823E475F0011204F4A3
:100B3500120456FD121080AC06AD0780D9AF05AE84
:0F0B450004AD4B121080AC06AD077F0E02099B6A
:100FA4007B2270223A2200627474716263686C005E
:100FB400222C2276223A2200312E302E3000227D3D
:010FC400002C
:10103B0074082511F58274003510F583E022AF1D7D
:0A104B00AE1C1210808E1C8F1D22B7
:10100100055BE55B7002055AD3E55B94F0E55A9404
:0E101100FF4006755A00755B01AE5AAF5B22B8
:1010800074512FF974003EFA7B01ED12049C0FBFDE
:0310900000010E4E
:01109300223A
:0A0E08008B2D8A2E892FAD07AC0652
:100E120074512DF974003CFA7B01852D35852E36EF
:100E2200852F378530388531391205F0E5312DFDB2
:060E3200E5303CFEAF05B7
:010E38002297
:100CD9008B2D8A2E892FE94A4B6028ED4C6024ED33
:100CE9001DAE0470011C4E601AAB2DAA2EA92F123D
:100CF9000456FF12001E7401252FF52FE4352EF539
:040D09002E80DC223A
:0A0E67008B2D8A2E892F8C308D31DF
:100E7100E4FFFDFCC3ED9531EC95305015782DE480
:100E810075F0011204F41204562FFF0DBD00010C80
:020E910080E2FD
:010E9300223C
:06099B008C2B8D2CAB0734
:1009A100E4FF9000497455F0A374AAF0A37402F017
:1009B100121001A3E4F0EFA3F0A3EBF0E52BA3F0F9
:1009C100E52CA3F02409F52CE4352BF52B7B017ADA
:1009D100007949E52C24FFFDE52B34FFFC120E675D
:1009E1007448252CF5827400352BF583EFF07B01DB
:0B09F1007A007949AD2CAC2B020CD928
:1006B500E4F51AF51B7A0F79A41207307A0F79A49D
:1006C5001207227A0F79AB1207307A0F79AB12072E
:1006D500227A0F79B41207487A0F79B412073A7A59
:1006E5000F79BC1207487A0F79BC12073A7BFF7A5B
:1006F5000F79C2120BA08E308F317BFF7A0F79C232
:10070500AF1BAE1A120E088E1A8F1B7D01121080B8
:0D0715008E1A8F1BAD1BAC1A7F0102099BD1
:100722007BFFAF1BAE1A120E088E1A8F1B227BFFA5
:10073200120BA08E308F31227BFFAF1BAE1A120E2E
:10074200088E1A8F1B227BFF120BA08E308F312254
:02101F00AE071A
:1010210012112FE4FDEDC39F500DED25E0246EF864
:09103100E66E60030D80EEAF05D0
:01103A002293
:100B5400120456FC90000112046FF51A9000021260
:100B6400046F751C00F51B90000312046F251CF51F
:100B74001CE4351BF51BAF0412101FEF25E0246F96
:100B8400F8E6651A60037F0022AF04E92404F9E45F
:0B0B94003AFA851B21851C22120F5C21
:010B9F002233
:040313008E108F11A8
:10031700E4F512F51374052511F58274003510F50F
:1003270083E0FD74062511F58274003510F583E02E
:10033700751300F51274072511F58274003510F551
:1003470083E02513F513E43512F51274032511F52F
:100357008274003510F583E07F00FE74042511F5E3
:100367008274003510F583E02FFFE43EFEED1205A1
:100377000403A90103AF0203BB0303C4040440053C
:1003870004400604400804400904400A04300B04F2
:10039700350C04400D04400E0440240440250000A1
:0803A700043C1206B5020440FB
:0903AF0012103BF519FF120D407C
:1003B80002044012103BFF12001A807CE4F517F586
:1003C80018C3E5189513E5179512506CE511251813
:1003D800FDE5103517FC740A2DF58274003CF58391
:1003E800E0751500F514740B2DF58274003CF58347
:1003F800E02515F515E43514F51474082511F9747C
:10040800003510FA7B01E92518F9EA3517FA120BBD
:10041800548F16E5152404FFE43514FEEF2518F56E
:1004280018EE3517F5178099120FE3800BAF1112EC
:1004380001B78004E4FEFF227B017A007900751E73
:0D04480000751F49E4FD120C6D7E007F0160
:010455002284
:100C2A007BFF7A0F79A48B208A218922E4F523128B
:100C3A000456FF121055EFC4333354C0F523900005
:100C4A0002120C5EC454F04223900004120C5E425D
:030C5A0023AF23A2
:100C5D0022AB20AA21A92212046FFF121055EF22F8
:10105500EFC394305008EF943940037FFF22EF75BA
:06106500F03084AFF02220
:0201B7008F1A9D
:1001B900E4F51BF51CF51DF51EF51F120F37E51BA0
:1001C900C39408501AE51A251B2408F582E4340063
:1001D900F583E0FF7443251BF8A607051B80DF7430
:1001E90010251AF582E43400F583E0F54B741225E5
:1001F9001AF582E43400F583E07E007810C333CE2B
:1002090033CED8F9FDAC067411251AF582E4340011
:10021900F583E07E007818C333CE33CED8F9FFEEEC
:100229004CFCEF4DFD7413251AF582E43400F58377
:10023900E04CFEEDFF7414251AF582E43400F583D1
:10024900E0FDEEF54CEF4DF54D7416251AF582E4F7
:100259003400F583E07E007810C333CE33CED8F96D
:10026900FDAC067415251AF582E43400F583E07EA9
:10027900007818C333CE33CED8F9FFEE4CFCEF4DDE
:10028900FD7417251AF582E43400F583E04CFEED80
:10029900FF7418251AF582E43400F583E0FDEEF5C4
:1002A90050EF4DF5517523007524007525527B00DB
:1002B9007A007943120939EF4E7020120C2AE54B66
:1002C900D39F4017D3E54D9400E54C9400400CE4CE
:1002D900FD121049E4F51EF51F800B7D011210492E
:1002E900751E00751F01E4F54EF54FAD1DAC1C7F61
:1002F9000C12099B7F647E00120EE97F01120B0329
:0A0309007F647E00120EE9020F80EF
:100F3700E4FF7520FF75210F7522A4AB20AA21A914
:100F4700228F8275830012046FFE74522FF8A60653
:040F57000FBF08E7D9
:010F5B002273
:060939008B208A218922B7
:10093F00AB23AA24A925120456FFAB20AA21A92272
:10094F00120456FDC39FFBE49400FEAF034B701BD4
:10095F00ED601874012522F522E43521F52174018B
:10096F002525F525E43524F52480C5C3EE64809450
:10097F008050057EFF7FFF22D3EF9400EE648094BA
:0B098F008040057E007F0122E4FEFF97
:01099A00223A
:10075E000208D3E493A3F8E493A34003F68001F2D6
:10076E0008DFF48029E493A3F85407240CC8C3339C
:10077E00C4540F4420C8834004F456800146F6DF6B
:10078E00E4800B0102040810204080900EC0E47E2D
:10079E00019360BCA3FF543F30E509541FFEE49360
:1007AE00A360010ECF54C025E060A840B8E493A327
:1007BE00FAE493A3F8E493A3C8C582C8CAC583CA52
:1007CE00F0A3C8C582C8CAC583CADFE9DEE780BE0A
:010EE8000009
:10045600BB010689828A83E0225002E722BBFE02A4
:09046600E32289828A83E49322D7
:10046F00BB010CE58229F582E5833AF583E0225042
:10047F0006E92582F8E622BBFE06E92582F8E2228C
:0D048F00E58229F582E5833AF583E49322A6
:10049C00BB010689828A83F0225002F722BBFE013F
:0204AC00F32239
:1004AE00F8BB010DE58229F582E5833AF583E8F084
:1004BE00225006E92582C8F622BBFE05E92582C830
:0204CE00F22218
:1004D000EB9FF5F0EA9E42F0E99D42F0E89C45F082
:0104E00022F9
:1004E100E8600FECC313FCED13FDEE13FEEF13FFF9
:0304F100D8F1221D
:1004F400FAE6FB0808E6F925F0F618E6CA3AF62209
:10050400D083D082F8E4937012740193700DA3A386
:1005140093F8740193F5828883E47374029368609A
:06052400EFA3A3A380DF9A
:00000001FF
