:030000000206B83D
:0C06B800787FE4F6D8FD7581640206FF2F
:100D1100044C0000000004470000000004510000E2
:080D21000000015000014B002D
:100CC1008F828E83E4F54FF54EF54DF54CAF82AE34
:100CD10083E4FCFDAB4FAA4EA94DA84CC312056F8E
:080CE100500543BD1080E6221E
:10000300758E5190FE917401F0A37410F075BD5F6D
:0700130090FEA07420F02212
:100D9D00E490FE80F0758901758DFA758BCB43A8B3
:0E0DAD0008438840758CCB758AEB4388102272
:100C360090FF10E054F04408F090FF02E054F044B6
:100C460002F0D28490FFA07420F0A37404F075CC57
:100C56000675CEFF75CD98759E0275981043A8103F
:010C6600226B
:0B0EBA008F99E59830E1FB5398FD2272
:1007CD00120EAD120003120D9D120C3675BBAA90C0
:1007DD00FEA774FFF053BBF7D2AF7FF47E01120C6E
:1007ED00C1120E4543BD107F027E00120CC11200D6
:1007FD0026E55060EFE4F550E54B70E8E554240133
:10080D00F554E43553F553E43552F552E43551F5CD
:10081D005185541F85531E85521DF51C7F97120758
:03082D004480C143
:03001B00020628B2
:10062800C0E0C0F0C083C082C0D075D000C000C098
:1006380001C002C003C004C005C006C007AF4FAE6A
:100648004EAD4DAC4CEF2401F54FE43EF54EE43D84
:10065800F54DE43CF54CE47FE87E03FDFCAB4AAA8B
:1006680049A948A847D312056F4011754A00754932
:10067800007548007547007550018019AF4AAE49AA
:10068800AD48AC47EF2401F54AE43EF549E43DF5B1
:1006980048E43CF547D007D006D005D004D003D0B5
:1006A80002D001D000D0D0D082D083D0F0D0E032B8
:030023000209F0DF
:1009F000C0E0C0F0C083C082C0D075D000C000C0CD
:0D0A000001C002C003C004C005C006C0074D
:0F0A0D00E59830E00AAF991208915398FED2AFE6
:100A1C00D007D006D005D004D003D002D001D0002E
:0B0A2C00D0D0D082D083D0F0D0E032D8
:100C9500D310AF01C3C0D053BBF7E5BB20E3F8C207
:100CA500AF75FDF075FC0F8EFA8FF975FDD275FCE9
:0C0CB5002D75FDE175FC1ED0D092AF2221
:100C6700D310AF01C3C0D053BBF7E5BB20E3F8C235
:100C7700AF8FFB75FDF075FC0F8CFA8DF975FDB420
:0E0C870075FC4B75FDE175FC1ED0D092AF22BE
:040D29000263000061
:06099B008B1C8A1D891E61
:1009A100E4F522F521F520F51FE94A4B7005FFFE1C
:1009B100FDFC22E4F522F521F520F51FAB1C051EF7
:1009C100E51EAA1D7002051D14F91204F56017E554
:1009D100222401F522E43521F521E43520F520E436
:0E09E100351FF51F80D6AF22AE21AD20AC1F12
:0109EF0022E5
:060A7D008B1A8A1B891C84
:100A83008B208A218922E94A4B7004FBFAF922E57B
:100A93001F151FAE1E7002151E4E6014AB200522DB
:100AA300E522AA217002052114F9ED12053B80DF2E
:060AB300AB1AAA1BA91CEE
:010AB900221A
:060424008B368A3789388F
:10042A008B3E8A3F8940853941853A42853B43E97B
:10043A004A4B6008E53B453A453970077B007A002C
:10044A00790022D3854283854382E5409582E53F40
:10045A0095834019E543253DF9E542353CFA8A83FF
:10046A008982D3E5409582E53F95834038E4F54497
:10047A00F545C3E545953DE544953C5067AB41AA32
:10048A0042A94385458285448312050EAB3EAA3FA5
:10049A00A94085458285448312054D0545E5457089
:1004AA00D1054480CD853C44853D45D3E54594003E
:1004BA00E5449400402EAB41AA42A943E54524FFF6
:1004CA00FFE54434FFFE8F82F58312050EAB3EAA88
:1004DA003FA9408F828E8312054DE545154570CBA5
:0A04EA00154480C7AB36AA37A938C5
:0104F40022E5
:040B69008D29AB0720
:100B6D00E4FCFFFEAD03120E31AC067D04120E3116
:100B7D00AC06E4FD120E31AC067D01120E31AC0651
:100B8D00AD29120E31AC06AD077F061208307F017C
:010B9D002235
:02033700AB0712
:10033900900000AF82AE83AD03120E318E838F829F
:100349007D05120E318E838F82E4FD120E318E836C
:100359008F8274FFFFE51EFEE51DFDE51CFCE47BB5
:10036900FFFAF9F8C312056F7012AF82AE837D01EF
:10037900120E318E838F82AD1F02041174FFFFFEAE
:10038900E51DFDE51CFCE47BFF7AFFF9F8C31205C6
:100399006FAF82AE8370047D02803E7D04120E3100
:1003A9008E838F82C006C007AF1FAE1EAD1DAC1C69
:1003B9007818120580AD07D007D006120E318E834A
:1003C9008F82C006C007AF1FAE1EAD1DAC1C7810D2
:1003D900120580AD07D007D006120E318E838F82A9
:1003E900C006C007AF1FAE1EAD1DAC1C78081205B4
:1003F90080AD07D007D006120E318E838F82C007D9
:10040900E51FFFE4AD07D007120E318E838F82AD51
:0A04190082AC837F061208307F01D9
:0104230022B6
:080A37008F298B2A8A2B892CE0
:100A3F00E4FCFFFEAD29120E31AC067D03120E3120
:100A4F00AC06E52DFD120E31AC06AD2E120E31ACFB
:100A5F0006AD07AB2AAA2BA92C852D34852E35126E
:0D0A6F000AFDAC06AD077F061208307F01BE
:010A7C002257
:02074400AB0701
:10074600E4FCFFFEAD03120E31AC067D02120E3143
:10075600AC06E4FD120E31AC067D04120E31C00665
:10076600C007AF1FAE1EAD1DAC1C7818120580ADBC
:1007760007D007D006120E31C006C007AF1FAE1E47
:10078600AD1DAC1C7810120580AD07D007D006123F
:100796000E31C006C007AF1FAE1EAD1DAC1C7808DB
:1007A600120580AD07D007D006120E31AC06C00781
:1007B600E51FFFE4AD07D007120E31AC06AD077F8B
:0607C600061208307F015D
:0107CC00220A
:080ECF008C298D2A1204F5FFA5
:010ED70022F8
:100E6900E4FDFCFFFE120E31AC06AD077F0302085C
:010E79003048
:100E4500E4FDFCFFFE0D120E31AC06AD077F03027B
:020E5500083063
:100891008F46AC61AD62C3ED9560FFEC955FFEEFF5
:1008A10064014E6044D3E5609562E55F9561401354
:1008B100E5609DFFE55F9CFEC3EF9421EE648094AB
:1008C100805026C3900021E5609582E55F958340C5
:1008D10006755F007560000560E560AE5F7002053A
:0A08E1005F14F5828E83E546F022D5
:0D0EAD00755F007560447561007562442238
:100BD200E56265607004E561655F6025C390002190
:100BE200E5629582E5619583400675610075620054
:100BF2000562E562AC617002056114F5828C83E0E6
:010C0200FFF2
:010C030022CE
:100E5700E56265607004E561655F60037F01227F7D
:020E6700002267
:10002600E4F508F509F50AF50BF50CF50DF50E7571
:100036000F09C3E5649421E56394005023120E571B
:10004600EF9400401B120BD20564E564AC637002AA
:100056000563142400F58274003CF583EFF080D22A
:10006600C3E5649409E563940050030201D4C3E533
:10007600649509FDE5639508FCC3ED9409EC9400CD
:10008600500302017974002509F58274003508F5DC
:1000960083E06455600A0509E50970D2050880CE3B
:1000A60074012509F58274003508F583E064AA60B9
:1000B6000A0509E50970B7050880B374022509F534
:1000C6008274003508F583E0750C00F50D64024571
:1000D6000C60047402803C74062509F582740035B0
:1000E60008F583E0750B00F50A74072509F5827497
:1000F600003508F583E02409FFE433FEEF250BF510
:100106000BEE350AF50AD3E50B9421E50A94004077
:100116000974032509F509E48052C3ED950BEC95A6
:100126000A405074002509F974003508FA7B01E588
:100136000B24FFFDE50A34FFFC120C04E509250B30
:10014600FDE508350AFC74FF2DF58274FF3CF58346
:10015600E06F600974032509F509E4800FAF09AE65
:10016600081201D5E50B2509F509E50A3508F50854
:10017600020074C3E5649509F564E5639508F563C3
:10018600D3E5649400E56394004043E509450870AF
:100196001EE5649421E563940040140509E50970A1
:1001A600020508E5649509F564E5639508F5637449
:1001B600002509F974003508753901F53A893B853A
:0E01C600633C85643D7B017A007900120424BD
:0101D4002208
:100DF70068656C6C6F2100616C726561647920694C
:0D0E07006E20626F6F746C6F616465720025
:0A0D2D0008559604970298059903F3
:03001E00020EBA15
:100B9E007D067F96120B69E4F51FF51EF51DF51CFB
:100BAE007F97120744E4F51FF51EF51DF51C7F987F
:100BBE001203377BFF7A0D79F7752D00752E077F9F
:040BCE0099020A3747
:1008EB00120ECF8F28E528B40700503D9008FEF874
:1008FB0028287302091302091802091D0209220292
:10090B00092702092C020931120EDB801C120D384B
:10091B008017120EDE8012120EE1800D1200218064
:10092B00081200228003120EC5AD287F96120B69A8
:08093B00BF01037F01227F00D0
:010943002291
:100E7A00EF246A7009AD26AC251208EB8F27AF273D
:010E8A002245
:030ED8007F042272
:020CE9008F1A60
:100CEB00E4FCFFFE7D10120E31AC06AD077F021245
:100CFB000830E51A24FD600A24027009E4F54B0262
:050D0B000B9E754B0179
:010D100022C0
:01001A0022C3
:100DBB00E4F51AF51B120B33AD07AF1BAE1A120E6F
:0E0DCB00318E1A8F1BAD1BAC1A7F0B02083045
:030EDB00020E8B79
:100D38007F807E2E120C957D807C2E7F01120C67A1
:100D48007BFF7A0D79FE752D00752E167F99120A94
:040D580037020E9CB4
:030EDE00020E45BC
:030EE100020E6995
:0100210022BC
:0100220022BB
:100E8B00C2AF75FDF075FC0F75FD8775FC78D2AFA1
:010E9B002234
:100E9C00C2AF75FDF075FC0F75FD7875FC87D2AF90
:010EAC002223
:0A0EC500E4F554F553F552F55122FF
:100D5C007B2270223A2200627474716263686C00A8
:100D6C00222C2276223A2200312E302E3000227D87
:010D7C000076
:100DD900055EE55E7002055DD3E55E94F0E55D9420
:0E0DE900FF4006755D00755E01AE5DAF5E22D7
:100E310074292FF974003EFA7B01ED12053B0FBFB7
:030E410000010E9F
:010E4400228B
:060AF7007BFFAF1BAE1AED
:0A0AFD008E2F8F308B318A3289333F
:100B070074292FF974003EFA7B0185313985323A11
:100B170085333B85343C85353D120424E535253046
:0B0B2700F530E534352FF52FFEAF3020
:010B320022A0
:100ABA008B318A3289338C348D35E94A4B602DE586
:100ACA003545346027E5351535AE34700215344E98
:100ADA00601AAB31AA32A9331204F5FF12001E7450
:0D0AEA00012533F533E43532F53280D92291
:0A0C04008B318A3289338C348D3530
:100C0E00E4FFFDFCC3ED9535EC9534501AAB310580
:100C1E0033E533AA327002053214F91204F52FFFB0
:070C2E000DBD00010C80DD8B
:010C3500229C
:060830008C2F8D30AB0798
:10083600E4FF9000217455F0A374AAF0A37402F0AB
:10084600120DD9A3E4F0EFA3F0A3EBF0E52FA3F08C
:10085600E530A3F02409F530E4352FF52F7B017A36
:10086600007921E53024FFFDE52F34FFFC120C044E
:1008760074202530F5827400352FF583EFF07B0167
:0B0886007A007921AD30AC2F020ABAD5
:10059300E4F51AF51B7BFF7A0D795C12099B8E3407
:1005A3008F357A0D795C120AF78E1A8F1B7BFF7ACF
:1005B3000D796312099B8E348F357A0D7963120A94
:1005C300F78E1A8F1B7BFF7A0D796C12099B8E3481
:1005D3008F357BFF7A0D796C120AF98E1A8F1B7B8C
:1005E300FF7A0D797412099B8E348F357BFF7A0D58
:1005F3007974120AF98E1A8F1B7BFF7A0D797A129E
:10060300099B8E348F357BFF7A0D797A120AF98E26
:100613001A8F1B7D01120E318E1A8F1BAD1BAC1A64
:050623007F0102083018
:020E14008F212C
:100E1600120ED8E4FEEEC39F500EEE25E02455F8E0
:0A0E2600E6652160030E80EDAF06C3
:010E3000229F
:060944008B1A8A1B891CBE
:10094A001204F5F51D90000112050EF51E90000225
:10095A0012050E752000F51F90000312050E2520C2
:10096A00F520E4351FF51FAF1D120E14EF25E02404
:10097A0056F8E6651E60037F0022AB1AE51C2404C4
:10098A00F9E4351BFA851F25852026AF1D120E7A3C
:01099A00223A
:0401D5008E108F11E8
:1001D900E4F512F51374052511F58274003510F54F
:1001E90083E0FD74062511F58274003510F583E06E
:1001F900751300F51274072511F58274003510F591
:1002090083E02513F513E43512F51274032511F56E
:100219008274003510F583E07F00FE74042511F522
:100229008274003510F583E02FFFE43EFEED24DCF7
:1002390070030203211470030203212424B40B0068
:10024900400302031D90025C75F003A4C58325F0E9
:10025900C5837302027D0202830202990202AC0283
:10026900032102032102031D0203210203210203C8
:0A027900210203181205930203216D
:1002830074082511F58274003510F583E0F519FF24
:03029300120CE961
:1002960002032174082511F58274003510F583E0F8
:1002A600FF12001A8075E4F517F518C3E5189513C3
:1002B600E51795125065E5112518FDE5103517FC73
:1002C600740A2DF58274003CF583E0751500F5146B
:1002D600740B2DF58274003CF583E02515F515E4C5
:1002E6003514F51474082511F974003510FA7B01DC
:1002F600E92518F9EA3517FA1209448F16E5152487
:1003060004FFE43514FEEF2518F518EE3517F5173A
:100316008099120DBB8004E4FEFF227B017A0079EE
:1003260000751E00751F21E4FD120A7D7E007F0107
:0103360022A4
:100B33007BFF7A0D795C8B1C8A1D891EE4F51F12DD
:100B430004F5FF120D87EFC4333354C0F51F900033
:100B530002120D7DEFC454F0421F900004120D7D6C
:050B6300EF421FAF1F6F
:010B6800226A
:0A0D7D00AB1CAA1DA91E12050EFFF3
:100D8700EFC394305008EF943940037FFF22EF758B
:060D9700F03084AFF022F1
:1006C4000207CDE493A3F8E493A34003F68001F278
:1006D40008DFF48029E493A3F85407240CC8C33337
:1006E400C4540F4420C8834004F456800146F6DF06
:1006F400E4800B0102040810204080900D11E47E78
:10070400019360BCA3FF543F30E509541FFEE493FA
:10071400A360010ECF54C025E060A840B8E493A3C1
:10072400FAE493A3F8E493A3C8C582C8CAC583CAEC
:10073400F0A3C8C582C8CAC583CADFE9DEE780BEA4
:010D370000BB
:1004F500BB010689828A83E0225002E722BBFE0205
:09050500E32289828A83E4932237
:10050E00BB010CE58229F582E5833AF583E02250A2
:10051E0006E92582F8E622BBFE06E92582F8E222EC
:0D052E00E58229F582E5833AF583E4932206
:10053B00BB010689828A83F0225002F722BBFE019F
:02054B00F32299
:10054D00F8BB010DE58229F582E5833AF583E8F0E4
:10055D00225006E92582C8F622BBFE05E92582C890
:02056D00F22278
:10056F00EB9FF5F0EA9E42F0E99D42F0E89C45F0E2
:01057F002259
:10058000E8600FECC313FCED13FDEE13FEEF13FF59
:03059000D8F1227D
:00000001FF
