:03000000021A0ED3
:0C1A0E00787FE4F6D8FD75818A021A5535
:10134300047400000000410083004100C00C410010
:10135300C1404400B70000000044009300000000B7
:10136300440097000000004400CD0000000044004A
:10137300C7000000004400D6000000004200A600A1
:10138300014200910000410088004100B500420085
:10139300DB0000420089000041007D084100C300DA
:1013A3004100DD004100B3004100B4004100D4001E
:1013B3004100900041009B014100AA0A4100C60080
:1013C3004100C20A4100B2004100B600420086005B
:1013D3000041007F004200D100004200C4000041F0
:1013E30000A9004100A40041007C004100A300418A
:1013F300008F0042009C00004200AF00004100D378
:101403000041008000420081000041007E00410055
:10141300A5004100AB004100BF000C7F00000000AD
:0D14230000000000000000004200840000F6
:10121C00EF24A0FFEE340FFEE43DFDE43CFC120491
:10122C00D6D3020493E49000C3F09000C17440F054
:10123C009000B57402F090007D7406F0E490008389
:10124C00F09000CD229000931204CA9000B71204C3
:10125C00D61203379000931204E29000930204CA52
:10126C009000B71204D6C3020493E4FCFD120337BA
:10127C009000D60204E29000BB1204CAEF2470FF67
:10128C00EE3417FEE43DFDE43CFC90009322122763
:10129C001EE47BE87A03F9F890008B0204CAE4752B
:1012AC00F0010203219000C1E0FF900083E0C39F96
:1012BC0022D39000A7E094009000A6E094002212A4
:1012CC0004CA9000971204D602033790008B0204D4
:1012DC00E29000B70204CAF09000AAE09000C2F0BD
:1012EC0022D39000DCE094009000DBE09400227F9D
:1012FC000A1220399000ACEFF09000D522F090004B
:10130C00C70204CA9000D60204D6D39DEC6480F8C0
:10131C0074809822E47B02FAF9F80203DD900093C2
:10132C000204D67E2F122D007F107E27227C2F12D6
:07133C002CC07F647E00223B
:101FAA00D310AF01C3C0D08E518F528D538B548A38
:031FBA00558956F0
:101FBD00E4F557C2AFF557E557C395535020785404
:101FCD00E475F00112052B120295FF0552E552AC96
:101FDD00517002055114FD122CC0055780D9D2AF96
:051FED00D0D092AF22EC
:102450008E098F0A8B0B8A0C890DAF051DEF602149
:10246000050AE50AAE097002050914F5828E83E4B7
:1024700093FF780BE475F00112052BEF1202DB805D
:02248000D9225F
:1027A600E4FDFCC3ED9FEC9E50070DBD00010C80BF
:0127B600F230
:0127B70022FF
:1025C5008F828E83E4F577F576F575F574AF82AE77
:1025D50083E4FCFDAB77AA76A975A874C3120493AE
:0825E500500543BD1080E62201
:09271500E0FF7C2F122CC07F6450
:10271E00E4FDFCC3ED9FEC9E50070DBD00010C8047
:01272E00F2B8
:01272F002287
:10000300758E5190FE917401F0A37410F075BD5F6D
:0700130090FEA07420F02212
:1026BD00E490FE80F0758901758DFA758BCB43A87A
:0E26CD0008438840758CCB758AEB4388102239
:1024B40090FF10E054F04408F090FF02E054F04420
:1024C40002F0D28490FFA07420F0A37404F075CCC1
:1024D4000675CEFF75CD98759E0275981043A810A9
:0124E40022D5
:10274B0043B40343B4807F147E001227A675B501F2
:07275B0090FE9B744BF0227D
:1026F90090FF08E054F04408F090FF00E0540F44C4
:0C27090030F090FF11E054F04403F02287
:0B2810008F99E59830E1FB5398FD2202
:102039008FB543B440E5B430E5FB53B4DF7F647E2C
:10204900001227A6E4FBFAF943B440E5B430E5FBF6
:1020590053B4DFE5B62BFBE5B73AFA7F147E0012DD
:1020690027A609B910E275B501A9027F647E00129D
:0420790027A6AF01E6
:01207D002240
:1010E8007B007A00797F7D0C7F007E2F1224507858
:1010F8007FE6FFE4FCFDFE1212D71212A478081254
:1011080004B71212D790008B1204D6C0007880E67C
:10111800FFE4FCFDFED0001203371212D71212A40E
:10112800E47BE87A03F9F81203521212D7E47F300D
:101138007E75FDFC90008B12126F40107F007E09B7
:101148007D3D7C0090008B12122A400A90008B1281
:1011580004EE00009C407881E69000DAF07002808E
:10116800079000DAE0B4FE0374FFF07882E6FF909F
:1011780000ADE4F0A3EFF0E0F8E4F0E89000ADF0A3
:101188007883E6FFE48FF01203219000ADE0FEA320
:10119800E0FF4E6009D3EF9408EE940740099000F1
:1011A800ADE4F0A37405F07884E69000AAF090000E
:1011B800B6F008E690009EF06006E0D394FF400683
:1011C80090009E7401F07886E6F4540190009BF03C
:1011D80008E654019000A9F008E65401900090F048
:1011E80008E6540190008FF07B017A0079847D0233
:1011F8007F807E2F122450900084E09000B2F090FF
:101208000085E09000A3F012197D9000A3E0700320
:041218001227B822BF
:100561009000B3E06003020A4243B440E5B430E5D1
:10057100FB53B4DF85B70985B60A9000911212AA20
:10058100121310AE09AF0A1212769000CBE0FEA34F
:10059100E0FFC3950AEE9509500DC3E50A9FF50AE0
:1005A100E5099EF509800BC3EF950AF50AEE950959
:1005B100F5099000971204D6AE09AF0AE4FCFD12CA
:1005C10003379000971204E2900091E05401FEA3DA
:1005D100E04E70521212ED40179000C2E094645048
:1005E1003DE02402F0E0D3946440337464F0802E43
:1005F100900089E07004A3E06401702A9000AAE0F1
:10060100FF9000C2E0FED39F4014EE94024004E04C
:1006110024FEF09000C2E0C39F50031212E4900048
:10062100C2E0FF121A9AC3900091E0942050030295
:100631000A7343BD10E4F0A3F09000C3E004121369
:10064100099000D61212D19000C71204E29000C3A3
:10065100E0C394084030E412130978101204A49006
:1006610000C71204E212130A9000CBEE8FF01203BE
:10067100219000CBE0C313F0A3E013F09000C71268
:1006810004EE0000000090007DE0C394085005E0F6
:1006910004F080409000DBE07002A3E0703612129B
:1006A100FBE0FE2402FDE433FCEF12131650189018
:1006B10000ACE02402FDE433FCEE12131650089066
:1006C10000D5E09000ACF09000ACE09000D5F0E4F3
:1006D10090007DF0E4FFFEFDFC90009312126F701C
:1006E100369000971204CAEF2488FFEE34131212D9
:1006F1008F1204E29000A6E07002A3E070197F401F
:100701007E427D0FFC90009312122A400A900093C2
:100711001204EE000F4240900083E07016900097A3
:100721001204CA9000B71204E290009F1204EE0076
:1007310000000190009F1212CB12126C40030208BC
:10074100E890009F1204CA9000B71212D19000974E
:1007510012126F40030208E8900083E004F0900059
:10076100CD1212CB9000CD1204E2900083E0FFFB8A
:10077100E4FAF9F89000CD1204CA1203DD9000B733
:100781001204E21212DD78031204A490009F1204F5
:10079100E2E47F207E4EFDFC90009F12126F500A12
:1007A10090009F1204EE00004E20E47F607EEAFD7F
:1007B100FC90009F12122A400A90009F1204EE0042
:1007C10000EA601212DD90009312122A403E90005E
:1007D100B71204D612126612034412127C7F807E75
:1007E100387D017C009000D612122A40089000C08A
:1007F1007406F0801DE47F407E9CFDFC9000D612C3
:10080100122A9000C040087409F080069000C0745C
:100811000CF09000C01212B4403B12126612126C1E
:1008210050339000C1E0941050030208F79000C0CB
:10083100E0D3940950051212DD80111212DD9000EF
:100841009312121C400C1212511213209000931299
:1008510004E20208E81212B150030208F71212660C
:100861009000B712121C40771213291212DD1203E5
:100871004412127C7F007E127D7A7C0012126C5031
:100881005E7F807E1A7D067C009000D612126F502A
:100891004E9000C1E09410400280387FE07E937D4D
:1008A100047C009000D612122A40089000C17410F6
:1008B100F0801B7FF07E497D027C009000D61212F1
:1008C1002A9000C14005740CF080037408F01212E4
:1008D100B1400C1212511213209000931204E21233
:1008E10012B14012E48004E4900083F09000CD1234
:1008F10004EE000000009000B5E0D394004036E023
:1009010014F012128212122A50030209F99000BB4C
:100911001204CAEF2498FFEE343AFEE43DFDE43CB4
:10092100FC90009712126F40030209F91212821211
:1009310004E20209F91212BD405774FFF5F01203E7
:10094100211212BD404B7F007E127D7A7C00900007
:100951009312122A400C90008B1204EE000C350009
:10096100802F1212A41213291212797F407E547D16
:10097100897C009000D612122A4016121329C374E2
:10098100409BFF74549AFE748999FDE498FC1212FD
:10099100D71212A49000931212D190009712122A2A
:1009A10040569000DAE0FF9000ACE0D39F40051282
:1009B10012BD40449000DBE07002A3E07009121206
:1009C100669000BB1204E29000DBE4F0A304F09017
:1009D10000A4F090009C1212AA9000A57401F0905E
:1009E10000C17408F0E4900089F0A3F09000D1F008
:1009F100A3F09000C4F0A3F09000D61204EE000022
:100A010000009000971204EE000000009000DBE06F
:100A1100FEA3E0FFD39400EE940040569000ADE0B9
:100A2100FCA3E0FDD3EF9DEE9C4047E49000DBF09A
:100A3100A3F09000B304F0E49000A4F090007CF0E7
:100A410022900089E4F0A304F0E49000B3F0900058
:100A510086F0A3F090007FF07FFAFE1225C590008A
:100A6100C71204EE000000001212311204EE000061
:020A7100000083
:010A73002260
:101E0000E4F50A9000D61204EE00000000E4F509A3
:101E100043B440E5B430E5FB53B4DF121310AFB662
:101E2000AEB71212760509E509B480E47F907E0111
:101E30001225C59000D61204CA780B1204A48F098B
:101E4000E509D3940C400CE509948D5006E50A94FD
:0D1E500014500A050AE50AD3945040A72259
:011E5D002262
:101E5E009000D61204EE00000000E4F509E4F50C43
:101E6E00F50D43B440E5B430E5FB53B4DF85B70A56
:101E7E0085B60B121310AE0AAF0B121276050DE5D6
:101E8E000D7002050CB400DAE50CB420D543BD107C
:101E9E000509E509B408C69000D61204CA781012D6
:0A1EAE0004A49000CBEEF0A3EFF0C7
:011EB8002207
:101A9A00EF700C9000D304F0E49000ABF0801ABF12
:101AAA00640CE49000D3F09000AB04F0800B90003B
:101ABA00D37402F09000AB14F0BF0104E4FE803945
:101ACA007E007C007DFF12030FAC06AD07E4120115
:101ADA00DBE4FBFA79C878421201398F0E8E0D8D3C
:101AEA000C8C0BE4FFFEFD7C3FAB0EAA0DA90CA8E3
:101AFA000B120045120214AE0790FF9C7410F07589
:091B0A00DEFF8EDF75DD947F0023
:011B130022AF
:100A74001200261200031226F97F64121A9A122613
:100A8400BD1224B412274B75BBAA90FEA774FFF0C5
:100A940053BBF7D2AF7FC87E001225C57F64121AFC
:100AA4009A9000D47401F01212FBF0C2AF1210E855
:100AB4009000B2E004F07F807E2F122D007F107E24
:100AC4002712271E9000B2E0FF7D807C2F122CC0DD
:100AD4007F647E0012271ED2AF121E009000AAE08F
:100AE400FF9000C2F0121A9A7F2C7E011225C512C3
:100AF4001E5E9000D61204EE000000007FF47E011A
:100B04001225C57FAA1228107FAE1228109000B2B9
:100B1400E0C394034005E4F012001E900080E0FF5F
:100B24009000D3E0FD6F600D7F761225149000D302
:100B3400E0900080F09000BFE0FF9000ABE0FD6F1C
:100B4400600D7F771225149000ABE09000BFF09009
:100B5400007EE0640170419000A5E0B4013AE490A5
:100B6400007EF09000A5F090009CE0FEA3E0FF90D2
:100B740000AFE06E7003A3E06F601DE48F318E3030
:100B8400F52FF52E7F74121C6F90009CE0FFA3E0FC
:100B94009000AFCFF0A3EFF043BD109000B3E0702E
:100BA4000B900092E0541F7003120CAD90009BE078
:100BB40064016003020C759000B4E0701D9000B3F2
:100BC400F0A3041212E39000C71204EE0000000028
:100BD4001212311204EE00000000120561D39000DD
:100BE4008AE09400900089E09400403390007FE014
:100BF400B4012CE4F09000891212AB90009EE0FF47
:100C0400C390008AE09F900089E094004011E4F0D2
:100C1400A3F090008FE064016005E4FF121A9A12B9
:100C240012ED40189000C4E07004A3E06401700C5D
:100C34009000C4F0A3F09000DB1212AB9000A9E086
:100C440064016003020B009000A4E0FF90007CE0CC
:100C54006F7003020B00EFF09000DBE4F0A304F0EC
:100C6400E4F508E508C394084003020B0005088076
:100C7400F2E49000B4F0900090E07007FF121A9A2A
:100C8400020B009000B6E0FF121A9AE49000B3122F
:100C940012E39000C71204EE000000001212311299
:090CA40004EE00000000020B0048
:03001B0002177950
:10177900C0E0C0F0C083C082C0D075D000C000C036
:1017890001C002C003C004C005C006C007AF77AEE0
:1017990076AD75AC74EF2401FFE43EFEE43DFDE453
:1017A9003C8F778E768D75F5749000861212AA900B
:1017B9000086E0FEA3E0FFE4FCFD7B607AEAF9F82D
:1017C900D312047D500C900086E4F0A3F090007FC2
:1017D90004F09000D11212AAC39000D2E094E890CC
:1017E90000D1E09403400BE4F0A3F09000C4F0A30F
:1017F90004F09000811212AAC3900082E094E8904C
:101809000081E094034009E4F0A3F090007E04F025
:10181900D007D006D005D004D003D002D001D00023
:0B182900D0D0D082D083D0F0D0E032CD
:03002300021FF2C7
:101FF200C0E0C0F0C083C082C0D075D000C000C0B5
:0D20020001C002C003C004C005C006C00735
:0F200F00E59830E00AAF99121DA15398FED2AFA9
:10201E00D007D006D005D004D003D002D001D00016
:0B202E00D0D0D082D083D0F0D0E032C0
:03003B0002001AA6
:01001A0032B3
:102D0000D310AF01C3C0D053BBF7C280E5BB20E3F3
:102D1000F6D280C2AF75FDF075FC0F8EFA8FF97593
:102D2000FDD275FC2D75FDE175FC1ED0D092AF2251
:102CC000D310AF01C3C0D053BBF7C280E5BB20E334
:102CD000F6D280C2AF8FFB75FDF075FC0F8CFA8DBC
:102CE000F975FDB475FC4B75FDE175FC1ED0D092F5
:022CF000AF2211
:10197D007F0012132F12129A1203DD78081204A49D
:10198D007D0012133912129A1203DD7D01121339E3
:10199D0012271E9000DA7D021227159000AD7D03EF
:1019AD00122715A3E0FF7D041227179000AAE0FF70
:1019BD007D0512271790009EE0FF7D0612271790D8
:1019CD00009BE0F4FF7D071227179000A9E0FF7D33
:1019DD0008122717900090E0FF7D0912271790003D
:1019ED008FE0FF7D0A1227177F8012132F12271EFB
:1019FD007D807C2FE4FF122CC00D0F122CC0D2AFB6
:011A0D0022B6
:04143000027C00003A
:1016B4001202AEFFE5324FFFE531FEE530FDE52FC6
:1016C4008F328E318D30F52FFC78081204B78F32AB
:1016D4008E318D3022AF6EAE6DAD6CAC6B1204A446
:1016E400AD0722AF73AE72AD71AC701204A4AD0736
:1016F40022AF31AE30AD2FAC2E1204A4AD0722E4DC
:1017040075F00102052BFCE47AFF7BFFF9F8C302B4
:101714000493AB07E4FCFFFEAD0322AC06AD077FE8
:101724000622E57D950AF57DE57C9509F57C22AFD9
:101734007BAE7AAD79AC780204A4E5428543838517
:101744004482654522E4F523F522F521F520221291
:1017540002AEAB2CAA2DA92E22AB58AA59A95A0223
:101764000295AB5BAA5CA95D0202957400250AF997
:0517740074003509229C
:101BFE00EFC39430400CEFD39439500674D02FFFBE
:101C0E008022EFC39441400CEFD394465006EF244C
:101C1E00C9FF8010EFC39461400AEFD3946650045D
:101C2E00EF24A9FFEF540FC454F0FFEDC3943040DE
:101C3E000CEDD39439500674D02DFD801EEDC39457
:101C4E00414008EDD394465002800CEDC3946140A0
:101C5E000AEDD394665004ED24A9FDED540F42070E
:011C6E002253
:0620C2008B1D8A1E891F20
:1020C800121749E94A4B7005FFFEFDFC2212174919
:1020D800781D121703120295601AE5232401FFE404
:1020E8003522FEE43521FDE435208F238E228D2113
:0C20F800F52080DCAF23AE22AD21AC202F
:0121040022B8
:0623B5008B1B8A1C891D30
:1023BB008B218A228923E94A4B7004FBFAF922E527
:1023CB00201520AE1F7002151F4E600B78211217BF
:0D23DB0003ED1202DB80E8AB1BAA1CA91D5C
:0123E80022D2
:0615EF008B248A258926E9
:1015F5008B2C8A2D892E85272F852830852931E941
:101605004A4B6008E5294528452770077B007A0085
:10161500790022D3853083853182E52E9582E52DAB
:1016250095834019E531252BF9E530352AFA8A836A
:101635008982D3E52E9582E52D95834032E4F532F6
:10164500F533C3E533952BE532952A505BAB2FAACD
:1016550030A93185338285328312175385338285CC
:1016650032831202ED0533E53370D7053280D38519
:101675002A32852B33D3E5339400E5329400402894
:10168500AB2FAA30A931E53324FFFFE53234FFFE45
:101695008F82F5831217538F828E831202EDE53305
:0E16A500153370D1153280CDAB24AA25A926AD
:0116B3002214
:0622CB008B488A49894A94
:1022D1008B4E8A4F8950AB4BAA4CA94D1202956087
:1022E10014784B121703120295FF7848121703EF67
:1022F1001202DB80E1AB48AA49A94AE41202DBAB36
:052301004EAA4FA95097
:0123060022B4
:10207E008B588A59895A12175DFF602012176660B5
:10208E001BB507187401255AF55AE43559F55974DC
:10209E0001255DF55DE4355CF55C80DA121766FFAF
:1020AE003395E0FE12175DFD3395E0FCC3ED9FFF07
:0420BE00EC9EFE2274
:10241D008F7B8E7A8D798C7878181204A4EF120246
:10242D00DB7810121733900001EF1202ED780812CD
:10243D001733900002EF1202EDE57BFF900003EFE2
:03244D000202ED9B
:101F1400E4F532F531F530F52F120295FFE48F32F6
:101F2400F531F530F52FAE31AD30AC2F1216CD8C26
:101F34002F9000011216B48C2F9000021216B48C4C
:101F44002F9000031202AEFFE5324FFFE531FEE5AC
:0A1F540030FDE52F1216D2F52FFC28
:011F5E002260
:02237D008D29A8
:10237F001217161223A8E4FD1223A8AD07E5297042
:10238F0003FD8006AF05AE047D011227F7AC06AD45
:08239F00077F06121CDC7F0120
:0E23A700221227F7AC067D011227F7AC0622A2
:022514008D290F
:102516001217161227F7AC067D041227F7AC06E44D
:10252600FD1227F7AC067D011227F7AC06AD29127E
:0A25360027F712171F121CDC7F01AB
:012540002278
:02152800AB070F
:10152A00900000AD031215CB7D051215D7E4FD120C
:10153A0015D774FFFFE56DFEE56CFDE56BFCE4FA7B
:10154A0012170E700A7D011215CBAD6E0215B87412
:10155A00FFFFFEE56CFDE56B12170AAF82AE8370E2
:10156A00047D0280227D041215DFC006C0077818A8
:10157A001216D9D007D0061215DFC006C007781098
:10158A001216D9D007D0061215E7C006C007AF6EEB
:10159A00AE6DAD6CAC6B78081204A4AD07D007D061
:1015AA00061215E7C007E56EFFE4AD07D00712275C
:1015BA00F78E838F82AD82AC837F06121CDC7F019B
:1015CA0022AF82AE831227F78E838F82221227F7E9
:1015DA008E838F82221227F78E838F82221227F719
:0515EA008E838F8222B8
:02145F00AB07D9
:10146100900000AD031215047D05121510E4FD1264
:10147100151074FFFFE572FEE571FDE570FCE47B7C
:10148100FFFA121710700A7D01121504AD730214D0
:10149100F174FFFFFEE571FDE57012170AAF82AE30
:1014A1008370047D02802C7D04121518C006C007CC
:1014B10078181216E7D007D006121518C006C00713
:1014C100AF73AE72AD71AC7078101204A4AD07D0D9
:1014D10007D006121520C006C00778081216E7D0FB
:1014E10007D006121520C007E573FFE4AD07D0074A
:1014F1001227F78E838F82AD82AC837F06121CDCAC
:021501007F0168
:1015030022AF82AE831227F78E838F82221227F7B0
:101513008E838F82221227F78E838F82221227F7E0
:051523008E838F82227F
:082105008F5E8B5F8A60896127
:10210D00E4FCFFFEAD5E1227F7AC06E4FD1227F7E7
:10211D00AC06E562FD1227F7AC06AD631227F7ACEE
:10212D0006AD07AB5FAA60A96185622285632312A4
:0A213D0024E512171F121CDC7F01BD
:012147002275
:082148008F648B658A668967CC
:10215000E4FCFFFEAD641227F7AC067D031227F7FF
:10216000AC06E568FD1227F7AC06AD691227F7AC9F
:1021700006AD07AB65AA66A9678568228569231243
:0A21800024E512171F121CDC7F017A
:01218A002232
:101C6F001217161227F7AC067D021227F7AC06E4FF
:101C7F00FD1227F7AC067D041227F7C006C00778C0
:101C8F00181216F5D007D0061227F7C006C007782E
:101C9F00101216F5D007D0061227F7C006C007AFEF
:101CAF0031AE30AD2FAC2E78081204A4AD07D0079B
:101CBF00D0061227F7AC06C007E531FFE4AD07D019
:0C1CCF00071227F712171F121CDC7F0100
:011CDB0022E6
:082826008C298D2A120295FF96
:01282E002287
:08282F008C298D2A120295FF8D
:01283700227E
:072838008C2D8D2E121F14E0
:01283F002276
:0E27DB00900030EFF07D017C007F08021CDCD6
:1027CA00E4FDFCFFFE1227F7AC06AD077F03021CEF
:0127DA00DC22
:1027B800E4FDFCFFFE0D1227F7AC06AD077F030210
:0227C8001CDC17
:101DA1008F39C3E5479544FFE5469543FEEF64014E
:101DB1004E604BD3854683854782E5449582E54352
:101DC10095834015E5449547FFE5439546FEC3EFEE
:101DD1009421EE648094805025C3900021E54495C0
:101DE10082E5439583400D7A007900754201754380
:0F1DF100007544007842121703E5391202DB2215
:100026007542017543007544517545017546007565
:030036004751220D
:10230700AB45AA46A94712173E700AE54765827092
:1023170004E54665836024C3900021E5479582E57F
:10232700469583400D7A007900754501754600751D
:0B23370047007845121703120295FFC3
:012342002278
:1027620012173E700AE54765827004E5466583608C
:07277200037F01227F00221A
:100CAD00E4F509F50AF50BF50CF50DF50EF50F75D7
:100CBD001009C3E57D9421E57C9400502312276231
:100CCD00EF9400401B122307057DE57DAC7C70027F
:100CDD00057C142400F58274003CF583EFF080D27E
:100CED00C3E57D9409E57C94005003020E3DC3E5F8
:100CFD007D950AFDE57C9509FCC3ED9409EC940006
:100D0D005003020DFA7400250AF58274003509F5B9
:100D1D0083E06455600A050AE50A70D2050980CEA4
:100D2D007401250AF58274003509F583E064AA6023
:100D3D000A050AE50A70B7050980B37402250AF59C
:100D4D008274003509F583E0750D00F50E640245DA
:100D5D000D60047402803C7406250AF5827400351A
:100D6D0009F583E0750C00F50B7407250AF58274FF
:100D7D00003509F583E02409FFE433FEEF250CF57A
:100D8D000CEE350BF50BD3E50C9421E50B940040DF
:100D9D00097403250AF50AE4804CC3ED950CEC9516
:100DAD000B404A12176FFA7B01E50C24FFFDE50B92
:100DBD0034FFFC122541E50A250CFDE509350BFC38
:100DCD0074FF2DF58274FF3CF583E06F60097403A9
:100DDD00250AF50AE4800FAF0AAE09120FA0E50C43
:100DED00250AF50AE50B3509F509020CFBC31217A7
:100DFD0026D3E57D9400E57C94004034E50A450951
:100E0D007015E57D9421E57C9400400B050AE50AFB
:100E1D007002050912172612176F752701F528891B
:100E2D0029857C2A857D2B7B017A0079001215EFAF
:010E3D002292
:101434004100E2004400DE000000005C00E3010122
:1014440003026504660267016802690271017201A0
:0A1454007301740275017604770439
:10234300AB23AA24A925AD27AC2622E0FEA3E0FFF8
:10235300E48F318E30F52FF52E22E0FFE48F31F537
:1023630030F52FF52E22E0FFE4FCFDFEC3020493BB
:0A237300FDEF4DFFEEF0A3EFF022A6
:03001E000227B8FE
:03284F000228104C
:0100210022BC
:10277900122826900000EFF0FD7F0112237DBF0192
:06278900037F01227F0026
:01278F002227
:10218B001228388F2C8E2B8D2A8C299000AAAB2CE1
:10219B00AA2BA92AA8291223696006E4FF0FBF08FE
:1021AB00FCAF2C9000AAEFF09000B6F012197D90C6
:1021BB0000AA12235D7F03121C6FBF01037F012254
:0221CB007F0093
:0121CD0022EF
:101B140012282F9000E2E0B5070FBF05129000DAFB
:101B2400E0FE9000ACE06E8006E4FE0EBE08FCEF22
:101B340014601014601514601A14601F14602424B7
:101B44000570289000DA74FFF080209000DA74C8E1
:101B5400F080189000DA7428F080109000DA741481
:101B6400F080089000ACE09000DAF09000E2EFF032
:101B740012197D9000E2E0FD7F65122514BF010378
:051B84007F01227F003B
:011B89002239
:101F5F001228388F2C8E2B8D2A8C299000ADE0FE05
:101F6F00A3E0FFE4FCFDAB2CAA2BA92AA829C312DE
:101F7F0004936006E4FF0FBF08FC9000ADE52BF063
:101F8F00A3E52CF012197D9000AD12234E7F66123F
:0A1F9F001C6FBF01037F01227F00C9
:011FA9002215
:1024820012282690009BE06F6006E4FE0EBE08FC58
:10249200EF90009B7003F080037401F012197D909D
:1024A200009BE0FD7F6712237DBF01037F01227F36
:0124B2000029
:0124B3002206
:102250001228388F2C8E2B8D2A8C2990009EAB2C27
:10226000AA2BA92AA8291223696006E4FF0FBF0838
:10227000FC90009EE52CF012197D90009E12235DCB
:0D2280007F68121C6FBF01037F01227F00E9
:01228D00222E
:101B8A001228388F2C8E2B8D2A8C299000DE120475
:101B9A00CAAB2CAA2BA92AA829C31204936006E46B
:101BAA00FF0FBF08FCAF2CAE2BAD2AAC299000DE8C
:101BBA001204E2C37432952CFFE4952BFEE4952AB5
:101BCA00FDE49529FCE47B107A27F9F81203529078
:101BDA00008B1204E212197D9000DE1204CA8F31C2
:101BEA008E308D2F8C2E7F69121C6FBF01037F01EF
:031BFA00227F0047
:011BFD0022C5
:10221100122826900090E06F6006E4FE0EBE08FCD6
:10222100EF7006900090F0801390009BE0B40106DF
:102231009000A47401F09000907401F0900090E07F
:0E224100FD7F7112237DBF01037F01227F000C
:01224F00226C
:10256E00122826AD079000A9E06D6006E4FF0FBFAC
:10257E0008FCED9000A97003F080037401F07F72E7
:0B258E0012237DBF01037F01227F00AC
:01259900221F
:1026140012282690008FE06F6006E4FE0EBE08FCD0
:1026240090008FEFF0FD7F7312237DBF01037F01C4
:03263400227F0002
:012637002280
:10273000122826EF6012E490009CF0A3F090009C19
:0A27400012234E7F74121C6F7F01FC
:01274A00226C
:06284800900008E0F57E9F
:01284E002267
:061834008B238A248925A4
:10183A00EF12053B186301188503188E6518966622
:10184A00189E6718A66818AE6918B67118BE72187D
:10185A00C67318CE75000018D81223431227798F41
:10186A0028E5286401706C9000C6E004F0E0C39497
:10187A00054060E4F012001E0218DD122343122113
:10188A008B0218D4122343121B14803E12234312D4
:10189A001F5F8036122343122482802E12234312A2
:1018AA0022508026122343121B8A801E12234312BF
:1018BA002211801612234312256E800E1223431220
:1018CA00261480061223431227308F288000E490C2
:0518DA0000C6F0AF287C
:0118DF0022E6
:032852007F0E22D4
:02269D008F1B91
:10269F00E4FCFFFE7D101227F7AC06AD077F021298
:0D26AF001CDCE51B14700612002112197DC1
:0126BC0022FB
:0100220022BB
:1026DB00E4F51BF51C1221CEAD07AF1CAE1B122768
:0E26EB00F78E1B8F1CAD1CAC1B7F0B021CDC82
:020E3E008F1B08
:100E4000E4F51CF51DF51EF51F12259AE51CC3944B
:100E5000085020E51B251C2408F582E43400F583A6
:100E6000E0FF7442251CF582E43400F583EFF005C1
:100E70001C80D97410251BF582E43400F583E090C2
:100E8000004AF07412251BF582E43400F583E07EFD
:100E9000007810C333CE33CED8F9FDAC06741125DB
:100EA0001BF582E43400F583E07E007818C333CE6E
:100EB00033CED8F9FFEE4CFCEF4DFD7413251BF536
:100EC00082E43400F583E04CFEEDFF7414251BF53D
:100ED00082E43400F583E090004B122373741625EE
:100EE0001BF582E43400F583E07E007810C333CE36
:100EF00033CED8F9FDAC067415251BF582E4340019
:100F0000F583E07E007818C333CE33CED8F9FFEEF8
:100F10004CFCEF4DFD7417251BF582E43400F5837E
:100F2000E04CFEEDFF7418251BF582E43400F583D8
:100F3000E090004F1223737523017524007525720C
:100F40007B017A007942121D3FEF4E70241221CEB0
:100F500090004AE0D39F4019D390004CE094009059
:100F6000004BE09400400AE4FD120F94751F0180CD
:100F7000087D01120F94E4F51FE490004DF0A3F0FA
:100F8000AD1EAC1D7F0C121CDCE51FB401057F01FA
:030F90001223E940
:0D0F930022AF1EAE1D1227F78E1D8F1E22ED
:0D27E90074082FF582E43400F583E0F51B41
:0127F60022C0
:10267C007B2270223A2200627474716263686C006F
:10268C00222C2276223A2200312E302E3000227D4E
:01269C00003D
:1026380074082512F58274003511F583E022742997
:102648002FF974003EFA7B01221227F7AC06AD077A
:032658007F0322DB
:1025ED0090007AE475F001120321D390007BE09402
:1025FD00F090007AE094FF4005E4F0A304F0900021
:07260D007AE0FEA3E0FF22CA
:0C27F700122646ED1202DB0FBF00010E9F
:0128030022B2
:0A24E5008E1D8F1E8B1F8A20892197
:1024EF00122646851F2785202885212985222A85A2
:1024FF00232B1215EFE523251EF51EE522351DF5BD
:04250F001DFEAF1EE0
:0125130022A5
:10228E008B348A3589368C378D38E94A4B602DE58B
:10229E003845376027E5381538AE37700215374E9A
:1022AE00601AAB34AA35A936120295FF12284F7464
:0D22BE00012536F536E43535F53580D92299
:0A2541008B348A3589368C378D38CB
:10254B00E4FFFDFCC3ED9538EC953750157834E47A
:10255B0075F00112052B1202952FFF0DBD00010C1A
:02256B0080E20C
:01256D00224B
:061CDC008C328D33AB07D2
:101CE200E4FF9000217455F0A374AAF0A37402F0EB
:101CF2001225ED900024E4F0EFA3F0A3EBF0E5321F
:101D0200A3F0E533A3F02409F533E43532F5327B51
:101D1200017A007921E53324FFFDE53234FFFC121C
:101D2200254174202533F58274003532F583EFF0B6
:0D1D32007B017A007921AD33AC3202228EA4
:1018E000E4F51BF51C7A26797C12195B7A26797C43
:1018F00012194D7A26798312195B7A267983121987
:101900004D7A26798C1219737A26798C1219657A98
:101910002679941219737A2679941219657BFF7AC5
:1019200026799A1220C28E228F237BFF7A26799AFB
:10193000AF1CAE1B1224E58E1B8F1C7D011227F7F6
:0D1940008E1B8F1CAD1CAC1B7F01021CDC3C
:10194D007BFFAF1CAE1B1224E58E1B8F1C227BFF71
:10195D001220C28E228F23227BFFAF1CAE1B1224BE
:10196D00E58E1B8F1C227BFF1220C28E228F23221D
:02265B008F22CC
:10265D00122852E4FEEEC39F501275F002EE900068
:0E266D00E312051FE0652260030E80E9AF0650
:01267B00223C
:061EB9008B1B8A1C891D31
:101EBF00120295F51E9000011202AEF51F9000025E
:101ECF001202AE752100F5209000031202AE2521FB
:101EDF00F521E43520F520AF1E12265B75F002EFD9
:101EEF009000E412051FE0651F60037F0022AB1B0B
:101EFF00E51D2404F9E4351CFA852026852127AF3A
:041F0F001E12183452
:011F130022AB
:040FA0008E118F120D
:100FA400E4F513F51474052512F58274003511F572
:100FB40083E0FD74062512F58274003511F583E093
:100FC400751400F51374072512F58274003511F5B4
:100FD40083E02514F514E43513F51374032512F591
:100FE4008274003511F583E07F00FE74042512F548
:100FF4008274003511F583E02FFFE43EFEED120507
:101004003B103301103902104503104F0410D20570
:1010140010D20610D20810D20910D20A10BB0B103D
:10102400C00C10C70E10D22410D225000010CE120E
:0510340018E00210D2DB
:09103900122638F51AFF12269D5B
:101042000210D2122638FF1200220210D2E4F51842
:10105200F519C3E5199514E51895135073E5122592
:1010620019FDE5113518FC740A2DF58274003CF562
:1010720083E0751600F515740B2DF58274003CF5AE
:1010820083E02516F516E43515F51574082512F9D1
:1010920074003511FA7B01E92519F9EA3518FA12BB
:1010A2001EB98F17E5162404FFE43515FEEF251946
:1010B200F519EE3518F51880991226DB8012AF1259
:1010C200120E3E800BAF121227E98004E4FEFF22CB
:1010D2007B017A007900751F00752021E4FD12233F
:0510E200B57E007F0156
:0110E70022E6
:0B281B00E4FDFCFFFE122651021CDC55
:0C280400E4FDFCFFFE0D122651021CDC5E
:08284000E4FDFC7F02021CDC38
:10259A00E4FF7520FF75212675227CAB20AA21A9AC
:1025AA00228F827583001202AEFE74722FF582E4C6
:0A25BA003400F583EEF00FBF08E1D6
:0125C40022F4
:1021CE007BFF7A26797C8B208A218922E4F52312E3
:1021DE000295FF122790EFC4333354C0F5239000BD
:1021EE0002122202C454F042239000041222024230
:0321FE0023AF23E9
:1022010022AB20AA21A9221202AEFF122790EF22AF
:0223E900AB0740
:1023EB00E4FFFEFCAD031227F7ECC3940850127404
:1023FB00422CF582E43400F583E0FD1227F70C80C4
:10240B00E890004AE0FD1227F7AD07AC067F0E02FD
:02241B001CDCC7
:061D3F008B208A2189229D
:101D4500AB23AA24A925120295FFAB20AA21A9221B
:101D5500120295FDC39FFBE49400FEAF034B701B7D
:101D6500ED601874012522F522E43521F521740171
:101D75002525F525E43524F52480C5C3EE64809436
:101D85008050057EFF7FFF22D3EF9400EE648094A0
:0B1D95008040057E007F0122E4FEFF7D
:011DA0002220
:10279000EFC394305008EF943940037FFF22EF7568
:0627A000F03084AFF022CE
:10003E00020280E86480F8E933E83360110460F06E
:10004E00ED33EC337009E8FCE9FDEAFEEBFF220428
:10005E0060DED3EB9FEA9EE99DE8C2E78CF0C2F723
:10006E0095F0400CE8CCF8E9CDF9EACEFAEBCFFBEF
:10007E0012024B85D0F05804700320D5B3E80470FB
:10008E00075002B2D502028A92D5EC0460F7E4CC96
:10009E00C0E0C398F8603B94186008400DD0E0FBB8
:1000AE00020262E4FBFAC9FC8028E830E406E4C9E7
:1000BE00FBE4CAFCE830E305E4C9CACBFCE854070C
:1000CE006010F8C3E913F9EA13FAEB13FBEC13FC17
:1000DE00D8F130F52FC3E49CFCEF9BFFEE9AFEEDBA
:1000EE0099FDD0E0FBEF4E4D4C701222DB03020265
:1000FE0087EC2CFCEF33FFEE33FEED33FDED30E7F6
:10010E00EB020262EF2BFFEE3AFEED39FDD0E0FB83
:10011E0050130BBB000302028AED13FDEE13FEEF2C
:08012E0013FFEC13FC02026256
:1001360002028AEC5D046005E8590470030202803D
:1001460012024B580460F6EC4860F2EC7004FDFEB7
:10015600FF22C860DB2481C85009C398600250069C
:100166000202879850CAF582E9294B4A7005AB828C
:1001760002027675F0007C1A7880C3EF9BEE9AED4A
:1001860099400DC3EF9BFFEE9AFEED99FDE842F014
:10019600DC23ACF0D0E0FFD0E0FED0E0FDAB822067
:1001A600E7101BEB60BAEC2CFCEF33FFEE33FEEDF1
:1001B60033FD020262E803F830E705C0F075F0008F
:1001C600EF2FFFEE33FEED33FD40B830E7C280AAD5
:1001D60075F020800E75F010800575F0087D007EA4
:1001E600007F003392D530D50312046FEC334010F4
:1001F600EF33FFEE33FEED33FDEC33FCD5F0ED22AD
:0E020600E5F0247EA2D513CC92E7CDCEFF22E8
:10021400EDD2E7CD33EC3392D524814006E4FFFEE2
:10022400FDFC22FCE4CFCECDCC24E0501174FF8041
:10023400EDC3CC13CCCD13CDCE13CECF13CF0470DE
:07024400F030D5DE02046F6B
:10024B00E9D2E7C933E833F892D5EDD2E7CD33ECF9
:07025B0033FC5002B2D52272
:10026200EC30E7100FBF000C0EBE00080DBD0004FD
:100272000BEB6014A2D5EB13FCED92E7FD2274FFA9
:10028200FCFDFEFF22E480F8A2D574FF13FC7D8002
:03029200E480EF16
:101A1A00020A74E493A3F8E493A34003F68001F264
:101A2A0008DFF48029E493A3F85407240CC8C333CD
:101A3A00C4540F4420C8834004F456800146F6DF9C
:101A4A00E4800B0102040810204080901343E47ED6
:101A5A00019360BCA3FF543F30E509541FFEE49391
:101A6A00A360010ECF54C025E060A840B8E493A358
:101A7A00FAE493A3F8E493A3C8C582C8CAC583CA83
:101A8A00F0A3C8C582C8CAC583CADFE9DEE780BE3B
:01145E00008D
:10029500BB010689828A83E0225002E722BBFE0267
:0902A500E32289828A83E493229A
:1002AE00BB010CE58229F582E5833AF583E0225005
:1002BE0006E92582F8E622BBFE06E92582F8E2224F
:0D02CE00E58229F582E5833AF583E4932269
:1002DB00BB010689828A83F0225002F722BBFE0102
:0202EB00F322FC
:1002ED00F8BB010DE58229F582E5833AF583E8F047
:1002FD00225006E92582C8F622BBFE05E92582C8F3
:02030D00F222DA
:10030F00EF8DF0A4A8F0CF8CF0A428CE8DF0A42E02
:02031F00FE22BC
:10032100C5F0F8A3E028F0C5F0F8E5821582700267
:060331001583E038F02204
:0D033700EF2BFFEE3AFEED39FDEC38FC2215
:0E034400C3EF9BFFEE9AFEED99FDEC98FC22B4
:10035200E88FF0A4CC8BF0A42CFCE98EF0A42CFC4A
:100362008AF0EDA42CFCEA8EF0A4CDA8F08BF0A4C8
:100372002DCC3825F0FDE98FF0A42CCD35F0FCEB27
:100382008EF0A4FEA9F0EB8FF0A4CFC5F02ECD39EC
:0F039200FEE43CFCEAA42DCE35F0FDE43CFC2259
:1003A10075F008758200EF2FFFEE33FECD33CDCC13
:1003B10033CCC58233C5829BED9AEC99E582984096
:1003C1000CF582EE9BFEED9AFDEC99FC0FD5F0D673
:1003D100E4CEFBE4CDFAE4CCF9A88222B800C1B99D
:1003E1000059BA002DEC8BF084CFCECDFCE5F0CBDB
:1003F100F97818EF2FFFEE33FEED33FDEC33FCEB14
:1004010033FB10D703994004EB99FB0FD8E5E4F9CE
:10041100FA227818EF2FFFEE33FEED33FDEC33FCBB
:10042100C933C910D7059BE99A4007EC9BFCE99AAF
:10043100F90FD8E0E4C9FAE4CCFB2275F010EF2FF4
:10044100FFEE33FEED33FDCC33CCC833C810D707F4
:100451009BEC9AE899400AED9BFDEC9AFCE899F82F
:0E0461000FD5F0DAE4CDFBE4CCFAE4C8F922C2
:0E046F00C3E49FFFE49EFEE49DFDE49CFC229E
:10047D00EB9FF5F0EA9E42F0E99D42F0EC6480C8F6
:06048D0064809845F02296
:10049300EB9FF5F0EA9E42F0E99D42F0E89C45F0BF
:0104A3002236
:1004A400E8600FECC313FCED13FDEE13FEEF13FF36
:0304B400D8F1225A
:1004B700E8600FEFC333FFEE33FEED33FDEC33FCA3
:0304C700D8F12247
:0C04CA00E0FCA3E0FDA3E0FEA3E0FF22A5
:0C04D600E0F8A3E0F9A3E0FAA3E0FB22A9
:0C04E200ECF0A3EDF0A3EEF0A3EFF0228D
:1004EE00A8828583F0D083D08212050512050512ED
:1004FE000505120505E473E493A3C583C5F0C58312
:10050E00C8C582C8F0A3C583C5F0C583C8C582C857
:01051E0022BA
:0C051F00A42582F582E5F03583F58322E7
:10052B00FAE6FB0808E6F925F0F618E6CA3AF622D1
:10053B00D083D082F8E4937012740193700DA3A34F
:10054B0093F8740193F5828883E473740293686063
:06055B00EFA3A3A380DF63
:00000001FF
