:0300000002049D5A
:0C049D00787FE4F6D8FD7581450204E488
:060BD600044000000000D5
:100ACD008F828E83E4F543F542F541F540AF82AE5A
:100ADD0083E4FCFDAB43AA42A941A840C31205A380
:080AED00500543BD1080E62214
:10000300758E5190FE917401F0A37410F075BD5F6D
:0700130090FEA07420F02212
:100B3600E490FE80F0758901758DFA758BCB43A81C
:0E0B460008438840758CCB758AEB43881022DB
:100A3C0090FF10E054F04408F090FF02E054F044B2
:100A4C0002F0D28490FFA07420F0A37404F075CC53
:100A5C000675CEFF75CD98759E0275981043A8103B
:010A6C002267
:0B0CBD008F99E59830E1FB5398FD2271
:100A6D00120C96120003120B36120A3C75BBAA909B
:100A7D00FEA774FFF053BBF7D2AF7FC87E00120AFA
:100A8D00CD43BD107F027E00120ACD12002680F1EB
:03001B0002093C9B
:10093C00C0E0C0D075D000C004C005C006C007AF71
:10094C0043AE42AD41AC40EF2401F543E43EF542E9
:10095C00E43DF541E43CF540D007D006D005D00489
:05096C00D0D0D0E03204
:0300230002078C45
:10078C00C0E0C0F0C083C082C0D075D000C000C033
:0D079C0001C002C003C004C005C006C007B4
:0F07A900E59830E00AAF991206865398FED2AF5A
:1007B800D007D006D005D004D003D002D001D00095
:0B07C800D0D0D082D083D0F0D0E0323F
:100A9D00D310AF01C3C0D053BBF7C280E5BB20E379
:100AAD00F6D280C2AF75FDF075FC0F8EFA8FF97519
:100ABD00FDD275FC2D75FDE175FC1ED0D092AF22D7
:1009A600D310AF01C3C0D053BBF7C280E5BB20E371
:1009B600F6D280C2AF8FFB75FDF075FC0F8CFA8DF9
:1009C600F975FDB475FC4B75FDE175FC1ED0D09232
:0209D600AF224E
:040BDC0002440000CF
:1005B400EFC39430400CEFD39439500674D02FFF1E
:1005C4008022EFC39441400CEFD394465006EF24AD
:1005D400C9FF8010EFC39461400AEFD394665004BE
:1005E400EF24A9FFEF540FC454F0FFEDC39430403F
:1005F4000CEDD39439500674D02DFD801EEDC394B8
:10060400414008EDD394465002800CEDC394614000
:100614000AEDD394665004ED24A9FDED540F42076E
:0106240022B3
:060737008B1C8A1D891EC7
:10073D00E4F522F521F520F51FE94A4B7005FFFE82
:10074D00FDFC22E4F522F521F520F51FAB1C051E5D
:10075D00E51EAA1D7002051D14F91205296017E585
:10076D00222401F522E43521F521E43520F520E49C
:0E077D00351FF51F80D6AF22AE21AD20AC1F78
:01078B00224B
:06081A008B1A8A1B891CE9
:100820008B208A218922E94A4B7004FBFAF922E5E0
:100830001F151FAE1E7002151E4E6014AB20052240
:10084000E522AA217002052114F9ED12056F80DF5F
:06085000AB1AAA1BA91C53
:01085600227F
:060337008B238A248925B6
:10033D008B2B8A2C892D85262E85272F852830E914
:10034D004A4B6008E5284527452670077B007A0053
:10035D00790022D3852F83853082E52D9582E52C7A
:10036D0095834019E530252AF9E52F3529FA8A8339
:10037D008982D3E52D9582E52C95834038E4F531BE
:10038D00F532C3E532952AE53195295067AB2EAA92
:10039D002FA930853282853183120542AB2BAA2CD1
:1003AD00A92D8532828531831205810532E53270A2
:1003BD00D1053180CD852931852A32D3E53294009E
:1003CD00E5319400402EAB2EAA2FA930E53224FF43
:1003DD00FFE53134FFFE8F82F583120542AB2BAA68
:1003ED002CA92D8F828E83120581E532153270CBAB
:0A03FD00153180C7AB23AA24A925FF
:0104070022D2
:040971008D28AB071B
:10097500E4FCFFFEAD03120BC2AC067D04120BC2F4
:10098500AC06E4FD120BC2AC067D01120BC2AC062F
:10099500AD28120BC2AC06AD077F061206257F01F6
:0109A500222F
:080CC8008C288D29120529FF7B
:010CD0002201
:0E0C7A00900030EFF07D017C007F080206251F
:100C5800E4FDFCFFFE120BC2AC06AD077F030206E3
:010C68002566
:100C2200E4FDFCFFFE0D120BC2AC06AD077F030212
:020C3200062595
:100686008F33AC3EAD3FC3ED953DFFEC953CFEEFA1
:1006960064014E6044D3E53D953FE53C953E4013ED
:1006A600E53D9DFFE53C9CFEC3EF9421EE648094FE
:1006B600805026C3900021E53D9582E53C95834018
:1006C60006753C00753D00053DE53DAE3C700205F6
:0A06D6003C14F5828E83E533F02218
:0D0C9600753C00753D44753E00753F4422DD
:1009D800E53F653D7004E53E653C6025C390002118
:1009E800E53F9582E53E95834006753E00753F00DC
:1009F800053FE53FAC3E7002053E14F5828C83E06E
:010A0800FFEE
:010A090022CA
:100C3400E53F653D7004E53E653C60037F01227F2E
:020C440000228C
:10002600E4F508F509F50AF50BF50CF50DF50E7571
:100036000F09C3E5459421E54494005023120C347E
:10004600EF9400401B1209D80545E545AC44700203
:100056000544142400F58274003CF583EFF080D249
:10006600C3E5459409E544940050030201D4C3E571
:10007600459509FDE5449508FCC3ED9409EC94000B
:10008600500302017974002509F58274003508F5DC
:1000960083E06455600A0509E50970D2050880CE3B
:1000A60074012509F58274003508F583E064AA60B9
:1000B6000A0509E50970B7050880B374022509F534
:1000C6008274003508F583E0750C00F50D64024571
:1000D6000C60047402803C74062509F582740035B0
:1000E60008F583E0750B00F50A74072509F5827497
:1000F600003508F583E02409FFE433FEEF250BF510
:100106000BEE350AF50AD3E50B9421E50A94004077
:100116000974032509F509E48052C3ED950BEC95A6
:100126000A405074002509F974003508FA7B01E588
:100136000B24FFFDE50A34FFFC120A0AE509250B2C
:10014600FDE508350AFC74FF2DF58274FF3CF58346
:10015600E06F600974032509F509E4800FAF09AE65
:10016600081201D5E50B2509F509E50A3508F50854
:10017600020074C3E5459509F545E5449508F5443F
:10018600D3E5459400E54494004043E509450870ED
:100196001EE5459421E544940040140509E50970DF
:1001A600020508E5459509F545E5449508F54474C5
:1001B600002509F974003508752601F52789288573
:0E01C600442985452A7B017A0079001203370F
:0101D4002208
:080BE00006340104020496042E
:03001E00020CBD14
:0E0C8800E4FD7F01120971E4FD7F0202097193
:100BE900120CC8AD077F01120971BF01037F0122F1
:020BF9007F007B
:010BFB0022D7
:100BFC00120CC8AD077F02120971BF01037F0122DD
:020C0C007F0067
:010C0E0022C3
:1008D000120CC8EF14601514601714601914601B13
:1008E00014601D2405701C120CDC8017120C0F8084
:1008F00012120CDF800D120CE2800812002180031E
:050900001200227F013E
:0109050022CF
:0607D3008B228A23892419
:1007D900EF24FE6019246C602624957031AB22AA9F
:1007E90023A924AD26AC25120BE98F278020AB2243
:1007F900AA23A924AD26AC25120BFC8F27800FABA9
:1008090022AA23A924AD26AC251208D08F27AF2709
:0108190022BC
:030CD9007F032274
:020BAD008F1A9D
:100BAF00E4FCFFFE7D10120BC2AC06AD077F0212F4
:020BBF00062509
:010BC1002211
:01001A0022C3
:100B5400E4F51AF51B120906AD07AF1BAE1A120B0A
:0E0B6400C28E1A8F1BAD1BAC1A7F0B0206252A
:030CDC00020CA364
:100C0F007F807E2E120A9D7D807C2E7F011209A689
:030C1F00020CB014
:030CDF00020C22E2
:030CE200020C58A9
:0100210022BC
:0100220022BB
:0D0CA30075FDF075FC0F75FD8775FC78225E
:0D0CB00075FDF075FC0F75FD7875FC872251
:100AF5007B2270223A2200627474716263686C0012
:100B0500222C2276223A2200312E302E3000227DF0
:010B150000DF
:100B7200053BE53B7002053AD3E53B94F0E53A9438
:0E0B8200FF4006753A00753B01AE3AAF3B22CC
:100BC20074292FF974003EFA7B01ED12056F0FBFF5
:030BD20000010E11
:010BD50022FD
:060894007BFFAF1BAE1A52
:0A089A008E1C8F1D8B1E8A1F892003
:1008A40074292FF974003EFA7B01851E26851F27C3
:1008B40085202885212985222A120337E522251D32
:0B08C400F51DE521351CF51CFEAF1DE5
:0108CF002206
:100857008B2B8A2C892D8C2E8D2FE94A4B602DE509
:100867002F452E6027E52F152FAE2E7002152E4E21
:10087700601AAB2BAA2CA92D120529FF12001E7492
:0D08870001252DF52DE4352CF52C80D9220E
:0A0A0A008B2B8A2C892D8C2E8D2F4A
:100A1400E4FFFDFCC3ED952FEC952E501AAB2B058E
:100A24002DE52DAA2C7002052C14F91205292FFF8F
:070A34000DBD00010C80DD87
:010A3B002298
:060625008C298D2AAB07B1
:10062B00E4FF9000217455F0A374AAF0A37402F0B8
:10063B00120B72A3E4F0EFA3F0A3EBF0E529A3F008
:10064B00E52AA3F02409F52AE43529F5297B017A5B
:10065B00007921E52A24FFFDE52934FFFC120A0A63
:10066B007420252AF58274003529F583EFF07B0180
:0B067B007A007921AD2AAC2902085753
:10040800E4F51AF51B7BFF7A0A79F51207378E2176
:100418008F227A0A79F51208948E1A8F1B7BFF7A3D
:100428000A79FC1207378E218F227A0A79FC120882
:10043800948E1A8F1B7BFF7A0B79051207378E2152
:100448008F227BFF7A0B79051208968E1A8F1B7BF9
:10045800FF7A0B790D1207378E218F227BFF7A0BDB
:10046800790D1208968E1A8F1B7BFF7A0B7913125F
:1004780007378E218F227BFF7A0B79131208968E0D
:100488001A8F1B7D01120BC28E1A8F1BAD1BAC1A63
:050498007F01020625B2
:020B90008F21B3
:100B9200120CD9E4FEEEC39F500EEE25E02434F889
:0A0BA200E6652160030E80EDAF064A
:010BAC002226
:0606E0008B1A8A1B891C25
:1006E600120529F51D900001120542F51E90000223
:1006F600120542752000F51F9000031205422520C1
:10070600F520E4351FF51FAF1D120B90EF25E024F1
:1007160035F8E6651E60037F0022AB1AE51C24044B
:10072600F9E4351BFA851F25852026AF1D1207D350
:0107360022A0
:0401D5008E108F11E8
:1001D900E4F512F51374052511F58274003510F54F
:1001E90083E0FD74062511F58274003510F583E06E
:1001F900751300F51274072511F58274003510F591
:1002090083E02513F513E43512F51274032511F56E
:100219008274003510F583E07F00FE74042511F522
:100229008274003510F583E02FFFE43EFEED24DCF7
:1002390070030203211470030203212424B40B0068
:10024900400302031D90025C75F003A4C58325F0E9
:10025900C5837302027D0202830202990202AC0283
:10026900032102032102031D0203210203210203C8
:0A02790021020318120408020321F9
:1002830074082511F58274003510F583E0F519FF24
:03029300120BAD9E
:1002960002032174082511F58274003510F583E0F8
:1002A600FF12001A8075E4F517F518C3E5189513C3
:1002B600E51795125065E5112518FDE5103517FC73
:1002C600740A2DF58274003CF583E0751500F5146B
:1002D600740B2DF58274003CF583E02515F515E4C5
:1002E6003514F51474082511F974003510FA7B01DC
:1002F600E92518F9EA3517FA1206E08F16E51524EE
:1003060004FFE43514FEEF2518F518EE3517F5173A
:100316008099120B548004E4FEFF227B017A007957
:1003260000751E00751F21E4FD12081A7E007F016C
:0103360022A4
:100C6900E4FDFCFFFE120BC2AC06AD077F030206D2
:010C79002555
:100C4600E4FDFCFFFE0D120BC2AC06AD077F0302EE
:020C5600062571
:080CD100E4FDFC7F0202062590
:100906007BFF7A0A79F58B1C8A1D891EE4F51F1276
:100916000529FF120B20EFC4333354C0F51F900096
:1009260002120B16EFC454F0421F900004120B166D
:05093600EF421FAF1F9E
:01093B002299
:0A0B1600AB1CAA1DA91E120542FF28
:100B2000EFC394305008EF943940037FFF22EF75F4
:060B3000F03084AFF0225A
:1004A900020A6DE493A3F8E493A34003F68001F2F2
:1004B90008DFF48029E493A3F85407240CC8C33354
:1004C900C4540F4420C8834004F456800146F6DF23
:1004D900E4800B0102040810204080900BD6E47ED2
:1004E900019360BCA3FF543F30E509541FFEE49318
:1004F900A360010ECF54C025E060A840B8E493A3DF
:10050900FAE493A3F8E493A3C8C582C8CAC583CA09
:10051900F0A3C8C582C8CAC583CADFE9DEE780BEC1
:010BE800000C
:10052900BB010689828A83E0225002E722BBFE02D0
:09053900E32289828A83E4932203
:10054200BB010CE58229F582E5833AF583E022506E
:1005520006E92582F8E622BBFE06E92582F8E222B8
:0D056200E58229F582E5833AF583E49322D2
:10056F00BB010689828A83F0225002F722BBFE016B
:02057F00F32265
:10058100F8BB010DE58229F582E5833AF583E8F0B0
:10059100225006E92582C8F622BBFE05E92582C85C
:0205A100F22244
:1005A300EB9FF5F0EA9E42F0E99D42F0E89C45F0AE
:0105B3002225
:00000001FF
