:0300000002049D5A
:0C049D00787FE4F6D8FD7581450204E488
:060BFE00044000000000AD
:100AD8008F828E83E4F543F542F541F540AF82AE4F
:100AE80083E4FCFDAB43AA42A941A840C31205A375
:080AF800500543BD1080E62209
:10000300758E5190FE917401F0A37410F075BD5F6D
:0700130090FEA07420F02212
:100B4100E490FE80F0758901758DFA758BCB43A811
:0E0B510008438840758CCB758AEB43881022D0
:100A4D0090FF10E054F04408F090FF02E054F044A1
:100A5D0002F0D28490FFA07420F0A37404F075CC42
:100A6D000675CEFF75CD98759E0275981043A8102A
:010A7D002256
:0B0CDF008F99E59830E1FB5398FD224F
:1009B600120CD2120003120B41120A4D75BBAA90FB
:1009C600FEA774FFF053BBF7D2AF7FF47E01120A85
:1009D600D8120C4A43BD107F027E00120AD81200BC
:0309E6002680F177
:03001B0002094C8B
:10094C00C0E0C0D075D000C004C005C006C007AF61
:10095C0043AE42AD41AC40EF2401F543E43EF542D9
:10096C00E43DF541E43CF540D007D006D005D00479
:05097C00D0D0D0E032F4
:0300230002078C45
:10078C00C0E0C0F0C083C082C0D075D000C000C033
:0D079C0001C002C003C004C005C006C007B4
:0F07A900E59830E00AAF991206865398FED2AF5A
:1007B800D007D006D005D004D003D002D001D00095
:0B07C800D0D0D082D083D0F0D0E0323F
:100AAC00D310AF01C3C0D053BBF7E5BB20E3F8C2F2
:100ABC00AF75FDF075FC0F8EFA8FF975FDD275FCD4
:0C0ACC002D75FDE175FC1ED0D092AF220C
:100A7E00D310AF01C3C0D053BBF7E5BB20E3F8C220
:100A8E00AF8FFB75FDF075FC0F8CFA8DF975FDB40B
:0E0A9E0075FC4B75FDE175FC1ED0D092AF22A9
:040C040002440000A6
:1005B400EFC39430400CEFD39439500674D02FFF1E
:1005C4008022EFC39441400CEFD394465006EF24AD
:1005D400C9FF8010EFC39461400AEFD394665004BE
:1005E400EF24A9FFEF540FC454F0FFEDC39430403F
:1005F4000CEDD39439500674D02DFD801EEDC394B8
:10060400414008EDD394465002800CEDC394614000
:100614000AEDD394665004ED24A9FDED540F42076E
:0106240022B3
:060737008B1C8A1D891EC7
:10073D00E4F522F521F520F51FE94A4B7005FFFE82
:10074D00FDFC22E4F522F521F520F51FAB1C051E5D
:10075D00E51EAA1D7002051D14F91205296017E585
:10076D00222401F522E43521F521E43520F520E49C
:0E077D00351FF51F80D6AF22AE21AD20AC1F78
:01078B00224B
:060860008B1A8A1B891CA3
:100866008B208A218922E94A4B7004FBFAF922E59A
:100876001F151FAE1E7002151E4E6014AB200522FA
:10088600E522AA217002052114F9ED12056F80DF19
:06089600AB1AAA1BA91C0D
:01089C002239
:060337008B238A248925B6
:10033D008B2B8A2C892D85262E85272F852830E914
:10034D004A4B6008E5284527452670077B007A0053
:10035D00790022D3852F83853082E52D9582E52C7A
:10036D0095834019E530252AF9E52F3529FA8A8339
:10037D008982D3E52D9582E52C95834038E4F531BE
:10038D00F532C3E532952AE53195295067AB2EAA92
:10039D002FA930853282853183120542AB2BAA2CD1
:1003AD00A92D8532828531831205810532E53270A2
:1003BD00D1053180CD852931852A32D3E53294009E
:1003CD00E5319400402EAB2EAA2FA930E53224FF43
:1003DD00FFE53134FFFE8F82F583120542AB2BAA68
:1003ED002CA92D8F828E83120581E532153270CBAB
:0A03FD00153180C7AB23AA24A925FF
:0104070022D2
:040981008D29AB070A
:10098500E4FCFFFEAD03120BEAAC067D04120BEA94
:10099500AC06E4FD120BEAAC067D01120BEAAC06CF
:1009A500AD29120BEAAC06AD077F061206257F01BD
:0109B500221F
:080CEA008C298D2A120529FF57
:010CF20022DF
:0E0CC400900030EFF07D017C007F08020625D5
:100C8000E4FDFCFFFE120BEAAC06AD077F03020693
:010C9000253E
:100C4A00E4FDFCFFFE0D120BEAAC06AD077F0302C2
:020C5A0006256D
:100686008F33AC3EAD3FC3ED953DFFEC953CFEEFA1
:1006960064014E6044D3E53D953FE53C953E4013ED
:1006A600E53D9DFFE53C9CFEC3EF9421EE648094FE
:1006B600805026C3900021E53D9582E53C95834018
:1006C60006753C00753D00053DE53DAE3C700205F6
:0A06D6003C14F5828E83E533F02218
:0D0CD200753C00753D44753E00753F4422A1
:1009E900E53F653D7004E53E653C6025C390002107
:1009F900E53F9582E53E95834006753E00753F00CB
:100A0900053FE53FAC3E7002053E14F5828C83E05C
:010A1900FFDD
:010A1A0022B9
:100C5C00E53F653D7004E53E653C60037F01227F06
:020C6C00002264
:10002600E4F508F509F50AF50BF50CF50DF50E7571
:100036000F09C3E5459421E54494005023120C5C56
:10004600EF9400401B1209E90545E545AC447002F2
:100056000544142400F58274003CF583EFF080D249
:10006600C3E5459409E544940050030201D4C3E571
:10007600459509FDE5449508FCC3ED9409EC94000B
:10008600500302017974002509F58274003508F5DC
:1000960083E06455600A0509E50970D2050880CE3B
:1000A60074012509F58274003508F583E064AA60B9
:1000B6000A0509E50970B7050880B374022509F534
:1000C6008274003508F583E0750C00F50D64024571
:1000D6000C60047402803C74062509F582740035B0
:1000E60008F583E0750B00F50A74072509F5827497
:1000F600003508F583E02409FFE433FEEF250BF510
:100106000BEE350AF50AD3E50B9421E50A94004077
:100116000974032509F509E48052C3ED950BEC95A6
:100126000A405074002509F974003508FA7B01E588
:100136000B24FFFDE50A34FFFC120A1BE509250B1B
:10014600FDE508350AFC74FF2DF58274FF3CF58346
:10015600E06F600974032509F509E4800FAF09AE65
:10016600081201D5E50B2509F509E50A3508F50854
:10017600020074C3E5459509F545E5449508F5443F
:10018600D3E5459400E54494004043E509450870ED
:100196001EE5459421E544940040140509E50970DF
:1001A600020508E5459509F545E5449508F54474C5
:1001B600002509F974003508752601F52789288573
:0E01C600442985452A7B017A0079001203370F
:0101D4002208
:080C0800063401040204960405
:03001E00020CDFF2
:100BD500E4FD7F01120981E4FD7F021209817D0692
:050BE5007F960209816A
:100C1100120CEAAD077F01120981BF01037F012296
:020C21007F0052
:010C230022AE
:100C2400120CEAAD077F02120981BF01037F012282
:020C34007F003F
:010C3600229B
:10081A00120CEA8F28E52814601514601714601961
:10082A0014601B14601D2405701C120CFE80171224
:10083A000C378012120D01800D120D04800812006F
:10084A00218003120022AD287F96120981BF01037D
:05085A007F01227F0078
:01085F002276
:0607D3008B228A23892419
:1007D900EF24FE6019246C602624957031AB22AA9F
:1007E90023A924AD26AC25120C118F278020AB221A
:1007F900AA23A924AD26AC25120C248F27800FAB80
:1008090022AA23A924AD26AC2512081A8F27AF27BF
:0108190022BC
:030CFB007F032252
:020B9B008F1AAF
:100B9D00E4FCFFFE7D10120BEAAC06AD077F0212DE
:0A0BAD000625E51A147003120BD59B
:010BB700221B
:01001A0022C3
:100B5F00E4F51AF51B120916AD07AF1BAE1A120BEF
:0E0B6F00EA8E1A8F1BAD1BAC1A7F0B020625F7
:030CFE00020C9154
:100C37007F807E2E120AAC7D807C2E7F01120A7E79
:030C4700020CA2FA
:030D0100020C4A97
:030D0400020C805E
:0100210022BC
:0100220022BB
:100C9100C2AF75FDF075FC0F75FD8775FC78D2AF9D
:010CA1002230
:100CA200C2AF75FDF075FC0F75FD7875FC87D2AF8C
:010CB200221F
:100B00007B2270223A2200627474716263686C0006
:100B1000222C2276223A2200312E302E3000227DE5
:010B200000D4
:100B7D00053BE53B7002053AD3E53B94F0E53A942D
:0E0B8D00FF4006753A00753B01AE3AAF3B22C1
:100BEA0074292FF974003EFA7B01ED12056F0FBFCD
:030BFA0000010EE9
:010BFD0022D5
:0608DA007BFFAF1BAE1A0C
:0A08E0008E1C8F1D8B1E8A1F8920BD
:1008EA0074292FF974003EFA7B01851E26851F277D
:1008FA0085202885212985222A120337E522251DEC
:0B090A00F51DE521351CF51CFEAF1D9E
:0109150022BF
:10089D008B2C8A2D892E8C2F8D30E94A4B602DE5BE
:1008AD0030452F6027E5301530AE2F7002152F4ED5
:1008BD00601AAB2CAA2DA92E120529FF12001E7449
:0D08CD0001252EF52EE4352DF52D80D922C4
:0A0A1B008B2C8A2D892E8C2F8D3034
:100A2500E4FFFDFCC3ED9530EC952F501AAB2C057A
:100A35002EE52EAA2D7002052D14F91205292FFF7A
:070A45000DBD00010C80DD76
:010A4C002287
:060625008C2A8D2BAB07AF
:10062B00E4FF9000217455F0A374AAF0A37402F0B8
:10063B00120B7DA3E4F0EFA3F0A3EBF0E52AA3F0FC
:10064B00E52BA3F02409F52BE4352AF52A7B017A57
:10065B00007921E52B24FFFDE52A34FFFC120A1B50
:10066B007420252BF5827400352AF583EFF07B017E
:0B067B007A007921AD2BAC2A02089D0B
:10040800E4F51AF51B7BFF7A0B79001207378E216A
:100418008F227A0B79001208DA8E1A8F1B7BFF7AEB
:100428000B79071207378E218F227A0B790712086A
:10043800DA8E1A8F1B7BFF7A0B79101207378E2101
:100448008F227BFF7A0B79101208DC8E1A8F1B7BA8
:10045800FF7A0B79181207378E218F227BFF7A0BD0
:1004680079181208DC8E1A8F1B7BFF7A0B791E1203
:1004780007378E218F227BFF7A0B791E1208DC8EBC
:100488001A8F1B7D01120BEA8E1A8F1BAD1BAC1A3B
:050498007F01020625B2
:020BB8008F218B
:100BBA00120CFBE4FEEEC39F500EEE25E02434F83F
:0A0BCA00E6652160030E80EDAF0622
:010BD40022FE
:0606E0008B1A8A1B891C25
:1006E600120529F51D900001120542F51E90000223
:1006F600120542752000F51F9000031205422520C1
:10070600F520E4351FF51FAF1D120BB8EF25E024C9
:1007160035F8E6651E60037F0022AB1AE51C24044B
:10072600F9E4351BFA851F25852026AF1D1207D350
:0107360022A0
:0401D5008E108F11E8
:1001D900E4F512F51374052511F58274003510F54F
:1001E90083E0FD74062511F58274003510F583E06E
:1001F900751300F51274072511F58274003510F591
:1002090083E02513F513E43512F51274032511F56E
:100219008274003510F583E07F00FE74042511F522
:100229008274003510F583E02FFFE43EFEED24DCF7
:1002390070030203211470030203212424B40B0068
:10024900400302031D90025C75F003A4C58325F0E9
:10025900C5837302027D0202830202990202AC0283
:10026900032102032102031D0203210203210203C8
:0A02790021020318120408020321F9
:1002830074082511F58274003510F583E0F519FF24
:03029300120B9BB0
:1002960002032174082511F58274003510F583E0F8
:1002A600FF12001A8075E4F517F518C3E5189513C3
:1002B600E51795125065E5112518FDE5103517FC73
:1002C600740A2DF58274003CF583E0751500F5146B
:1002D600740B2DF58274003CF583E02515F515E4C5
:1002E6003514F51474082511F974003510FA7B01DC
:1002F600E92518F9EA3517FA1206E08F16E51524EE
:1003060004FFE43514FEEF2518F518EE3517F5173A
:100316008099120B5F8004E4FEFF227B017A00794C
:1003260000751E00751F21E4FD1208607E007F0126
:0103360022A4
:100CB300E4FDFCFFFE120BEAAC06AD077F03020660
:010CC300250B
:100C6E00E4FDFCFFFE0D120BEAAC06AD077F03029E
:020C7E00062549
:080CF300E4FDFC7F020206256E
:100916007BFF7A0B79008B1C8A1D891EE4F51F125A
:100926000529FF120B2BEFC4333354C0F51F90007B
:1009360002120B21EFC454F0421F900004120B2147
:05094600EF421FAF1F8E
:01094B002289
:0A0B2100AB1CAA1DA91E120542FF1D
:100B2B00EFC394305008EF943940037FFF22EF75E9
:060B3B00F03084AFF0224F
:1004A9000209B6E493A3F8E493A34003F68001F2AA
:1004B90008DFF48029E493A3F85407240CC8C33354
:1004C900C4540F4420C8834004F456800146F6DF23
:1004D900E4800B0102040810204080900BFEE47EAA
:1004E900019360BCA3FF543F30E509541FFEE49318
:1004F900A360010ECF54C025E060A840B8E493A3DF
:10050900FAE493A3F8E493A3C8C582C8CAC583CA09
:10051900F0A3C8C582C8CAC583CADFE9DEE780BEC1
:010C100000E3
:10052900BB010689828A83E0225002E722BBFE02D0
:09053900E32289828A83E4932203
:10054200BB010CE58229F582E5833AF583E022506E
:1005520006E92582F8E622BBFE06E92582F8E222B8
:0D056200E58229F582E5833AF583E49322D2
:10056F00BB010689828A83F0225002F722BBFE016B
:02057F00F32265
:10058100F8BB010DE58229F582E5833AF583E8F0B0
:10059100225006E92582C8F622BBFE05E92582C85C
:0205A100F22244
:1005A300EB9FF5F0EA9E42F0E99D42F0E89C45F0AE
:0105B3002225
:00000001FF
