:030000000206B83D
:0C06B800787FE4F6D8FD7581630206FF30
:100CE500044B000000000447000000000450000011
:050CF5000000014F00AA
:100CBD008F828E83E4F54EF54DF54CF54BAF82AE3C
:100CCD0083E4FCFDAB4EAA4DA94CA84BC312056F96
:080CDD00500543BD1080E62222
:10000300758E5190FE917401F0A37410F075BD5F6D
:0700130090FEA07420F02212
:100D6E00E490FE80F0758901758DFA758BCB43A8E2
:0E0D7E0008438840758CCB758AEB43881022A1
:100C320090FF10E054F04408F090FF02E054F044BA
:100C420002F0D28490FFA07420F0A37404F075CC5B
:100C52000675CEFF75CD98759E0275981043A81043
:010C6200226F
:0B0EA8008F99E59830E1FB5398FD2284
:10082E00120E9B120003120D6E120C3275BBAA90A3
:10083E00FEA774FFF053BBF7D2AF7FF47E01120C0C
:10084E00BD120E3343BD107F027E00120CBD12008E
:10085E0026E54F60EFE4F54FE5532401F553E435FB
:10086E0052F552E43551F551E43550F55085531F8C
:0F087E0085521E85511DF51C7F9712074480C5BA
:03001B00020628B2
:10062800C0E0C0F0C083C082C0D075D000C000C098
:1006380001C002C003C004C005C006C007AF4EAE6B
:100648004DAD4CAC4BEF2401F54EE43EF54DE43D89
:10065800F54CE43CF54BE47FE87E03FDFCAB4AAA8D
:1006680049A948A847D312056F4011754A00754932
:1006780000754800754700754F018019AF4AAE49AB
:10068800AD48AC47EF2401F54AE43EF549E43DF5B1
:1006980048E43CF547D007D006D005D004D003D0B5
:1006A80002D001D000D0D0D082D083D0F0D0E032B8
:030023000209ECE3
:1009EC00C0E0C0F0C083C082C0D075D000C000C0D1
:0D09FC0001C002C003C004C005C006C00752
:0F0A0900E59830E00AAF9912088D5398FED2AFEE
:100A1800D007D006D005D004D003D002D001D00032
:0B0A2800D0D0D082D083D0F0D0E032DC
:100C9100D310AF01C3C0D053BBF7E5BB20E3F8C20B
:100CA100AF75FDF075FC0F8EFA8FF975FDD275FCED
:0C0CB1002D75FDE175FC1ED0D092AF2225
:100C6300D310AF01C3C0D053BBF7E5BB20E3F8C239
:100C7300AF8FFB75FDF075FC0F8CFA8DF975FDB424
:0E0C830075FC4B75FDE175FC1ED0D092AF22C2
:040CFA000262000092
:060997008B1C8A1D891E65
:10099D00E4F522F521F520F51FE94A4B7005FFFE20
:1009AD00FDFC22E4F522F521F520F51FAB1C051EFB
:1009BD00E51EAA1D7002051D14F91204F56017E558
:1009CD00222401F522E43521F521E43520F520E43A
:0E09DD00351FF51F80D6AF22AE21AD20AC1F16
:0109EB0022E9
:060A79008B1A8A1B891C88
:100A7F008B208A218922E94A4B7004FBFAF922E57F
:100A8F001F151FAE1E7002151E4E6014AB200522DF
:100A9F00E522AA217002052114F9ED12053B80DF32
:060AAF00AB1AAA1BA91CF2
:010AB500221E
:060424008B368A3789388F
:10042A008B3E8A3F8940853941853A42853B43E97B
:10043A004A4B6008E53B453A453970077B007A002C
:10044A00790022D3854283854382E5409582E53F40
:10045A0095834019E543253DF9E542353CFA8A83FF
:10046A008982D3E5409582E53F95834038E4F54497
:10047A00F545C3E545953DE544953C5067AB41AA32
:10048A0042A94385458285448312050EAB3EAA3FA5
:10049A00A94085458285448312054D0545E5457089
:1004AA00D1054480CD853C44853D45D3E54594003E
:1004BA00E5449400402EAB41AA42A943E54524FFF6
:1004CA00FFE54434FFFE8F82F58312050EAB3EAA88
:1004DA003FA9408F828E8312054DE545154570CBA5
:0A04EA00154480C7AB36AA37A938C5
:0104F40022E5
:040B65008D29AB0724
:100B6900E4FCFFFEAD03120E1FAC067D04120E1F3E
:100B7900AC06E4FD120E1FAC067D01120E1FAC0679
:100B8900AD29120E1FAC06AD077F061207CD7F01F6
:010B99002239
:02033700AB0712
:10033900900000AF82AE83AD03120E1F8E838F82B1
:100349007D05120E1F8E838F82E4FD120E1F8E8390
:100359008F8274FFFFE51EFEE51DFDE51CFCE47BB5
:10036900FFFAF9F8C312056F7012AF82AE837D01EF
:10037900120E1F8E838F82AD1F02041174FFFFFEC0
:10038900E51DFDE51CFCE47BFF7AFFF9F8C31205C6
:100399006FAF82AE8370047D02803E7D04120E1F12
:1003A9008E838F82C006C007AF1FAE1EAD1DAC1C69
:1003B9007818120580AD07D007D006120E1F8E835C
:1003C9008F82C006C007AF1FAE1EAD1DAC1C7810D2
:1003D900120580AD07D007D006120E1F8E838F82BB
:1003E900C006C007AF1FAE1EAD1DAC1C78081205B4
:1003F90080AD07D007D006120E1F8E838F82C007EB
:10040900E51FFFE4AD07D007120E1F8E838F82AD63
:0A04190082AC837F061207CD7F013D
:0104230022B6
:080A33008F298B2A8A2B892CE4
:100A3B00E4FCFFFEAD29120E1FAC067D03120E1F48
:100A4B00AC06E52DFD120E1FAC06AD2E120E1FAC23
:100A5B0006AD07AB2AAA2BA92C852D34852E351272
:0D0A6B000AF9AC06AD077F061207CD7F012A
:010A7800225B
:02074400AB0701
:10074600E4FCFFFEAD03120E1FAC067D02120E1F67
:10075600AC06E4FD120E1FAC067D04120E1FC00689
:10076600C007AF1FAE1EAD1DAC1C7818120580ADBC
:1007760007D007D006120E1FC006C007AF1FAE1E59
:10078600AD1DAC1C7810120580AD07D007D006123F
:100796000E1FC006C007AF1FAE1EAD1DAC1C7808ED
:1007A600120580AD07D007D006120E1FAC06C00793
:1007B600E51FFFE4AD07D007120E1FAC06AD077F9D
:0607C600061207CD7F01C1
:0107CC00220A
:080EBD008C298D2A1204F5FFB7
:010EC500220A
:100E5700E4FDFCFFFE120E1FAC06AD077F03020781
:010E6700CDBD
:100E3300E4FDFCFFFE0D120E1FAC06AD077F03029F
:020E430007CDD9
:10088D008F46AC60AD61C3ED955FFFEC955EFEEFFD
:10089D0064014E6044D3E55F9561E55E956040135C
:1008AD00E55F9DFFE55E9CFEC3EF9421EE648094B1
:1008BD00805026C3900021E55F9582E55E958340CB
:1008CD0006755E00755F00055FE55FAE5E70020543
:0A08DD005E14F5828E83E546F022DA
:0D0E9B00755E00755F44756000756144224E
:100BCE00E561655F7004E560655E6025C390002198
:100BDE00E5619582E560958340067560007561005C
:100BEE000561E561AC607002056014F5828C83E0EE
:010BFE00FFF7
:010BFF0022D3
:100E4500E561655F7004E560655E60037F01227F93
:020E5500002279
:10002600E4F508F509F50AF50BF50CF50DF50E7571
:100036000F09C3E5639421E56294005023120E452F
:10004600EF9400401B120BCE0563E563AC627002B1
:100056000562142400F58274003CF583EFF080D22B
:10006600C3E5639409E562940050030201D4C3E535
:10007600639509FDE5629508FCC3ED9409EC9400CF
:10008600500302017974002509F58274003508F5DC
:1000960083E06455600A0509E50970D2050880CE3B
:1000A60074012509F58274003508F583E064AA60B9
:1000B6000A0509E50970B7050880B374022509F534
:1000C6008274003508F583E0750C00F50D64024571
:1000D6000C60047402803C74062509F582740035B0
:1000E60008F583E0750B00F50A74072509F5827497
:1000F600003508F583E02409FFE433FEEF250BF510
:100106000BEE350AF50AD3E50B9421E50A94004077
:100116000974032509F509E48052C3ED950BEC95A6
:100126000A405074002509F974003508FA7B01E588
:100136000B24FFFDE50A34FFFC120C00E509250B34
:10014600FDE508350AFC74FF2DF58274FF3CF58346
:10015600E06F600974032509F509E4800FAF09AE65
:10016600081201D5E50B2509F509E50A3508F50854
:10017600020074C3E5639509F563E5629508F562C7
:10018600D3E5639400E56294004043E509450870B1
:100196001EE5639421E562940040140509E50970A3
:1001A600020508E5639509F563E5629508F562744D
:1001B600002509F974003508753901F53A893B853A
:0E01C600623C85633D7B017A007900120424BF
:0101D4002208
:100DE50068656C6C6F2100616C726561647920695E
:0D0DF5006E20626F6F746C6F616465720038
:0A0CFE000854960497029805990324
:03001E00020EA827
:100B9A007D067F96120B65E4F51FF51EF51DF51C03
:100BAA007F97120744E4F51FF51EF51DF51C7F9883
:100BBA001203377BFF7A0D79E5752D00752E077FB5
:040BCA0099020A334F
:1008E700120EBD8F28E528B40700503D9008FAF88E
:1008F70028287302090F02091402091902091E02A6
:10090700092302092802092D120EC9801C120D099C
:100917008017120ECC8012120ECF800D120021808C
:10092700081200228003120EB3AD287F96120B65C2
:08093700BF01037F01227F00D4
:01093F002295
:100E6800EF246A7009AD26AC251208E78F27AF2753
:010E78002257
:030EC6007F042284
:020DC8008F1A80
:100DCA00E4FCFFFE7D10120E1FAC06AD077F021277
:0A0DDA0007CDE51A147003120B9AFE
:010DE40022EC
:01001A0022C3
:100D8C00E4F51AF51B120B2FAD07AF1BAE1A120EA2
:0E0D9C001F8E1A8F1BAD1BAC1A7F0B0207CDEA
:030EC900020E799D
:100D09007F807E2E120C917D807C2E7F01120C63D8
:100D19007BFF7A0D79EC752D00752E167F99120AD5
:040D290033020E8AF9
:030ECC00020E33E0
:030ECF00020E57B9
:0100210022BC
:0100220022BB
:100E7900C2AF75FDF075FC0F75FD8775FC78D2AFB3
:010E89002246
:100E8A00C2AF75FDF075FC0F75FD7875FC87D2AFA2
:010E9A002235
:0A0EB300E4F553F552F551F5502215
:100D2D007B2270223A2200627474716263686C00D7
:100D3D00222C2276223A2200312E302E3000227DB6
:010D4D0000A5
:100DAA00055DE55D7002055CD3E55D94F0E55C9454
:0E0DBA00FF4006755C00755D01AE5CAF5D220A
:100E1F0074292FF974003EFA7B01ED12053B0FBFC9
:030E2F0000010EB1
:010E3200229D
:060AF3007BFFAF1BAE1AF1
:0A0AF9008E2F8F308B318A32893343
:100B030074292FF974003EFA7B0185313985323A15
:100B130085333B85343C85353D120424E53525304A
:0B0B2300F530E534352FF52FFEAF3024
:010B2E0022A4
:100AB6008B318A3289338C348D35E94A4B602DE58A
:100AC6003545346027E5351535AE34700215344E9C
:100AD600601AAB31AA32A9331204F5FF12001E7454
:0D0AE600012533F533E43532F53280D92295
:0A0C00008B318A3289338C348D3534
:100C0A00E4FFFDFCC3ED9535EC9534501AAB310584
:100C1A0033E533AA327002053214F91204F52FFFB4
:070C2A000DBD00010C80DD8F
:010C310022A0
:0607CD008C2F8D30AB07FC
:1007D300E4FF9000217455F0A374AAF0A37402F00F
:1007E300120DAAA3E4F0EFA3F0A3EBF0E52FA3F01F
:1007F300E530A3F02409F530E4352FF52F7B017A9A
:10080300007921E53024FFFDE52F34FFFC120C00B5
:1008130074202530F5827400352FF583EFF07B01CA
:0B0823007A007921AD30AC2F020AB63C
:10059300E4F51AF51B7BFF7A0D792D1209978E343A
:1005A3008F357A0D792D120AF38E1A8F1B7BFF7A02
:1005B3000D79341209978E348F357A0D7934120AF6
:1005C300F38E1A8F1B7BFF7A0D793D1209978E34B8
:1005D3008F357BFF7A0D793D120AF58E1A8F1B7BBF
:1005E300FF7A0D79451209978E348F357BFF7A0D8B
:1005F3007945120AF58E1A8F1B7BFF7A0D794B1200
:1006030009978E348F357BFF7A0D794B120AF58E5D
:100613001A8F1B7D01120E1F8E1A8F1BAD1BAC1A76
:050623007F010207CD7C
:020E02008F213E
:100E0400120EC6E4FEEEC39F500EEE25E02454F805
:0A0E1400E6652160030E80EDAF06D5
:010E1E0022B1
:060940008B1A8A1B891CC2
:100946001204F5F51D90000112050EF51E90000229
:1009560012050E752000F51F90000312050E2520C6
:10096600F520E4351FF51FAF1D120E02EF25E0241A
:1009760055F8E6651E60037F0022AB1AE51C2404C9
:10098600F9E4351BFA851F25852026AF1D120E6852
:01099600223E
:0401D5008E108F11E8
:1001D900E4F512F51374052511F58274003510F54F
:1001E90083E0FD74062511F58274003510F583E06E
:1001F900751300F51274072511F58274003510F591
:1002090083E02513F513E43512F51274032511F56E
:100219008274003510F583E07F00FE74042511F522
:100229008274003510F583E02FFFE43EFEED24DCF7
:1002390070030203211470030203212424B40B0068
:10024900400302031D90025C75F003A4C58325F0E9
:10025900C5837302027D0202830202990202AC0283
:10026900032102032102031D0203210203210203C8
:0A027900210203181205930203216D
:1002830074082511F58274003510F583E0F519FF24
:03029300120DC881
:1002960002032174082511F58274003510F583E0F8
:1002A600FF12001A8075E4F517F518C3E5189513C3
:1002B600E51795125065E5112518FDE5103517FC73
:1002C600740A2DF58274003CF583E0751500F5146B
:1002D600740B2DF58274003CF583E02515F515E4C5
:1002E6003514F51474082511F974003510FA7B01DC
:1002F600E92518F9EA3517FA1209408F16E515248B
:1003060004FFE43514FEEF2518F518EE3517F5173A
:100316008099120D8C8004E4FEFF227B017A00791D
:1003260000751E00751F21E4FD120A797E007F010B
:0103360022A4
:100B2F007BFF7A0D792D8B1C8A1D891EE4F51F1210
:100B3F0004F5FF120D58EFC4333354C0F51F900066
:100B4F0002120D4EEFC454F0421F900004120D4ECE
:050B5F00EF421FAF1F73
:010B6400226E
:0A0D4E00AB1CAA1DA91E12050EFF22
:100D5800EFC394305008EF943940037FFF22EF75BA
:060D6800F03084AFF02220
:1006C40002082EE493A3F8E493A34003F68001F216
:1006D40008DFF48029E493A3F85407240CC8C33337
:1006E400C4540F4420C8834004F456800146F6DF06
:1006F400E4800B0102040810204080900CE5E47EA5
:10070400019360BCA3FF543F30E509541FFEE493FA
:10071400A360010ECF54C025E060A840B8E493A3C1
:10072400FAE493A3F8E493A3C8C582C8CAC583CAEC
:10073400F0A3C8C582C8CAC583CADFE9DEE780BEA4
:010D080000EA
:1004F500BB010689828A83E0225002E722BBFE0205
:09050500E32289828A83E4932237
:10050E00BB010CE58229F582E5833AF583E02250A2
:10051E0006E92582F8E622BBFE06E92582F8E222EC
:0D052E00E58229F582E5833AF583E4932206
:10053B00BB010689828A83F0225002F722BBFE019F
:02054B00F32299
:10054D00F8BB010DE58229F582E5833AF583E8F0E4
:10055D00225006E92582C8F622BBFE05E92582C890
:02056D00F22278
:10056F00EB9FF5F0EA9E42F0E99D42F0E89C45F0E2
:01057F002259
:10058000E8600FECC313FCED13FDEE13FEEF13FF59
:03059000D8F1227D
:00000001FF
