:0E035900758901758CF9758AFED2AFD2A92282
:10031900E4F56B120359D2807FE87E03120245C2CD
:0A032900807FE87E0312024580EC9D
:10033300D2817F907E01120245D2817F907E01128D
:04034300024580EC03
:1002990090FEA0E4F0758E5190FE9104F090FF005D
:1002A9007488F0D280C281120373756E00756F0075
:1002B900757008E4F5717BFF7A0379191202F3125C
:0402C900000380FEB0
:10000E008B728A738974AF01EFAB75AA76A97712DA
:10001E000347E573FFAB750577E57770020576F953
:10002E00AA76EF120347AB750577E5777002057672
:10003E00F9AA76E4120347AB750577E577700205EA
:10004E0076F9AA76E4120347AB750577E577700269
:10005E000576F9AA76E4120347AB750577E5777056
:10006E00020576F9AA76E4120347AB750577E577B4
:10007E0070020576F9AA76E4120347AB750577E5AB
:10008E007770020576F9AA76E4120347AB75057709
:10009E00E57770020576F9AA767401120347AB75FF
:1000AE000577E57770020576F9AA76740212034792
:1000BE00AB750577E57770020576F9AA76740312AB
:1000CE000347AB750577E57770020576F9AA767466
:1000DE0004120347AB750577E57770020576F9AA2A
:1000EE00767405120347AB750577E57770020576D2
:1000FE00F9AA767406120347AB750577E577700299
:10010E000576F9AA767407120347E57875F003A40D
:10011E002445F8A677E57875F003A42446F8E4F6AE
:03012E0008F622AE
:1002CD007575007576007577577578047BFF7A0321
:1002DD00797D12000EE55575F003A42445F8E6244A
:0602ED00F3F581D28C2222
:10019400C2AFE5556554604EC0E0C0F0C083C08274
:1001A400C0D0C000C001C002C003C004C005C00666
:1001B400C007E55475F003A42445F8A68185555479
:1001C400E55475F003A42445F8E6F581D007D0067C
:1001D400D005D004D003D002D001D000D0D0D0823A
:0901E400D083D0F0D0E0D2AF22AC
:03000B00020131BE
:10013100C0E0C0F0C083C082C0D075D000C2AF752E
:100141008CFE758A00C28CC000C001C002C003C011
:1001510004C005C006C0071201EDE55475F003A403
:100161002445F8A681855554E55475F003A424452A
:10017100F8E6F581D007D006D005D004D003D0022F
:10018100D001D000D28CD2AFD0D0D082D083D0F0E9
:03019100D0E03289
:1002F300E571D39404501E856E75856F768570778E
:1003030085717812000EAF717401A807088002C3CB
:0603130033D8FC42562223
:08000300E4F555F5540202CDAD
:10024500E4FCEF4E604DC2AFAD547401A8050880C3
:1002550002C333D8FCF45256E55475F003A4244682
:10026500F8A60608A607D2AFE4FCFDAF0574017E2B
:1002750000A807088005C333CE33CED8F9FFEF5564
:1002850056700B0DBD00010CED64044C70DD8D55F1
:03029500120194BF
:010298002243
:1001ED00E4FDED75F003A42446F8E6FE08E64E6046
:1001FD0022ED75F003A42446F808E61618700116D2
:10020D00E6FE08E64E700C04A805088002C333D83C
:10021D00FC42560DBD04CBE4FD74017E00A805081B
:10022D008005C333CE33CED8F9FFE556FBEF5B70B7
:07023D00040DBD04E48D5522
:010244002297
:07037D00E4F544054480FC97
:0A037300E4F5567555047554042294
:0300000002036791
:0C036700787FE4F6D8FD758178020299D9
:10034700BB010689828A83F0225002F722BBFE0195
:02035700F3228F
:00000001FF
