:033000000237DCB8
:1037DC00787FE4F6D8FD9000007FFF7E01E4F0A333
:0A37EC00DFFCDEFA7581740238314B
:103C4800410000004200E800001454000000000099
:0F3C58000000000000000000000000000000005D
:103A4700123C86123F3D123EDC900000EFF0756A93
:103A570000756B64700512387680437F01123F5CF6
:103A67007D307FFF123E5BE4F56CF56D74FFF573F7
:103A7700F574123CC343BD107B017A007901123201
:103A87003EEF24FE600280EDD3E56D9574E5736427
:103A970080F8E56C64809850DC12369580D7E4FE98
:023AA700FF22FC
:103C8600758E5090FE917402F0A37410F075BD5FAE
:103C960090FEA074FFF090FF02E054F04402F09012
:103CA600FE80E4F0F589758DF5758B96D2ABC28EE4
:0D3CB60075BBAA90FEA774FFF053BBF72268
:0C3F3D0090FF08E04488F0D290D291225E
:103F1B005398EF8F99E59830E1FB5398FD43981038
:013F2B002273
:063E16008B4B8A4C894D24
:103E1C00E4FEEEC39D5015AB4BAA4CA94D8E82759A
:0C3E2C00830012312DFF123F1B0E80E6B8
:013E38002267
:103F2C00E59830E00A5398FEE59912315AD322C332
:013F3C002262
:103D30008B108A1189128F168E158D148C1378139F
:103D400074FF1231EAE4FBFAF9F8C31231D7500FCD
:103D500043BD10AB10AA11A912123F2C50E022C390
:013D60002240
:1038EF00627474716263686C00726C3766777133DF
:1038FF00320030626E6635716F7400777371776A5C
:10390F007574680007040100021321910604010277
:10391F001321910A4843383953303033463400006D
:10392F000000000000000000000000000000000088
:10393F000000000000000000000000000000000078
:10394F000000000000000000000000000000000068
:09395F000000000000000000005F
:103C6700046F000000000268000002730000026C8D
:093C77000000016E00026A000069
:10373D00AB08AA09A90A02312D74172542F582E4B6
:10374D003400F583E0FF74102542F8A607741025A8
:10375D0042F8E62569F569E43568F568054222AB5E
:10376D0008AA09A90A02312DFFEE4CFCEF4DFDE030
:10377D004CFEEDFFA3E0FDEF4DFF22AB08AA09A91A
:10378D000A22F582E43400F58322C3E56D9574E5D4
:10379D00736480F8E56C6480982274092FF582E4D7
:1037AD003400F58322AC06AD07E4F54AFB22AB727B
:1037BD00AA71A970A86FC30231D79000E7E0FB9002
:0F37CD0000EAE0F54A227C007D32AE0202316C48
:103876007F01123F5CE47F1EFEFDFC1237BB400356
:10388600123F492084EF7DF87FFF123E5B7F79125D
:103896003F1B7B007D007C001238E34003123F494A
:1038A600E508647F6003123F497F1F123F1BE4F562
:1038B60008FBFDFC1238E34003123F49E508647F2C
:1038C6006003123F4990FEA474C1F0A37414F0750E
:0D38D600BBA290FEA774FFF07F1F023F1BF6
:0C38E3007A0079087FA07E0F123D302291
:03301B000239D99E
:1039D900C0E0C0F0C083C082C0D075D000C000C0B4
:1039E90001C002C003C004C005C006C007AF72AE63
:1039F90071AD70AC6FEF2401FFE43EFEE43DFDE4E0
:103A09003C8F728E718D70F56FAE6AAF6BE4FCFD01
:103A19001237BB400E757200757100757000756FB5
:103A290000B290D007D006D005D004D003D002D080
:0E3A390001D000D0D0D082D083D0F0D0E032C7
:103BB100E4FF123578EF1232183BF9013BD3043B95
:103BC100D7053BDB063BDF073BE8083BEF0900007D
:103BD1003BFC7F02800A7F03800F7F04800B7F05FF
:103BE100123D927F01800E7F06123D92800AE4FF12
:0B3BF100123D92E4FF02396812369585
:013BFC0022A6
:06323E008B088A09890AD1
:10324400E4F50FFC1233E140037F022212378812A7
:1032540031146455600302339EE924011233A14002
:10326400037F022290000112373D64AA60030233F7
:103274009BE924021233A140037F02229000021230
:10328400373D64026003023398E924031233B140EA
:10329400037F022290000312376C9000E7F0E924C8
:1032A400041233B140037F022290000412376C9061
:1032B40000EAF0E924051233C140037F02221237E9
:1032C4008890000512312DF50BE924061233C14014
:1032D400037F022212378890000612312DF50DE982
:1032E40024071233D140037F02221237889000074B
:1032F40012312DF50CE4F50EE50EC3950C5022ABFE
:1033040008E50A2408F9E43509FA7E00E9250EF9EE
:10331400EE3AFA7C001233E140037F0222050E806C
:10332400D7AB087E00E50A250CF9EE3509FAE92445
:10333400081233D140037F0222123788E50C240897
:10334400FDE433FC123DC18F0F7408250CF582E4B3
:1033540033F58312373D650F7037E50B24FA602B84
:1033640024FA601514601814601B24037020900064
:10337400F3E0FF1230037F01221233EB7F012212AC
:103384003BB17F0122123F647F01227F01227F0231
:0C339400227F00227F00227F00227F00A9
:1033A00022F9E43AFA7F407E427D0F7C00123D30E4
:1033B00022F9E43AFA7F407E427D0F7C00123D30D4
:1033C00022F9E43AFA7F407E427D0F7C00123D30C4
:1033D00022F9E43AFA7F407E427D0F7C00123D30B4
:0B33E000227F407E427D0F123D302214
:103CC300E4F508FB7A007954F50E750F147F817EB5
:103CD3002E123CFEE554601DE4F50874542508F8E3
:103CE300E6FF740925081237AAEFF00508E508B4C2
:0A3CF30011E90233EB7F40123003A9
:013CFD0022A4
:103EDC00E47B017A0079E8F50E750F027F807E2E67
:083EEC00123CFE9000E8E0FF2B
:013EF40022AB
:103E7C008F207F807E2E123EBC7F107E27123F0942
:103E8C00AD207F807E2E123E397F647E00023F097A
:103F0900E4FDFCC3ED9FEC9E50070DBD00010C8044
:013F1900F2B5
:013F1A002284
:103E5B0090FF10E054F04408F090FFA07420F0A302
:103E6B007404F075CC068FCE8DCD759E02759810AF
:013E7B002224
:0A3DC1008B4B8A4C894D8C4E8D4FC0
:103DCB00E4FFFDFCC3ED954FEC954E5015784BE49D
:103DDB0075F0011232081231142FFF0DBD00010CCA
:023DEB0080E274
:013DED0022B3
:02300300AB0719
:10300500E4FCFFFEAD03123EF5AC06AD071237C773
:053015007F0B023B0BE4
:063AA9008B1E8A1F89201C
:103AAF00AB21AA22A923123114FFAB1EAA1FA920F2
:103ABF00123114FDC39FFBE49400FEAF034B701B48
:103ACF00ED601874012520F520E4351FF51F7401F2
:103ADF002523F523E43522F52280C5C3EE648094B7
:103AEF008050057EFF7FFF22D3EF9400EE64809419
:0B3AFF008040057E007F0122E4FEFFF6
:013B0A002298
:1033EB00E4F510F511F512F513F51478157C00FDC5
:1033FB007BFF7A39792DFE7F091230EEE4FF12370D
:10340B00A7E0FE74EB2F12378FEEF01237A7E0FE1A
:10341B0074152FF8A6060FBF08E4E4F51D900011F4
:10342B00E09000F3F0900013E07E007810C333CEF1
:10343B0033CED8F9FDAC06900012E07E007818C3AD
:10344B0033CE33CED8F99000141237759000F4EECA
:10345B00F0A3EFF0900017E07E007810C333CE336B
:10346B00CED8F9FDAC06900016E07E007818C33379
:10347B00CE33CED8F99000181237759000F8EEF0D5
:10348B00A3EFF07521FF7522387523EF12356060BD
:10349B002A7521FF7522387523F8123560601C756B
:1034AB0021FF75223975230112356C600E7521FFD2
:1034BB0075223975230A12356C700575140180035A
:1034CB00E4F514E51460539000F3E0D39400404A04
:1034DB00D39000F5E094009000F4E09400403BE4BE
:1034EB00F510F5119000F6F0A3F09000F4E0FAA3BC
:1034FB00E0FBFF1237D38E738F74AF031237D38D6C
:10350B006EE4F56CF56DF568F569123D617F01129E
:10351B003E7C756A01756BF48006751000751101A0
:10352B00AD11AF13AE12123EF58E128F131237C7B9
:10353B00AD13AC127F0C123B0BE51145107003025F
:10354B003695E51164014510700A7F07123D927F95
:04355B0001123968B8
:10355F00227B007A007915123AA9EF4E227B007A6E
:09356F00007915123AA9EF4E2271
:063F6400900009E0F510D9
:013F6A002234
:1035780078107C007D007BFF7A3979367E007F32B7
:103588001230EEE4F542900009E0B401037F042212
:10359800E4F542740A2542F582E43400F583E0FF3D
:1035A80074EB254212378FE06F60037F05220542D6
:1035B800E542B408DE900012E0FF9000F3E06F608F
:1035C800037F0622E4F542F543F54474132542F5DA
:1035D80082E43400F583E0FF7E00E54275F008A43C
:1035E800FDC374189DFDEFA805088005C333CE33CD
:1035F800CED8F94244EE42430542E542B404CCE554
:1036080044454370057F07123D929000F6E06543FC
:103618007004A3E0654470721237975017E4F542BE
:10362800123746E542B432F89000F6E475F03212EB
:1036380031C1803BE4F542E542C3956E500512372F
:103648004680F49000F8E065687004A3E06569605E
:10365800037F07227B007A007910856E4AAF44AE5B
:1036680043123F53056DE56D7002056C7F09220515
:103678006DE56D7002056C7B007A007910754A3231
:0C368800AF44AE43123F537F01227F0885
:013694002213
:10369500E4FDFCF51EF51F9000F4E0FEA3E0FFC37A
:1036A5009000F7E09F9000F6E09E400122123797C8
:1036B5005005751F328003856E1FE51EC3940850A3
:1036C50012AF05AE0474EB251E12378F1237330582
:1036D5001E80E7AF05AE049000F3123733E4F51E04
:1036E500AF05AE04C006C007E51E75F008A4FFC30C
:1036F50074189FFF9000F6E0FEA3E0A80708800578
:10370500CEC313CE13D8F9FDD007D006123EF5ACC3
:1037150006AD07051EE51EC3940440C4AF05AE04FF
:0D372500AD1F123EF51237B27F0D123B0BA7
:0B37320022E0FD123EF5AC06AD0722C0
:023D92008F455B
:103D9400E4FCFFFE7D9A123EF5AC067D04123EF56E
:103DA400AC06E4FD123EF5AC067D01123EF5AC0610
:0D3DB400AD45123EF51237B27F06023B0B03
:023968008F1EB0
:10396A00E4FCF51FFFFEAD1E123EF5AC06AD07E501
:10397A001FC394085018AF05AE0474EB251F123705
:10398A008FE0FD123EF5AC06AD07051F80E1AF05DD
:10399A00AE049000F3E0FD123EF51237B27F0E122C
:1039AA003B0BE51EB4011C9000F3E0FF1230037BD1
:1039BA00017A0079EB7D0F7C00123E9C756A0075D6
:0E39CA006B6422E51E7007FF123E7C123F491F
:0139D80022CC
:093F5300755000854A51023BFD46
:103E9C008B208A218922ED1DAE0470011C4E600F0F
:0F3EAC007820E475F001123208E412315A80E7F1
:013EBB0022E4
:043B0B008C478D480E
:103B0F009000C97455F0A374AAF0A37402F0A3EB4C
:103B1F00F0A3E54AF0A3EFF0E547A3F0E548A3F0E3
:103B2F002409F548E43547F5477B017A0079C9E563
:103B3F004824FFFDE54734FFFC123DC174C82548FA
:103B4F00F58274003547F583EFF07B017A0079C970
:053B5F00AD48023E1616
:103EF50074D12FF974003EFA7B01ED12315A0FBFD0
:033F050000010EAA
:013F08002296
:083F5C00EF24FF928E92AF22C8
:053C80004200FA000003
:073F6B0075FDF075FC0F224B
:103DEE00E4F524F52543BD10ED1DAA0470011C4A0F
:103DFE0060130FEFAA0670010E14F5828A83E49306
:073E0E0060E67F01227F0046
:013E1500228A
:083B64008E1E8F1F8C208D21A5
:103B6C0043BD10E4F522F523D3E5239521E52295F9
:103B7C00205031C3E51E9430502A7D807C00AF1F4D
:103B8C00AE1E123DEEEF6007AF1FAE1E123EBC74B0
:103B9C0080251FF51FE4351EF51E0523E52370C88F
:043BAC00052280C4AA
:013BB00022F2
:103D61007D207C00E4FFFE123D887E10123D887E9E
:103D710020123B647DFF7C2FE4FFFE123DEEEF60DD
:103D8100037F00227F0122123B647D207C007F00A3
:013D9100220F
:103EBC00AD07AC06E4FF123F5C123F6B8CFA8DF938
:103ECC0075FDD275FC2D75FDE175FC1E0F023F5C76
:103E3900AB07AA06E4FF123F5C8DFB123F6B8AFABF
:103E49008BF975FDB475FC4B75FDE175FC1E0F0210
:023E59003F5CCC
:0A3BFD008E4B8F4C8B4D8A4E894F82
:103C0700E4F552F553C3E5539551E55295505030BD
:103C1700C3E54B94305029AB4DAA4EA94F8553822B
:103C270085528312312DFDAF4CAE4B123E39054CF8
:103C3700E54C7002054B0553E55370C9055280C525
:013C4700225A
:103CFE008B0B8A0C890DE50F150FAC0E7002150E8D
:103D0E004C601E0FEFAC0670010E14F5828C83E42E
:103D1E0093FD780BE475F001123208ED12315A80E2
:023D2E00D5229C
:0A3F4900123F6B75FD8775FC7822AE
:1037F600023A47E493A3F8E493A34003F68001F268
:1038060008DFF48029E493A3F85407240CC8C333D3
:10381600C4540F4420C8834004F456800146F6DFA2
:10382600E4800B0102040810204080903C48E47EAE
:10383600019360BCA3FF543F30E509541FFEE49397
:10384600A360010ECF54C025E060A840B8E493A35E
:10385600FAE493A3F8E493A3C8C582C8CAC583CA89
:10386600F0A3C8C582C8CAC583CADFE9DEE780BE41
:013C8500003E
:10301E00E709F608DFFA8046E709F208DFFA803E94
:10302E0088828C83E709F0A3DFFA8032E309F60881
:10303E00DFFA8078E309F208DFFA807088828C83E9
:10304E00E309F0A3DFFA806489828A83E0A3F6089D
:10305E00DFFA805889828A83E0A3F208DFFA804C77
:10306E0080D280FA80C680D4806980F2803380104E
:10307E0080A680EA809A80A880DA80E280CA8033B7
:10308E0089828A83ECFAE493A3C8C582C8CCC5832F
:10309E00CCF0A3C8C582C8CCC583CCDFE9DEE780FF
:1030AE000D89828A83E493A3F608DFF9ECFAA9F07E
:1030BE00EDFB2289828A83ECFAE0A3C8C582C8CCD4
:1030CE00C583CCF0A3C8C582C8CCC583CCDFEADEED
:1030DE00E880DB89828A83E493A3F208DFF980CC4F
:1030EE0088F0EF60010E4E60C388F0ED2402B40448
:1030FE000050B9F582EB2402B4040050AF232345EF
:06310E00822390306E7375
:10311400BB010689828A83E0225002E722BBFE02B9
:09312400E32289828A83E49322EC
:10312D00BB010CE58229F582E5833AF583E0225057
:10313D0006E92582F8E622BBFE06E92582F8E222A1
:0D314D00E58229F582E5833AF583E49322BB
:10315A00BB010689828A83F0225002F722BBFE0154
:02316A00F3224E
:10316C00BC000BBE0029EF8DF084FFADF022E4CC47
:10317C00F875F008EF2FFFEE33FEEC33FCEE9DEC10
:10318C00984005FCEE9DFE0FD5F0E9E4CEFD22ED56
:10319C00F8F5F0EE8420D21CFEADF075F008EF2FA0
:1031AC00FFED33FD4007985006D5F0F222C398FD91
:0531BC000FD5F0EA222E
:1031C100C5F0F8A3E028F0C5F0F8E5821582700299
:0631D1001583E038F02236
:1031D700EB9FF5F0EA9E42F0E99D42F0E89C45F04E
:0131E70022C5
:1031E8007401FF3395E0FEFDFC080808E6CF2FF6D2
:1031F80018E6CE3EF618E6CD3DF618E6CC3CF622AB
:10320800FAE6FB0808E6F925F0F618E6CA3AF622C7
:10321800D083D082F8E4937012740193700DA3A345
:1032280093F8740193F5828883E473740293686059
:06323800EFA3A3A380DF59
:00000001FF
