:033000000236B6DF
:1036B600787FE4F6D8FD9000007FFF7E01E4F0A35A
:0A36C600DFFCDEFA75812902370BE4
:093C2500410000004200CA000049
:0A3C690043BD107B017A00790122AF
:1039D700123A12123BF6900000EFF07023123750A4
:1039E700123C6912301EEF600B24FE600E0470F06B
:1039F7007F7980027F1F123C3780E5123C7380E09D
:0B3A0700123C59123C6912329580F805
:103A120075BD5490FEA074FFF0758E5090FE9174A7
:103A220002F0A37410F090FF02E054F04402F09010
:103A3200FE80E4F0F589758DF5758B96D2ABC28E5A
:043A420053BBF72259
:103C37005398EF8F99E59830E1FB5398FD4398101F
:013C4700225A
:063B99008B0E8A0F89105B
:103B9F00E4FEEEC39D5015AB0EAA0FA9108E8275D1
:0C3BAF00830012356CFF123C370E80E6DC
:013BBB0022E7
:103C4800E59830E00A5398FEE599123599D322C3D6
:013C58002249
:103A78008B108A1189128F168E158D148C1343BDE5
:103A880010781374FF1235BEE4FBFAF9F8C3123547
:103A9800AB500CAB10AA11A912123C4850E322C338
:013AA80022FB
:103BBC00090401000213213191920704010213211F
:0D3BCC0091920A4843383953303033463463
:033C2E0001290069
:10361200AB08E50A2402F9E43509FA7E00E9250B34
:10362200F9EE3AFA7F807E1A7D067C00229000082D
:10363200AA09A90A02356CAB08AA09A90A02356CC3
:10364200AB08AA09A90A90000412356CFE90000585
:1036520012356CFDEDFF22FF7E002401FDEE33FCEE
:10366200E92FF9EE3AFAE92409F9E43A8B13F51451
:103672008915D20022AB08AA09A90A02356CFFEE0D
:103682004CFCEF4DFDE04CFEEDFFA3E0FDEF4DFFE6
:1036920022AB08E50A2408F9E4350922AB08AA0995
:1036A200A90A22E475F0011235DC023553E9240936
:0436B200F9E43A22DB
:10375000D28ED2AFE529C3941E4003123C7320845D
:10376000F3C28EC2AF90FF10E054F04408F090FF17
:10377000A07420F0A37404F075CC0675CEFF75CD4F
:10378000F8759E027598107F79123C377B007D009A
:103790007C001237D74003123C73E508647F600356
:1037A000123C737F1F123C37E4F508FBFDFC123717
:1037B000D74003123C73E508647F6003123C7390AA
:1037C000FEA474C1F0A37414F075BBA290FEA7749C
:0737D000FFF07F1F023C37F0
:0C37D7007A0079087FA07E0F123A782259
:06301E008B088A09890AF3
:10302400123626123A7840037F0222AB08E50A24BE
:1030340001F9E43509123625123A7840037F022259
:10304400AB08900001123632F4FF123553FE6F6064
:10305400037F0022EE1235EC307500308E0130A76C
:103064000230ED13314921326191326C9200003209
:10307400777F79123C377F09123C377A3B79BD7DE3
:103084000912327A7A3B79BC80477F79123C377FC8
:1030940007123C377A3B79C77D0712327A7A3B793B
:1030A400C6802E7F79123C37123B7540037F002285
:1030B4007F0A123C377BFF7A3B79CF7D0A123B991A
:1030C400850813850914850A15C2007BFF7A3B79AC
:1030D400CE0D7C0012394A8E0C8F0DE50CFF123C8C
:1030E40037AF0D123C377F01227F79123C37E4F56C
:1030F4000B123612123A7840037F0222050BE50BBD
:10310400C3940240ECAB08AA09A90A900002123544
:103114006CF4702E90000312356C70267DFF7C2FAA
:10312400FFFE123B02EF70037F0122123626123A91
:10313400DA40037F0022123AA9EF60037F01227F65
:1031440000227F00227F79123C37E4F50B123612FD
:10315400123A7840037F0222050BE50BC394064024
:10316400ECAB08E50A2402F9E43509FAC003C0020D
:10317400C001E50A2406F9E4350912366ED001D0FF
:1031840002D0037D047C0012328D60037F00227F15
:1031940079123C37123693123625123A7840037F5F
:1031A4000222E4F50BAB0812362F2402FFE433FEAF
:1031B400C3E50B9FEE6480F874809850121236AF0A
:1031C40012361C123A7840037F0222050B80D61275
:1031D4003693FAC003C002C00112362F123659D0FA
:1031E40001D002D00312328D60037F0022123626F2
:1031F400123ADA40037F002275940FE4F5951236F3
:10320400421236AFFAC002C00112362F751300F510
:1032140014D001D0021238FF1236421236AFFAC06F
:1032240002C00112362F751300F514D001D002121A
:103234003A46123693FAC003C002C00112362F1266
:103244003659D001D002D00312394AEF64014E60DE
:1032540009123642123BD97F00227F01227F791264
:103264003C37123C737F01227F79123C37123C7D3C
:053274007F01227F0034
:10327900227BFF123B99850813850914850A15C21B
:0C328900007BFF2212394AEF64014E2244
:10394A008B0E8A0F891090FEA27401F0ED1DAE0451
:10395A0070011C4E6009780E1236A5F5BE80ED3056
:10396A000023E5BFFFAB13AA14A915123553B507F7
:10397A001090000112356CAEBEB506057E007F01BF
:0A398A0022E4FEFF22AFBEAEBF2212
:103ADA008F118E108D0F8C0E43BD10780E74FF124D
:103AEA0035BEE4FBFAF9F8C31235AB500953BBF7FC
:083AFA00E5BB20E3E622C32234
:03301B00023C95DF
:033C9500052932CC
:063295008B088A09890A7A
:10329B00E4F50F7F807E1A7D06FC123A7840037F9F
:1032AB00022212369E12355364556003023414E920
:1032BB002401F9E4123624123A7840037F0222905B
:1032CB00000112363964AA6003023411E92402F9B1
:1032DB00E4123624123A7840037F02229000021245
:1032EB0036776402600302340EE92403F9E41236E4
:1032FB0024123A7840037F02229000031236779013
:10330B0000C9F0E92404F9E4123624123A78400398
:10331B007F02229000041236399000CCF0E924058C
:10332B00F9E4123624123A7840037F022212369EB9
:10333B0090000512356CF50BE92406F9E4123624DE
:10334B00123A7840037F022212369E900006123505
:10335B006CF50DE92407F9E4123624123A78400390
:10336B007F022212369E90000712356CF50CE4F5A5
:10337B000EE50EC3950C501FAB08E50A2408F9E4C3
:10338B003509FA7E00E9250E123622123A784003EF
:10339B007F0222050E80DAAB087E00E50A250CF9C8
:1033AB00EE3509FAE92408F9E4123624123A78408A
:1033BB00037F022212369EE50C2408FDE433FC1237
:1033CB003B2A8F0F7408250CF582E433F5831236F4
:1033DB0039650F702BE50B24F46010146013146027
:1033EB0016240370181237E37F01221234177F0162
:1033FB00221230197F0122123C877F01227F00228B
:0B340B007F00227F00227F00227F0054
:013416002293
:103BF6007B017A0079CA7513007514027F807E3FB7
:093C0600123A469000CAE0FF22C8
:103C590075CC0675CEFF75CD30759E02759810220C
:0A3B2A008B108A1189128C138D1480
:103B3400E4FFFDFCC3ED9514EC9513500E781012C0
:0B3B440036A52FFF0DBD00010C80E92D
:013B4F002253
:1037E300E4F510F511F512FE123994AE0774552560
:1037F30012F51224AAF512051205129000C9E0254C
:1038030012F5129000CCE02512F512240BF51205E7
:1038130012EE2512F5127F55123C377FAA123C3760
:103823007F02123C379000C9E0FF123C379000CC76
:10383300E0FF123C377F0B123C37E4FF123C370F9B
:0D384300123C37AF06123C37AF12023C3783
:103994007BFF7A3B79BC8B148A158916E4F51712E0
:1039A4003553FF123003EFC4333354C0F51790007E
:1039B400021239C8C454F042179000041239C842A4
:0339C40017AF1723
:1039C70022AB14AA15A91612356CFF123003EF2289
:10300300EFC394305008EF943940037FFF22EF75EC
:06301300F03084AFF02252
:10341700E4F510F511F512F513123B50E510C394BE
:1034270008501E74092510F582E43400F583E0FF87
:1034370074CD2510F582E43400F583EFF005108094
:10344700DB900011E09000D5F0900013E07E00784B
:1034570010C333CE33CED8F9FDAC06900012E07E10
:10346700007818C333CE33CED8F9900014123680C3
:103477009000D6EEF0A3EFF0900017E07E007810F2
:10348700C333CE33CED8F9FDAC06900016E07E00EC
:103497007818C333CE33CED8F990001812368090FF
:1034A70000DAEEF0A3EFF075170075180075192113
:1034B7007B017A0079CD123850EF4E702112399482
:1034C7009000D5E0D39F4016D39000D7E0940090AA
:1034D70000D6E094004007E4F511F5128006751157
:1034E70000751201E49000D8F0A3F074552513F588
:1034F7001324AAF513051305139000C9E02513F546
:10350700139000CCE02513F513240CF5130513E5F0
:10351700122513F5137F55123C377FAA123C377FCC
:1035270002123C379000C9E0FF123C379000CCE014
:10353700FF123C377F0C123C37E4FF123C370F1267
:0C3547003C37AF12123C37AF13023C3788
:103B5000E4FF7514FF75153B7516BCAB14AA15A9C7
:103B6000168F8275830012356CFE74212FF8A6061D
:043B70000FBF08E794
:013B7400222E
:063850008B148A15891695
:10385600AB17AA18A919123553FFAB14AA15A91646
:10386600123553FDC39FFBE49400FEAF034B701B60
:10387600ED601874012516F516E43515F515740175
:103886002519F519E43518F51880C5C3EE6480943A
:103896008050057EFF7FFF22D3EF9400EE64809474
:0B38A6008040057E007F0122E4FEFF51
:0138B10022F4
:063C8700900009E0F510B9
:013C8D002214
:013019002294
:01301A002293
:023C98008F1A81
:013C9A002207
:053C31004200DC000070
:073C8E0075FDF075FC0F222B
:103B0200E4F514F51543BD10ED1DAA0470011C4A1D
:103B120060130FEFAA0670010E14F5828A83E493F4
:073B220060E67F01227F0035
:013B29002279
:103BD900C3EE9430501675FDF075FC0F8EFA8FF90F
:0D3BE90075FDD275FC2D75FDE175FC1E22E9
:0838B2008E0E8F0F8C108D119A
:1038BA0043BD10E4F512F513D3E5139511E51295FE
:1038CA00105031C3E50E9430502A7D807C00AF0F32
:1038DA00AE0E123B02EF6007AF0FAE0E123BD97469
:1038EA0080250FF50FE4350EF50E0513E51370C8A4
:0438FA00051280C46F
:0138FE0022A7
:103AA9007D207C00E4FFFE123AD07E10123AD07ECF
:103AB900201238B27DFF7C2FE4FFFE123B02EF603B
:103AC900037F00227F01221238B27D207C007F0013
:013AD90022CA
:103C0F008DFB123C8E8EFA8FF975FDB475FC4B75DA
:063C1F00FDE175FC1E2210
:0A38FF008E0E8F0F8B108A118912B4
:10390900E4F515F516C3E5169514E515951350302C
:10391900C3E50E94305029AB10AA11A9128516825D
:1039290085158312356CFDAF0FAE0E123C0F050FD6
:10393900E50F7002050E0516E51670C9051580C557
:01394900225B
:103A46008B108A118912E5141514AC137002151324
:103A56004C601E0FEFAC0670010E14F5828C83E4E9
:103A660093FD7810E475F0011235DCED123599807E
:023A7600D52257
:0A3C7300123C8E75FD8775FC782267
:0A3C7D00123C8E75FD7875FC87225D
:103B750075A2107B017A0079DC7513007514017F3D
:103B8500207E01123A46E4F5A29000DCE0B408027A
:043B9500D322C32252
:1036D0000239D7E493A3F8E493A34003F68001F200
:1036E00008DFF48029E493A3F85407240CC8C333FB
:1036F000C4540F4420C8834004F456800146F6DFCA
:10370000E4800B0102040810204080903C25E47EF8
:10371000019360BCA3FF543F30E509541FFEE493BE
:10372000A360010ECF54C025E060A840B8E493A385
:10373000FAE493A3F8E493A3C8C582C8CAC583CAB0
:10374000F0A3C8C582C8CAC583CADFE9DEE780BE68
:013C3600008D
:10355300BB010689828A83E0225002E722BBFE0276
:09356300E32289828A83E49322A9
:10356C00BB010CE58229F582E5833AF583E0225014
:10357C0006E92582F8E622BBFE06E92582F8E2225E
:0D358C00E58229F582E5833AF583E4932278
:10359900BB010689828A83F0225002F722BBFE0111
:0235A900F3220B
:1035AB00EB9FF5F0EA9E42F0E99D42F0E89C45F076
:0135BB0022ED
:1035BC007401FF3395E0FEFDFC080808E6CF2FF6FA
:1035CC0018E6CE3EF618E6CD3DF618E6CC3CF622D3
:1035DC00FAE6FB0808E6F925F0F618E6CA3AF622F0
:1035EC00D083D082F8E4937012740193700DA3A36E
:1035FC0093F8740193F5828883E473740293686082
:06360C00EFA3A3A380DF81
:00000001FF
