:0330000002367D18
:10367D00787FE4F6D8FD9000007FFF7E01E4F0A393
:0A368D00DFFCDEFA75815F0236D221
:093B9B00410000004200E80000B6
:10390300123A9D123CF0123C91900000EFF0755575
:1039130000755664700512381C803E7F01123D0FFE
:103923007D307FFF123C307F401230037F401230E6
:10393300037F4012300343BD107B017A00790112EB
:103943003218EF24FE600280EDC3E558955FE5571A
:0D395300955E50E21235D080DDE4FEFF22CB
:103A9D00758E5090FE917402F0A37410F075BD5F99
:103AAD0090FEA074FFF090FF02E054F04402F090FD
:103ABD00FE80E4F0F589758DF5758B96D2ABC28ECF
:0D3ACD0075BBAA90FEA774FFF053BBF72253
:0C3CF00090FF08E04488F0D290D29122AE
:103CBE005398EF8F99E59830E1FB5398FD43981098
:013CCE0022D3
:063BEB008B4B8A4C894D52
:103BF100E4FEEEC39D5015AB4BAA4CA94D8E8275C8
:0C3C0100830012312DFF123CBE0E80E645
:013C0D002294
:103CCF00E59830E00A5398FEE59912315AD322C392
:013CDF0022C2
:103B0C008B108A1189128F168E158D148C137813C5
:103B1C0074FF1231EAE4FBFAF9F8C31231D7500FF3
:103B2C0043BD10AB10AA11A912123CCF50E022C316
:013B3C002266
:103A06000704010002132191060401021321910A01
:103A16004843383953303033463400000000000044
:103A26000000000000000000000000000000000090
:103A36000000000000000000000000000000000080
:0C3A460000000000000000000000000074
:103BA400045A0000000002530000025E00000257A5
:093BB40000000159000255000057
:10379B00AB08AA09A90A02312D74172DF582E4345E
:1037AB0000F583E0FF74102DF8A60774102DF8E6D2
:1037BB002554F554E43553F5530D22AB08AA09A94A
:1037CB000A02312DFFEE4CFCEF4DFDE04CFEEDFF00
:1037DB00A3E0FDEF4DFF22AB08AA09A90A22F5824F
:1037EB00E43400F58322C3E558955FE557955E22D7
:1037FB00AB5DAA5CA95BA85AC30231D79000E7E086
:10380B00FB9000EAE0F54A227C007D32AE020231E9
:01381B006C40
:10381C007F01123D0FE47F1EFEFDFC1237FB4003BF
:10382C00123CFC2084EF7DF87FFF123C307F791234
:10383C003CBE7B007D007C001238894003123CFCAE
:10384C00E508647F6003123CFC7F1F123CBEE4F56C
:10385C0008FBFDFC1238894003123CFCE508647F30
:10386C006003123CFC90FEA474C1F0A37414F075B8
:0D387C00BBA290FEA774FFF07F1F023CBEB0
:0C3889007A0079087FA07E0F123B0C2211
:03301B00023895E3
:10389500C0E0C0F0C083C082C0D075D000C000C0F9
:1038A50001C002C003C004C005C006C007AF5DAEBD
:1038B5005CAD5BAC5AEF2401FFE43EFEE43DFDE464
:1038C5003C8F5D8E5C8D5BF55AAE55AF56E4FCFDC5
:1038D5001237FB400E755D00755C00755B00755A0F
:1038E50000B290D007D006D005D004D003D002D0C6
:0E38F50001D000D0D0D082D083D0F0D0E0320D
:063218008B088A09890AF7
:10321E00E4F50FFC1233C740037F02221237E2128D
:10322E00311464556003023384E92401123387405C
:10323E00037F022290000112379B64AA60030233BF
:10324E0081E9240212338740037F0222900002128A
:10325E00379B6402600302337EE9240312339740E6
:10326E00037F02229000031237C69000E7F0E92494
:10327E000412339740037F02229000041237C69047
:10328E0000EAF0E924051233A740037F0222123729
:10329E00E290000512312DF50BE924061233A740FA
:1032AE00037F02221237E290000612312DF50DE94E
:1032BE0024071233B740037F02221237E290000731
:1032CE0012312DF50CE4F50EE50EC3950C5022AB24
:1032DE0008E50A2408F9E43509FA7E00E9250EF915
:1032EE00EE3AFA7C001233C740037F0222050E80AD
:1032FE00D7AB087E00E50A250CF9EE3509FAE9246C
:10330E00081233B740037F02221237E2E50C24087D
:10331E00FDE433FC123B6E8F0F7408250CF582E42E
:10332E0033F58312379B650F7043E50B24F460155C
:10333E0014601814602E240370309000F3E0FF1216
:10334E0030037F01221233D17F01221234D5EF7068
:10335E00077F011237178009D31237F25003123547
:10336E00D07F0122123D177F01227F02227F002291
:08337E007F00227F00227F0086
:1033860022F9E43AFA7F407E427D0F7C00123B0C24
:1033960022F9E43AFA7F407E427D0F7C00123B0C14
:1033A60022F9E43AFA7F407E427D0F7C00123B0C04
:1033B60022F9E43AFA7F407E427D0F7C00123B0CF4
:0B33C600227F407E427D0F123B0C2254
:103C9100E47B017A0079E8F50D750E027F807E2EB6
:083CA100123ADA9000E8E0FF9E
:013CA90022F8
:103CE000AB077F807E2E123C71AD037F80023C0EBD
:103C300090FF10E054F04408F090FFA07420F0A32F
:103C40007404F075CC068FCE8DCD759E02759810DC
:013C50002251
:0A3B6E008B4B8A4C894D8C4E8D4F15
:103B7800E4FFFDFCC3ED954FEC954E5015784BE4F2
:103B880075F0011232081231142FFF0DBD00010C1F
:023B980080E2C9
:013B9A002208
:02300300AB0719
:10300500E4FCFFFEAD03123CAAAC06AD071238077F
:053015007F0B02396091
:1033D100E4FFF510F511F512F51374092FF582E4E8
:1033E1003400F583E0FE74EB2F1237E9EEF00FBFE6
:1033F10008E8900011E09000F3F0900013E07E00E7
:103401007810C333CE33CED8F9FDAC06900012E06C
:103411007E007818C333CE33CED8F990001412371A
:10342100CF9000F4EEF0A3EFF0900017E07E00786B
:1034310010C333CE33CED8F9FDAC06900016E07E32
:10344100007818C333CE33CED8F99000181237CF95
:103451009000F8EEF0A3EFF09000F3E0D394004079
:103461004AD39000F5E094009000F4E09400403BD2
:10347100E4F510F5119000F6F0A3F09000F4E0FAF5
:10348100A3E0FBFF1238138E5E8F5FAF0312381378
:103491008D59E4F557F558F553F554123B3D7F012D
:1034A100123CE07555017556F480067510007511D2
:1034B10001AD11AF13AE12123CAA8E128F13123846
:1034C10007AD13AC127F0C123960E5114510700382
:0334D1001235D0E1
:0134D40022D5
:063D1700900009E0F51028
:013D1D002283
:1034D50078107C007D007BFF7A3A79207E007F3270
:1034E5001230EE900009E0B401037F0022E4FD7480
:1034F5000A2DF582E43400F583E0FF74EB2D1237D5
:10350500E9E06F60037F00220DBD08E3900012E043
:10351500FF9000F3E06F60037F0022E4FDF542F5C4
:103525004374132DF582E43400F583E0FF7E00ED4E
:1035350075F008A4FCC374189CFCEFA8040880056A
:10354500C333CE33CED8F94243EE42420DBD04D14A
:103555009000F6E065427004A3E06543706A123797
:10356500F1501CE4FD1237A4BD32FA9000F6E47563
:10357500F0321231C10558E558703A05578036E4E6
:10358500FDEDC3955950051237A480F59000F8E07C
:1035950065537004A3E0655460037F00227B007AC5
:1035A500007910855949AF43AE42123D06E4FF123A
:1035B50037177F01227B007A007910754932AF43B6
:0A35C500AE42123D067F01227F0096
:0135CF0022D9
:1035D000E4FDFCF514F5159000F4E0FEA3E0FFC354
:1035E0009000F7E09F9000F6E09E4001221237F134
:1035F00050057515328003855915E514C39408509C
:1036000012AF05AE0474EB25141237E912367305B8
:103610001480E7AF05AE049000F3123673E4F5149E
:10362000AF05AE04C006C007E51475F008A4FFC3DB
:1036300074189FFF9000F6E0FEA3E0A8070880053D
:10364000CEC313CE13D8F9FDD007D006123CAAACD6
:1036500006AD070514E514C3940440C4AF05AE04D9
:10366000AD15123CAAAC06AD07E4F54AFB7F0D127E
:023670003960BF
:0B36720022E0FD123CAAAC06AD0722CE
:023717008F44DD
:10371900E4FCF545FFFEAD44123CAAAC06AD07E555
:1037290045C394085012AF05AE0474EB2545123712
:10373900E9123788054580E7AF05AE049000F3121A
:103749003788E4F54AFB7F0E123960E5446401705D
:10375900221237921237929000F3E0FF1230037B66
:10376900017A0079EB7D0F7C00123C51755500758B
:0E377900566422E5447007FF123CE0123CFC4F
:1037870022E0FD123CAAAC06AD07229000F3E0FF51
:0437970012300322C7
:093D0600754F00854950023A5244
:103C51008B468A478948ED1DAE0470011C4E600FEA
:0F3C61007846E475F001123208E412315A80E718
:013C70002231
:043960008C478D48BB
:103964009000C97455F0A374AAF0A37402F0A3EBF9
:10397400F0A3E54AF0A3EFF0E547A3F0E548A3F090
:103984002409F548E43547F5477B017A0079C9E510
:103994004824FFFDE54734FFFC123B6E74C82548FC
:1039A400F58274003547F583EFF07B017A0079C91D
:0539B400AD48023BEBF1
:103CAA0074D12FF974003EFA7B01ED12315A0FBF1D
:033CBA0000010EF8
:013CBD0022E4
:083D0F00EF24FF928E92AF2217
:053BBD004200FA0000C7
:073D1E0075FDF075FC0F229A
:103BC300E4F51AF51B43BD10ED1DAA0470011C4A50
:103BD30060130FEFAA0670010E14F5828A83E49333
:073BE30060E67F01227F0074
:013BEA0022B8
:0839B9008E148F158C168D177A
:1039C10043BD10E4F518F519D3E5199517E51895D8
:1039D100165031C3E5149430502A7D807C00AF1518
:1039E100AE14123BC3EF6007AF15AE14123C7174F5
:1039F100802515F515E43514F5140519E51970C878
:043A0100051880C460
:013A0500229E
:103B3D007D207C00E4FFFE123B647E10123B647E10
:103B4D00201239B97DFF7C2FE4FFFE123BC3EF60DD
:103B5D00037F00227F01221239B97D207C007F0076
:013B6D002235
:103C7100AD07AC06E4FF123D0F123D1E8CFA8DF923
:103C810075FDD275FC2D75FDE175FC1E0F023D0F12
:103C0E00AB07AA06E4FF123D0F8DFB123D1E8AFA8A
:103C1E008BF975FDB475FC4B75FDE175FC1E0F023D
:023C2E003D0F48
:0A3A52008E4A8F4B8B4C8A4D894E33
:103A5C00E4F551F552C3E5529550E551954F503070
:103A6C00C3E54A94305029AB4CAA4DA94E855282DD
:103A7C0085518312312DFDAF4BAE4A123C0E054BD6
:103A8C00E54B7002054A0552E55270C9055180C5D7
:013A9C002207
:103ADA008B0A8A0B890CE50E150EAC0D7002150DBA
:103AEA004C601E0FEFAC0670010E14F5828C83E455
:103AFA0093FD780AE475F001123208ED12315A800A
:023B0A00D522C2
:0A3CFC00123D1E75FD8775FC78224D
:10369700023903E493A3F8E493A34003F68001F20D
:1036A70008DFF48029E493A3F85407240CC8C33334
:1036B700C4540F4420C8834004F456800146F6DF03
:1036C700E4800B0102040810204080903B9BE47EBD
:1036D700019360BCA3FF543F30E509541FFEE493F8
:1036E700A360010ECF54C025E060A840B8E493A3BF
:1036F700FAE493A3F8E493A3C8C582C8CAC583CAEA
:10370700F0A3C8C582C8CAC583CADFE9DEE780BEA1
:013BC2000002
:10301E00E709F608DFFA8046E709F208DFFA803E94
:10302E0088828C83E709F0A3DFFA8032E309F60881
:10303E00DFFA8078E309F208DFFA807088828C83E9
:10304E00E309F0A3DFFA806489828A83E0A3F6089D
:10305E00DFFA805889828A83E0A3F208DFFA804C77
:10306E0080D280FA80C680D4806980F2803380104E
:10307E0080A680EA809A80A880DA80E280CA8033B7
:10308E0089828A83ECFAE493A3C8C582C8CCC5832F
:10309E00CCF0A3C8C582C8CCC583CCDFE9DEE780FF
:1030AE000D89828A83E493A3F608DFF9ECFAA9F07E
:1030BE00EDFB2289828A83ECFAE0A3C8C582C8CCD4
:1030CE00C583CCF0A3C8C582C8CCC583CCDFEADEED
:1030DE00E880DB89828A83E493A3F208DFF980CC4F
:1030EE0088F0EF60010E4E60C388F0ED2402B40448
:1030FE000050B9F582EB2402B4040050AF232345EF
:06310E00822390306E7375
:10311400BB010689828A83E0225002E722BBFE02B9
:09312400E32289828A83E49322EC
:10312D00BB010CE58229F582E5833AF583E0225057
:10313D0006E92582F8E622BBFE06E92582F8E222A1
:0D314D00E58229F582E5833AF583E49322BB
:10315A00BB010689828A83F0225002F722BBFE0154
:02316A00F3224E
:10316C00BC000BBE0029EF8DF084FFADF022E4CC47
:10317C00F875F008EF2FFFEE33FEEC33FCEE9DEC10
:10318C00984005FCEE9DFE0FD5F0E9E4CEFD22ED56
:10319C00F8F5F0EE8420D21CFEADF075F008EF2FA0
:1031AC00FFED33FD4007985006D5F0F222C398FD91
:0531BC000FD5F0EA222E
:1031C100C5F0F8A3E028F0C5F0F8E5821582700299
:0631D1001583E038F02236
:1031D700EB9FF5F0EA9E42F0E99D42F0E89C45F04E
:0131E70022C5
:1031E8007401FF3395E0FEFDFC080808E6CF2FF6D2
:1031F80018E6CE3EF618E6CD3DF618E6CC3CF622AB
:10320800FAE6FB0808E6F925F0F618E6CA3AF622C7
:00000001FF
