:0330000002337127
:10337100787FE4F6D8FD9000007FFF7E01E4F0A3A2
:0A338100DFFCDEFA7581200233C67E
:0437DE0041000000A6
:0A37EB0043BD107B017A0079012232
:1035E80012362312381C900000EFF0702312340BAF
:1035F8001237EB12301EEF600B24FE600E0470F0E1
:103608007F7980027F1F1237BC80E51237F580E092
:0B3618001230191237EB12380980F84D
:1036230075BD5490FEA074FFF0758E5090FE91749A
:1036330002F0A37410F090FF02E054F04402F09003
:10364300FE80E4F0F589758DF5758B96D2ABC28E4D
:0436530053BBF7224C
:1037BC005398EF8F99E59830E1FB5398FD4398109F
:0137CC0022DA
:06375F008B0E8A0F891099
:10376500E4FEEEC39D5015AB0EAA0FA9108E82750F
:0C37750083001232CBFF1237BC0E80E63E
:013781002225
:1037CD00E59830E00A5398FEE5991232F8D322C3FA
:0137DD0022C9
:103689008B0E8A0F89108F148E138D128C1143BDE6
:1036990010781174FF12331DE4FBFAF9F8C31233E1
:1036A9000A500CAB0EAA0FA9101237CD50E322C352
:0136B90022EE
:10378200090401000213213191920704010213215D
:0D37920091920A48433839533030334634A1
:0337E200011700CC
:10349E00900008AA09A90A0232CBAB08AA09A90A08
:1034AE009000041232CBFE9000051232CBFDEDFFE0
:1034BE0022F9E43509FA7F807E1A7D067C0022FF10
:1034CE007E002401FDEE33FCE92FF9EE3AFAE924F1
:1034DE0009F9E43A8B13F5148915D20022E924096F
:1034EE00F9E43AFA22AB08E50A2408F9E43509FAB8
:0134FE0022AB
:10340B00D28ED2AFE517C3941E40031237F520843A
:10341B00F3C28EC2AF90FF10E054F04408F090FF5F
:10342B00A07420F0A37404F075CC0675CEFF75CD97
:10343B00F8759E027598107F791237BC7B007D0062
:10344B007C0012349240031237F5E508647F600369
:10345B001237F57F1F1237BCE4F508FBFDFC123465
:10346B009240031237F5E508647F60031237F5903D
:10347B00FEA474C1F0A37414F075BBA290FEA774E4
:07348B00FFF07F1F0237BCB8
:0C3492007A0079087FA07E0F1236892294
:06301E008B088A09890AF3
:103024001234C412368940037F0222AB08E50A2415
:10303400011234BF12368940037F0222AB0890008C
:10304400011234A1F4FF1232B2FE6F60037F00223A
:10305400EE12334B307100308A0130A30230E91391
:10306400314221325E91326992000032747F7912CA
:1030740037BC7F091237BC7A3779837D09123297BE
:103084007A37798280477F791237BC7F071237BC41
:103094007A37798D7D071232977A37798C802E7F33
:1030A400791237BC12373B40037F00227F0A123764
:1030B400BC7BFF7A3779957D0A12375F85081385C3
:1030C4000914850A15C2007BFF7A3779940D7C00B8
:1030D4001234FF8E0C8F0DE50CFF1237BCAF0D12AE
:1030E40037BC7F01227F791237BCE4F50B123277AB
:1030F40040037F0222050BE50BC3940240EFAB08AB
:10310400AA09A90A9000021232CBF4702E9000038F
:103114001232CB70267DFF7C2FFFFE123713EF7027
:10312400037F01221234C41236EB40037F002212C3
:1031340036BAEF60037F01227F00227F00227F796D
:103144001237BCE4F50B12327740037F0222050BE1
:10315400E50BC3940640EFAB08E50A2402F9E43515
:1031640009FAC003C002C001E50A2406F9E43509DE
:103174001234E2D001D002D0037D047C001232AAC2
:1031840060037F00227F791237BCAB08E50A24086C
:103194001234BF12368940037F0222E4F50BAB08D8
:1031A40012349E2402FFE433FEC3E50B9FEE6480D9
:1031B400F8748098501A1234EB7E00E9250BF9EE6E
:1031C4003A1234C312368940037F0222050B80CEA3
:1031D4001234F3C003C002C00112349E1234CDD0A5
:1031E40001D002D0031232AA60037F00221234C439
:1031F4001236EB40037F002275940FE4F5951234E8
:10320400A81234EBC002C00112349E751300F514E9
:10321400D001D00212359D1234A81234EBC002C082
:103224000112349E751300F514D001D002123657E2
:103234001234F3C003C002C00112349E1234CDD044
:1032440001D002D0031234FFEF64014E600912343E
:10325400A812379F7F00227F01227F791237BC1288
:1032640037F57F01227F791237BC1237FF7F0122A5
:023274007F00D9
:1032760022AB08E50A2402F9E43509FA7E00E925BD
:103286000BF9EE3AFA7F807E1A7D067C00123689AB
:10329600227BFF12375F850813850914850A15C23C
:0C32A600007BFF221234FFEF64014E2277
:1034FF008B0E8A0F891090FEA27401F0ED1DAE04A1
:10350F0070011C4E6010780EE475F00112333B12FF
:10351F0032B2F5BE80E6300023E5BFFFAB13AA142D
:10352F00A9151232B2B507109000011232CBAEBE00
:10353F00B506057E007F0122E4FEFF22AFBEAEBFBF
:01354F002259
:1036EB008F118E108D0F8C0E43BD10780E74FF1240
:1036FB00331DE4FBFAF9F8C312330A500953BBF735
:08370B00E5BB20E3E622C32226
:03301B000238195F
:033819000517325E
:083809008B088A09890A7F017E
:013811002294
:03381C007F002208
:013019002294
:0537E5004200C90000D4
:0738120075FDF075FC0F22AB
:10371300E4F514F51543BD10ED1DAA0470011C4A10
:1037230060130FEFAA0670010E14F5828A83E493E7
:0737330060E67F01227F0028
:01373A00226C
:10379F00C3EE9430501675FDF075FC0F8EFA8FF94D
:0D37AF0075FDD275FC2D75FDE175FC1E2227
:083550008E0E8F0F8C108D11FF
:1035580043BD10E4F512F513D3E5139511E5129563
:10356800105031C3E50E9430502A7D807C00AF0F97
:10357800AE0E123713EF6007AF0FAE0E12379F74FF
:1035880080250FF50FE4350EF50E0513E51370C809
:04359800051280C4D4
:01359C00220C
:1036BA007D207C00E4FFFE1236E17E101236E17EA8
:1036CA00201235507DFF7C2FE4FFFE123713EF6086
:1036DA00037F00227F01221235507D207C007F006B
:0136EA0022BD
:103003008DFB1238128EFA8FF975FDB475FC4B7572
:06301300FDE175FC1E2228
:0A359D008E0E8F0F8B108A11891219
:1035A700E4F515F516C3E5169514E5159513503092
:1035B700C3E50E94305029AB10AA11A912851682C3
:1035C7008515831232CBFDAF0FAE0E123003050FF8
:1035D700E50F7002050E0516E51670C9051580C5BD
:0135E70022C1
:103657008B108A118912E5141514AC137002151317
:103667004C601E0FEFAC0670010E14F5828C83E4DC
:1036770093FD7810E475F00112333BED1232F880B8
:02368700D5224A
:0A37F50012381275FD8775FC78226A
:0A37FF0012381275FD7875FC872260
:10373B0075A2107B017A0079C97513007514017F8E
:10374B00207E01123657E4F5A29000C9E0B40802BE
:04375B00D322C32290
:10338B000235E8E493A3F8E493A34003F68001F23B
:10339B0008DFF48029E493A3F85407240CC8C33343
:1033AB00C4540F4420C8834004F456800146F6DF12
:1033BB00E4800B01020408102040809037DEE47E8D
:1033CB00019360BCA3FF543F30E509541FFEE49307
:1033DB00A360010ECF54C025E060A840B8E493A3CE
:1033EB00FAE493A3F8E493A3C8C582C8CAC583CAF9
:1033FB00F0A3C8C582C8CAC583CADFE9DEE780BEB1
:0137EA0000DE
:1032B200BB010689828A83E0225002E722BBFE021A
:0932C200E32289828A83E493224D
:1032CB00BB010CE58229F582E5833AF583E02250B8
:1032DB0006E92582F8E622BBFE06E92582F8E22202
:0D32EB00E58229F582E5833AF583E493221C
:1032F800BB010689828A83F0225002F722BBFE01B5
:02330800F322AE
:10330A00EB9FF5F0EA9E42F0E99D42F0E89C45F019
:01331A002290
:10331B007401FF3395E0FEFDFC080808E6CF2FF69D
:10332B0018E6CE3EF618E6CD3DF618E6CC3CF62276
:10333B00FAE6FB0808E6F925F0F618E6CA3AF62293
:10334B00D083D082F8E4937012740193700DA3A311
:10335B0093F8740193F5828883E473740293686025
:06336B00EFA3A3A380DF25
:00000001FF
