:0330000002397022
:10397000787FE4F6D8FD9000007FFF7E01E4F0A39D
:0A398000DFFCDEFA7581490239C54B
:093F4200410000004200E800000B
:0A3F890043BD107B017A007901228C
:103C9600123CDE123F7D123017900000EFF07023C9
:103CA600123A0A123F8912301EEF600B24FE600E94
:103CB6000470F07F7980027F1F123F5B80E5123F20
:103CC6009D80E0D28ED2AFE4FF123E4C0F123AFA3C
:083CD600123F8912343580F819
:103CDE0075BD5490FEA074FFF0758E5090FE9174D9
:103CEE0002F0A37410F090FF02E054F04402F09042
:103CFE00FE80E4F0F589758DF5758B96D2ABC28E8C
:043D0E0053BBF7228A
:0C3F7D0090FF08E04488F0D290D291221E
:103F5B005398EF8F99E59830E1FB5398FD439810F8
:013F6B002233
:063EC0008B448A4589468F
:103EC600E4FEEEC39D5015AB44AA45A9468E827505
:0C3ED600830012339FFF123F5B0E80E65A
:013EE20022BD
:103F6C00E59830E00A5398FEE5991233CCD322C37E
:013F7C002222
:103D44008B298A2A892B8F2F8E2E8D2D8C2C43BD67
:103D540010782C74FF123407E4FBFAF9F8C3123319
:103D6400F4500CAB29AA2AA92B123F6C50E322C3AE
:013D7400222C
:103DD1000704010002132191060401021321910A33
:103DE10048433839533030334634FF000000000077
:0A3DF10000000000000000000000C8
:0A3F4B00040A000000000208000054
:1036D400AB21E5232402F9E43522FA7E00E925240E
:1036E400F9EE3AFA7F807E1A7D067C00229000086B
:1036F400AA22A92302339FAB21AA22A92302339F22
:10370400AB21AA22A92390000412339FFE90000546
:1037140012339FFDEDFF2274172DF582E43400F57A
:1037240083E0FF74292DF8A60774292DF8E6FF33EA
:1037340095E0FEEF2509F509EE3508F5080D22FFA1
:103744007E002401FDEE33FCE92FF9EE3AFAE92478
:1037540009F9E43A8B2CF52D892ED20022AB21AA4B
:1037640022A92302339FFFEE4CFCEF4DFDE04CFEFB
:10377400EDFFA3E0FDEF4DFF22AB21E5232408F983
:10378400E4352222E4FEFDFCAB0DAA0CA90BA80A29
:10379400C30233F4AB21AA22A92322F582E4340024
:1037A400F58322C39000F5E0953AFF9000F4E0958C
:1037B4003922E475F0010234259000E7E0FB900023
:0C37C400EAE0F54322E92409F9E43A2286
:103A0A007F01123FBA7F1E1237884003123F9D2062
:103A1A0084F3E4FF123FBA7F01123E4C75CC06755F
:103A2A00CEFF75CDF8759E027598107F79123F5BAF
:103A3A007B007D007C00123A854003123F9DE52100
:103A4A00647F6003123F9D7F1F123F5BE4F521FBF9
:103A5A00FDFC123A854003123F9DE521647F600315
:103A6A00123F9D90FEA474C1F0A37414F075BBA21A
:0B3A7A0090FEA774FFF07F1F023F5B6F
:0C3A85007A0079217FA07E0F123D4422C0
:06301E008B218A228923A8
:103024001236E8123D4440037F0222AB21E52324FB
:1030340001F9E435221236E7123D4440037F0222AF
:10304400AB219000011236F4F4FF123386FE6F6058
:10305400037F0022EE14603814604E24EF700302E4
:1030640030F324F2700302314F249070030232676C
:10307400249160030232727F79123F5B7F07123F13
:103084005B7A3D79D27D071232757A3D79D18047DA
:103094007F79123F5B7F06123F5B7A3D79DA7D06CA
:1030A4001232757A3D79D9802E7F79123F5B123EB8
:1030B4009C40037F00227F0A123F5B7BFF7A3D79AD
:1030C400E17D0A123EC085212C85222D85232EC246
:1030D400007BFF7A3D79E00D7C00123BB18E258F99
:1030E40026E525FF123F5BAF26123F5B7F01227F5F
:1030F40079123F5BE4F5241236D4123D4440037F39
:1031040002220524E524C3940240ECAB21AA22A99F
:103114002390000212339FF4702E90000312339F09
:1031240070267DFF7C2FFFFE123E74EF70037F013B
:10313400221236E8123E2440037F0022123D75EF2E
:1031440060037F01227F00227F00227F79123F5B90
:10315400E4F5241236D4123D4440037F02220524B0
:10316400E524C3940640ECAB21E5232402F9E435BD
:1031740022FAC003C002C001E5232406F9E4352283
:10318400123758D001D002D0037D047C001232885B
:1031940060037F00227F79123F5B12377D1236E78E
:1031A400123D4440037F0222E4F524AB211236F1A0
:1031B4002402FFE433FEC3E5249FEE6480F87480A8
:1031C4009850121237C91236DE123D4440037F0272
:1031D40022052480D612377DFAC003C002C0011232
:1031E40036F1123743D001D002D003123288600383
:1031F4007F00221236E8123E2440037F0022759499
:103204000FE4F5951237041237C9FAC002C001124F
:1032140036F1754600F547D001D002123C4B123707
:10322400041237C9FAC002C0011236F1752C00F538
:103234002DD001D002123D1212377DFAC003C00214
:10324400C0011236F1123743D001D002D003123B31
:10325400B1EF64014E6009123704123DA67F0022CB
:103264007F01227F79123F5B123F9D7F01227F0005
:10327400227BFF123EC085212C85222D85232EC260
:0C328400007BFF22123BB1EF64014E22E0
:103BB1008B278A28892990FEA27401F0ED1DAE049D
:103BC10070011C4E600C78271237B6123386F5BE91
:103BD10080EA300023E5BFFFAB2CAA2DA92E1233BA
:103BE10086B5071090000112339FAEBEB506057E63
:0D3BF100007F0122E4FEFF22AFBEAEBF2226
:103E24008F2A8E298D288C2743BD10782774FF1282
:103E34003407E4FBFAF9F8C31233F4500953BBF71F
:083E4400E5BB20E3E622C322E6
:03301B00023A91E5
:103A9100C0E0C0F0C083C082C0D075D000C000C0FB
:103AA10001C002C003C004C005C006C007AF0DAE0F
:103AB1000CAD0BAC0AEF2401FFE43EFEE43DFDE456
:103AC1003C8F0D8E0C8D0BF50A7F64123788400EEA
:103AD100750D00750C00750B00750A00B290D007CA
:103AE100D006D005D004D003D002D001D000D0D070
:093AF100D082D083D0F0D0E03285
:063435008B218A2289238D
:10343B00E4F5287F807E1A7D06FC123D4440037F15
:10344B000222123798123386645560030235BCE9A9
:10345B002401F9E41236E6123D4440037F02229028
:10346B0000011236FB64AA60030235B9E92402F9A4
:10347B00E41236E6123D4440037F02229000021212
:10348B003761640260030235B6E92403F9E41236AE
:10349B00E6123D4440037F022290000312376190F5
:1034AB0000E7F0E92404F9E41236E6123D44400348
:1034BB007F02229000041236FB9000EAF0E924050B
:1034CB00F9E41236E6123D4440037F02221237988C
:1034DB0090000512339FF524E92406F9E41236E631
:1034EB00123D4440037F022212379890000612339C
:1034FB009FF526E92407F9E41236E6123D44400312
:10350B007F022212379890000712339FF525E4F5BE
:10351B0027E527C39525501FAB21E5232408F9E4A4
:10352B003522FA7E00E925271236E4123D4440038A
:10353B007F0222052780DAAB217E00E5232525F9C2
:10354B00EE3522FAE92408F9E41236E6123D44403E
:10355B00037F0222123798E5252408FDE433FC1281
:10356B003DFB8F2874082525F582E433F58312364D
:10357B00FB65287033E52424F46010146013146089
:10358B001E24037020123F057F01221237D07F01CA
:10359B00221235BFEF70057F01123AFA7F0122121A
:1035AB003F937F01227F00227F00227F00227F003A
:0335BB00227F006C
:0135BE0022EA
:033017007F002215
:103E4C0090FF10E054F04408F090FFA07420F0A311
:103E5C007404F0EF6401600F75CC0675CEFF75CD60
:083E6C0030759E0275981022CA
:0A3DFB008B448A4589468C478D48A9
:103E0500E4FFFDFCC3ED9548EC954750117844124D
:0E3E150037B61233862FFF0DBD00010C80E67C
:013E2300227C
:103F0500E4F529F52A123FC9AD07AF2AAE291230CB
:103F1500038E298F2A1237BDAD2AAC297F0B023BB0
:013F25005843
:033FC9007F412213
:1037D000E4FFF529F52AF52BF52C74092FF582E481
:1037E0003400F583E0FE74EB2F12379FEEF00FBF2D
:1037F00008E8900011E09000F3F0900013E07E00E4
:103800007810C333CE33CED8F9FDAC06900012E069
:103810007E007818C333CE33CED8F9900014123717
:103820006A9000F4EEF0A3EFF0900017E07E0078CD
:1038300010C333CE33CED8F9FDAC06900016E07E2F
:10384000007818C333CE33CED8F990001812376AF7
:103850009000F8EEF0A3EFF0123FC99000F3E0D330
:103860009F4019D39000F5E094009000F4E094009C
:10387000400AE4F529F52A123D7580067529007580
:103880002A01AD2AAF2CAE2B1230038E2B8F2CE4E5
:103890009000F6F0A3F01237BDAD2CAC2B7F0C02DC
:0238A0003B5893
:093F9300900009E07003123F9D4B
:013F9C002202
:1035BF0078297C007D007BFF7A3D79EB7E007F10C0
:1035CF00123360E4FD900009E0B401037F0022EDA7
:1035DF00C39408501C740A2DF582E43400F583E07F
:1035EF00FF74EB2D12379FE06F60037F00220D8079
:1035FF00DE900012E0FF9000F3E06F60037F002287
:10360F00E4FD74132DF582E43400F583E0FF7E00B2
:10361F00ED75F008A4FCC374189CFCEFA804088097
:10362F0005C333CE33CED8F9423AEE42390DBD043D
:10363F00D1E4FD9000F6E065397004A3E0653A60CF
:10364F00030236D11237A7C4F854F0C868FEEFC48E
:10365F00540F484E6017EDC39410500512371B805E
:10366F00F59000F6E475F0101233DE8042E4FD129F
:10367F0037A7FEEDC39FE49E500512371B80F090D5
:10368F0000F8E065087004A3E0650960037F00227D
:10369F007B007A0079299000F4A3E0C3953AF540B6
:1036AF00AF3AAE39123FB1E4FF123AFA7F01227BF3
:1036BF00007A007929754010AF3AAE39123FB17FC9
:0436CF0001227F0055
:0136D30022D4
:1038A200E4FDFCF50EF50F9000F4E0FEA3E0FFC38B
:1038B2009000F7E09F9000F6E09E4001229000F613
:1038C200E0FEA3E0FFC39000F5E09FFB9000F4E070
:1038D2009EFAC4F854F0C868FEEBC4540F484E6018
:1038E20005750F108005EB540FF50FE50EC3940814
:1038F2005012AF05AE0474EB250E12379F123966D3
:10390200050E80E7AF05AE049000F3123966E4F5C8
:103912000EAF05AE04C006C007E50E75F008A4FFA1
:10392200C374189FFF9000F6E0FEA3E0A80708808A
:1039320005CEC313CE13D8F9FDD007D0061230033B
:10394200AC06AD07050EE50EC3940440C4AF05AE48
:1039520004AD0F123003AC06AD07E4F543FB7F0D57
:03396200123B58BD
:0B39650022E0FD123003AC06AD07228B
:023AFA008F3B00
:103AFC00E4F53CF53DF53EE53BB4010D7B017A0068
:103B0C0079EB7D0F7C00123F26AD3BAF3DAE3C12F6
:103B1C0030038E3C8F3DE53EC39408500E74EB256C
:103B2C003E12379F123B4A053E80EB9000F3123B4E
:0E3B3C004AE4F543FBAD3DAC3C7F0E023B5826
:0E3B4A00E0FDAF3DAE3C1230038E3C8F3D22BD
:093FB100754600854047023C4BB7
:103F26008B3F8A408941ED1DAE0470011C4E600B2B
:0B3F3600783F1237B6E41233CC80EB6A
:013F4100225D
:043B58008C408D41CF
:103B5C009000C97455F0A374AAF0A37402F0A3EBFF
:103B6C00F0A3E543F0A3EFF0E540A3F0E541A3F0AB
:103B7C002409F541E43540F5407B017A0079C9E52B
:103B8C004124FFFDE54034FFFC123DFB74C8254188
:103B9C00F58274003540F583EFF07B017A0079C92A
:053BAC00AD41023EC026
:1030030074D12FF974003EFA7B01ED1233CC0FBF5C
:0330130000010EAB
:013016002297
:083FBA00EF24FF928E92AF226A
:053F55004200FA00002B
:073FC20075FDF075FC0F22F4
:103E7400E4F533F53443BD10ED1DAA0470011C4A6A
:103E840060130FEFAA0670010E14F5828A83E4937F
:073E940060E67F01227F00C0
:013E9B002204
:103DA600AD07AC06E4FF123FBAC3EC9430501B7566
:103DB600FDF075FC0F8CFA8DF975FDD275FC2D752D
:0B3DC600FDE175FC1E7F01123FBA22D8
:083BFE008E2D8F2E8C2F8D30CF
:103C060043BD10E4F531F532D3E5329530E5319513
:103C16002F5031C3E52D9430502A7D807C00AF2E85
:103C2600AE2D123E74EF6007AF2EAE2D123DA67478
:103C360080252EF52EE4352DF52D0532E53270C89A
:043C4600053180C400
:013C4A002257
:103D75007D207C00E4FFFE123D9C7E10123D9C7E62
:103D850020123BFE7DFF7C2FE4FFFE123E74EF60A8
:103D9500037F00227F0122123BFE7D207C007F00F5
:013DA50022FB
:103EE300AB07AA06E4FF123FBA8DFB123FC28AFA60
:103EF3008BF975FDB475FC4B75FDE175FC1E0F0266
:023F03003FBAC3
:0A3C4B008E418F428B438A44894565
:103C5500E4F548F549C3E5499547E54895465030AB
:103C6500C3E54194305029AB43AA44A9458549820F
:103C750085488312339FFDAF42AE41123EE30542B4
:103C8500E542700205410549E54970C9054880C509
:013C9500220C
:103D12008B298A2A892BE52D152DAC2C7002152CA6
:103D22004C601E0FEFAC0670010E14F5828C83E41A
:103D320093FD7829E475F001123425ED1233CC801D
:023D4200D52288
:0A3F9D00123FC275FD8775FC782203
:0A3FA700123FC275FD7875FC8722F9
:103E9C0075A2107B017A0079FA752C00752D017FC3
:103EAC00207E01123D12E4F5A29000FAE0B4080263
:043EBC00D322C32228
:10398A00023C96E493A3F8E493A34003F68001F281
:10399A0008DFF48029E493A3F85407240CC8C3333E
:1039AA00C4540F4420C8834004F456800146F6DF0D
:1039BA00E4800B0102040810204080903F42E47E1C
:1039CA00019360BCA3FF543F30E509541FFEE49302
:1039DA00A360010ECF54C025E060A840B8E493A3C9
:1039EA00FAE493A3F8E493A3C8C582C8CAC583CAF4
:1039FA00F0A3C8C582C8CAC583CADFE9DEE780BEAC
:013F5A000066
:10329000E709F608DFFA8046E709F208DFFA803E20
:1032A00088828C83E709F0A3DFFA8032E309F6080D
:1032B000DFFA8078E309F208DFFA807088828C8375
:1032C000E309F0A3DFFA806489828A83E0A3F60829
:1032D000DFFA805889828A83E0A3F208DFFA804C03
:1032E00080D280FA80C680D4806980F280338010DA
:1032F00080A680EA809A80A880DA80E280CA803343
:1033000089828A83ECFAE493A3C8C582C8CCC583BA
:10331000CCF0A3C8C582C8CCC583CCDFE9DEE7808A
:103320000D89828A83E493A3F608DFF9ECFAA9F009
:10333000EDFB2289828A83ECFAE0A3C8C582C8CC5F
:10334000C583CCF0A3C8C582C8CCC583CCDFEADE78
:10335000E880DB89828A83E493A3F208DFF980CCDA
:1033600088F0EF60010E4E60C388F0ED2402B404D3
:103370000050B9F582EB2402B4040050AF2323457A
:0633800082239032E0738D
:10338600BB010689828A83E0225002E722BBFE0245
:09339600E32289828A83E4932278
:10339F00BB010CE58229F582E5833AF583E02250E3
:1033AF0006E92582F8E622BBFE06E92582F8E2222D
:0D33BF00E58229F582E5833AF583E4932247
:1033CC00BB010689828A83F0225002F722BBFE01E0
:0233DC00F322DA
:1033DE00C5F0F8A3E028F0C5F0F8E582158270027A
:0633EE001583E038F02217
:1033F400EB9FF5F0EA9E42F0E99D42F0E89C45F02F
:0134040022A5
:103405007401FF3395E0FEFDFC080808E6CF2FF6B2
:1034150018E6CE3EF618E6CD3DF618E6CC3CF6228B
:10342500FAE6FB0808E6F925F0F618E6CA3AF622A8
:00000001FF
