:03300000023994FE
:10399400787FE4F6D8FD9000007FFF7E01E4F0A379
:0A39A400DFFCDEFA7581490239E903
:093EB800410000004200E8000096
:0A3EFC0043BD107B017A007901221A
:103C5D00123C98123F37900000EFF07023123A2E6D
:103C6D00123EFC12301EEF600B24FE600E0470F04D
:103C7D007F7980027F1F123ECA80E5123F1080E0DF
:0B3C8D00123EEC123EFC12343580F8B1
:103C980075BD5490FEA074FFF0758E5090FE91741F
:103CA80002F0A37410F090FF02E054F04402F09088
:103CB800FE80E4F0F589758DF5758B96D2ABC28ED2
:043CC80053BBF722D1
:103ECA005398EF8F99E59830E1FB5398FD4398108A
:013EDA0022C5
:063E27008B448A45894628
:103E2D00E4FEEEC39D5015AB44AA45A9468E82759E
:0C3E3D00830012339FFF123ECA0E80E685
:013E49002256
:103EDB00E59830E00A5398FEE5991233CCD322C310
:013EEB0022B4
:103CFE008B298A2A892B8F2F8E2E8D2D8C2C43BDAE
:103D0E0010782C74FF123407E4FBFAF9F8C312335F
:103D1E00F4500CAB29AA2AA92B123EDB50E322C386
:013D2E002272
:103D60000704010002132191060401021321910AA4
:103D700048433839533030334634FF0000000000E8
:0A3D80000000000000000000000039
:033EC100010A00F3
:10371200AB21E5232402F9E43522FA7E00E92524CF
:10372200F9EE3AFA7F807E1A7D067C00229000082C
:10373200AA22A92302339FAB21AA22A92302339FE3
:10374200AB21AA22A92390000412339FFE90000508
:1037520012339FFDEDFF22FF7E002401FDEE33FCBC
:10376200E92FF9EE3AFAE92409F9E43A8B2CF52D1E
:10377200892ED20022AB21AA22A92302339F7417D9
:103782002DF582E43400F583E0FF74292DF8A607B5
:103792000D22FFEE4CFCEF4DFDE04CFEEDFFA3E0F1
:1037A200FDEF4DFF22AB21E5232408F9E435222267
:1037B200AB21AA22A92322F582E43400F58322C395
:1037C2009000F5E0953AFF9000F4E0953922E47517
:1037D200F0010234259000E7E0FB9000EAE0F543B7
:1037E20022E92409F9E43A222DF8E6FF3395E0FEB6
:0237F200EF22C4
:103A2E00D28ED2AFE50AC3941E4003123F102084FB
:103A3E00F3C28EC2AF90FF10E054F04408F090FF36
:103A4E00A07420F0A37404F075CC0675CEFF75CD6E
:103A5E00F8759E027598107F79123ECA7B007D0024
:103A6E007C00123AB54003123F10E521647F6003DB
:103A7E00123F107F1F123ECAE4F521FBFDFC123AE5
:103A8E00B54003123F10E521647F6003123F109092
:103A9E00FEA474C1F0A37414F075BBA290FEA774BB
:073AAE00FFF07F1F023ECA7A
:0C3AB5007A0079217FA07E0F123CFE22D7
:06301E008B218A228923A8
:10302400123726123CFE40037F0222AB21E5232403
:1030340001F9E43522123725123CFE40037F0222B7
:10304400AB21900001123732F4FF123386FE6F6019
:10305400037F0022EE14603814604E24EF700302E4
:1030640030F324F2700302314F249070030232676C
:10307400249160030232727F79123ECA7F07123EA6
:10308400CA7A3D79617D071232757A3D796080474D
:103094007F79123ECA7F06123ECA7A3D79697D065F
:1030A4001232757A3D7968802E7F79123ECA123EBB
:1030B4000340037F00227F0A123ECA7BFF7A3D79D8
:1030C400707D0A123E2785212C85222D85232EC250
:1030D400007BFF7A3D796F0D7C00123B788E258F43
:1030E40026E525FF123ECAAF26123ECA7F01227F83
:1030F40079123ECAE4F524123712123CFE40037FD3
:1031040002220524E524C3940240ECAB21AA22A99F
:103114002390000212339FF4702E90000312339F09
:1031240070267DFF7C2FFFFE123DDBEF70037F01D5
:1031340022123726123DB340037F0022123D2FEFA7
:1031440060037F01227F00227F00227F79123ECA22
:10315400E4F524123712123CFE40037F02220524B8
:10316400E524C3940640ECAB21E5232402F9E435BD
:1031740022FAC003C002C001E5232406F9E4352283
:1031840012376ED001D002D0037D047C0012328845
:1031940060037F00227F79123ECA1237A7123725B7
:1031A400123CFE40037F0222E4F524AB2112372FA8
:1031B4002402FFE433FEC3E5249FEE6480F87480A8
:1031C4009850121237E312371C123CFE40037F0260
:1031D40022052480D61237A7FAC003C002C0011208
:1031E400372F123759D001D002D00312328860032E
:1031F4007F0022123726123DB340037F00227594CC
:103204000FE4F5951237421237E3FAC002C00112F7
:10321400372F754600F547D001D002123C12123701
:10322400421237E3FAC002C00112372F752C00F5A1
:103234002DD001D002123CCC1237A7FAC003C00231
:10324400C00112372F123759D001D002D003123BDC
:1032540078EF64014E6009123742123E6B7F002200
:103264007F01227F79123ECA123F107F01227F0024
:10327400227BFF123E2785212C85222D85232EC2F9
:0C328400007BFF22123B78EF64014E2219
:103B78008B278A28892990FEA27401F0ED1DAE04D6
:103B880070011C4E600C78271237D0123386F5BEB0
:103B980080EA300023E5BFFFAB2CAA2DA92E1233F3
:103BA80086B5071090000112339FAEBEB506057E9C
:0D3BB800007F0122E4FEFF22AFBEAEBF225F
:103DB3008F2A8E298D288C2743BD10782774FF12F4
:103DC3003407E4FBFAF9F8C31233F4500953BBF791
:083DD300E5BB20E3E622C32258
:03301B00023F343D
:033F3400050A3249
:063435008B218A2289238D
:10343B00E4F5287F807E1A7D06FC123CFE40037F5C
:10344B0002221237B2123386645560030235BCE98F
:10345B002401F9E4123724123CFE40037F02229030
:10346B00000112373964AA60030235B9E92402F965
:10347B00E4123724123CFE40037F0222900002121A
:10348B003777640260030235B6E92403F9E4123797
:10349B0024123CFE40037F022290000312377790E8
:1034AB0000E7F0E92404F9E4123724123CFE400350
:1034BB007F02229000041237399000EAF0E92405CC
:1034CB00F9E4123724123CFE40037F02221237B27A
:1034DB0090000512339FF524E92406F9E4123724F2
:1034EB00123CFE40037F02221237B29000061233C9
:1034FB009FF526E92407F9E4123724123CFE40031A
:10350B007F02221237B290000712339FF525E4F5A4
:10351B0027E527C39525501FAB21E5232408F9E4A4
:10352B003522FA7E00E92527123722123CFE400392
:10353B007F0222052780DAAB217E00E5232525F9C2
:10354B00EE3522FAE92408F9E4123724123CFE4046
:10355B00037F02221237B2E5252408FDE433FC1267
:10356B003D8A8F2874082525F582E433F5831237BD
:10357B003965287033E52424F4601014601314604B
:10358B001E24037020123E4A7F01221237F47F0162
:10359B00221235BFEF70057F01123AC17F01221253
:1035AB003F067F01227F00227F00227F00227F00C7
:0335BB00227F006C
:0135BE0022EA
:033F37007F0022E6
:103EEC0075CC0675CEFF75CD30759E027598102277
:0A3D8A008B448A4589468C478D481A
:103D9400E4FFFDFCC3ED9548EC95475011784412BF
:0E3DA40037D01233862FFF0DBD00010C80E6D4
:013DB20022EE
:103E4A00E4F529F52A123F3AAD07AF2AAE29123E08
:103E5A00A48E298F2A1237D7AD2AAC297F0B023BB1
:013E6A001F38
:033F3A007F4122A2
:1037F400E4FFF529F52AF52BF52C74092FF582E45D
:103804003400F583E0FE74EB2F1237B9EEF00FBFEE
:1038140008E8900011E09000F3F0900013E07E00BF
:103824007810C333CE33CED8F9FDAC06900012E045
:103834007E007818C333CE33CED8F99000141237F3
:10384400949000F4EEF0A3EFF0900017E07E00787F
:1038540010C333CE33CED8F9FDAC06900016E07E0B
:10386400007818C333CE33CED8F9900018123794A9
:103874009000F8EEF0A3EFF0123F3A9000F3E0D39B
:103884009F4019D39000F5E094009000F4E0940078
:10389400400AE4F529F52A123D2F800675290075A2
:1038A4002A01AD2AAF2CAE2B123EA48E2B8F2CE412
:1038B4009000F6F0A3F01237D7AD2CAC2B7F0C029E
:0238C4003B1FA8
:093F0600900009E07003123F1065
:013F0F00228F
:1035BF0078297C007D007BFF7A3D797A7E007F1031
:1035CF00123360E4FD900009E0B401037F0022EDA7
:1035DF00C39408501C740A2DF582E43400F583E07F
:1035EF00FF74EB2D1237B9E06F60037F00220D805F
:1035FF00DE900012E0FF9000F3E06F60037F002287
:10360F00E4FD74132DF582E43400F583E0FF7E00B2
:10361F00ED75F008A4FCC374189CFCEFA804088097
:10362F0005C333CE33CED8F9423AEE42390DBD043D
:10363F00D1E4FD9000F6E065397004A3E0653A60CF
:10364F000302370F1237C1C4F854F0C868FEEFC435
:10365F00540F484E6018EDC39410500512378080F8
:10366F00F59000F6E475F0101233DE0236FCE4FD3F
:10367F001237C1FEEDC39FE49E500512378080F0D4
:10368F0074261237EA7810C333CE33CED8F9FBAA9B
:10369F000674251237EA7818C333CE33CED8F9FF24
:1036AF00EE4AFAEF4BFB74272DF8E6FFEF4AFEEBDD
:1036BF00FF74282DF8E6FD3395E04EFEEF4DFF9099
:1036CF0000F8E06E7003A3E06F60037F00227B00C1
:1036DF007A0079299000F4A3E0C3953AF540AF3A08
:1036EF00AE39123F24E4FF123AC17F01227B007AE8
:1036FF00007929754010AF3AAE39123F247F01226D
:02370F007F0039
:013711002295
:1038C600E4FDFCF508F5099000F4E0FEA3E0FFC373
:1038D6009000F7E09F9000F6E09E4001229000F6EF
:1038E600E0FEA3E0FFC39000F5E09FFB9000F4E04C
:1038F6009EFAC4F854F0C868FEEBC4540F484E60F4
:10390600057509108005EB540FF509E508C3940801
:103916005012AF05AE0474EB25081237B912398A76
:10392600050880E7AF05AE049000F312398AE4F586
:1039360008AF05AE04C006C007E50875F008A4FF89
:10394600C374189FFF9000F6E0FEA3E0A807088066
:1039560005CEC313CE13D8F9FDD007D006123EA468
:10396600AC06AD070508E508C3940440C4AF05AE30
:1039760004AD09123EA4AC06AD07E4F543FB7F0D8A
:03398600123B1FD2
:0B39890022E0FD123EA4AC06AD0722B8
:023AC1008F3B39
:103AC300E4F53CF53DF53EE53BB4010D7B017A00A1
:103AD30079EB7D0F7C00123E88AD3BAF3DAE3C12CF
:103AE3003EA48E3C8F3DE53EC39408500E74EB25F7
:103AF3003E1237B9123B11053E80EB9000F3123BA7
:0E3B030011E4F543FBAD3DAC3C7F0E023B1FD1
:0E3B1100E0FDAF3DAE3C123EA48E3C8F3D2247
:093F2400754600854047023C127D
:103E88008B3F8A408941ED1DAE0470011C4E600BCA
:0B3E9800783F1237D0E41233CC80EBEF
:013EA30022FC
:043B1F008C408D4108
:103B23009000C97455F0A374AAF0A37402F0A3EB38
:103B3300F0A3E543F0A3EFF0E540A3F0E541A3F0E4
:103B43002409F541E43540F5407B017A0079C9E564
:103B53004124FFFDE54034FFFC123D8A74C8254132
:103B6300F58274003540F583EFF07B017A0079C963
:053B7300AD41023E27F8
:103EA40074D12FF974003EFA7B01ED1233CC0FBFAD
:033EB40000010EFC
:013EB70022E8
:053EC4004200FA0000BD
:073F2D0075FDF075FC0F2289
:103DDB00E4F533F53443BD10ED1DAA0470011C4A04
:103DEB0060130FEFAA0670010E14F5828A83E49319
:073DFB0060E67F01227F005A
:013E0200229D
:103E6B00C3EE9430501675FDF075FC0F8EFA8FF97A
:0D3E7B0075FDD275FC2D75FDE175FC1E2254
:083BC5008E2D8F2E8C2F8D3008
:103BCD0043BD10E4F531F532D3E5329530E531954D
:103BDD002F5031C3E52D9430502A7D807C00AF2EBF
:103BED00AE2D123DDBEF6007AF2EAE2D123E6B7486
:103BFD0080252EF52EE4352DF52D0532E53270C8D4
:043C0D00053180C439
:013C11002290
:103D2F007D207C00E4FFFE123D567E10123D567E34
:103D3F0020123BC57DFF7C2FE4FFFE123DDBEF60C1
:103D4F00037F00227F0122123BC57D207C007F0074
:013D5F002241
:103003008DFB123F2D8EFA8FF975FDB475FC4B7550
:06301300FDE175FC1E2228
:0A3C12008E418F428B438A4489459E
:103C1C00E4F548F549C3E5499547E54895465030E4
:103C2C00C3E54194305029AB43AA44A94585498248
:103C3C0085488312339FFDAF42AE411230030542DB
:103C4C00E542700205410549E54970C9054880C542
:013C5C002245
:103CCC008B298A2A892BE52D152DAC2C7002152CED
:103CDC004C601E0FEFAC0670010E14F5828C83E461
:103CEC0093FD7829E475F001123425ED1233CC8064
:023CFC00D522CF
:0A3F1000123F2D75FD8775FC782225
:0A3F1A00123F2D75FD7875FC87221B
:103E030075A2107B017A0079FA752C00752D017F5C
:103E1300207E01123CCCE4F5A29000FAE0B4080243
:043E2300D322C322C1
:1039AE00023C5DE493A3F8E493A34003F68001F296
:1039BE0008DFF48029E493A3F85407240CC8C3331A
:1039CE00C4540F4420C8834004F456800146F6DFE9
:1039DE00E4800B0102040810204080903EB8E47E83
:1039EE00019360BCA3FF543F30E509541FFEE493DE
:1039FE00A360010ECF54C025E060A840B8E493A3A5
:103A0E00FAE493A3F8E493A3C8C582C8CAC583CACF
:103A1E00F0A3C8C582C8CAC583CADFE9DEE780BE87
:013EC90000F8
:10329000E709F608DFFA8046E709F208DFFA803E20
:1032A00088828C83E709F0A3DFFA8032E309F6080D
:1032B000DFFA8078E309F208DFFA807088828C8375
:1032C000E309F0A3DFFA806489828A83E0A3F60829
:1032D000DFFA805889828A83E0A3F208DFFA804C03
:1032E00080D280FA80C680D4806980F280338010DA
:1032F00080A680EA809A80A880DA80E280CA803343
:1033000089828A83ECFAE493A3C8C582C8CCC583BA
:10331000CCF0A3C8C582C8CCC583CCDFE9DEE7808A
:103320000D89828A83E493A3F608DFF9ECFAA9F009
:10333000EDFB2289828A83ECFAE0A3C8C582C8CC5F
:10334000C583CCF0A3C8C582C8CCC583CCDFEADE78
:10335000E880DB89828A83E493A3F208DFF980CCDA
:1033600088F0EF60010E4E60C388F0ED2402B404D3
:103370000050B9F582EB2402B4040050AF2323457A
:0633800082239032E0738D
:10338600BB010689828A83E0225002E722BBFE0245
:09339600E32289828A83E4932278
:10339F00BB010CE58229F582E5833AF583E02250E3
:1033AF0006E92582F8E622BBFE06E92582F8E2222D
:0D33BF00E58229F582E5833AF583E4932247
:1033CC00BB010689828A83F0225002F722BBFE01E0
:0233DC00F322DA
:1033DE00C5F0F8A3E028F0C5F0F8E582158270027A
:0633EE001583E038F02217
:1033F400EB9FF5F0EA9E42F0E99D42F0E89C45F02F
:0134040022A5
:103405007401FF3395E0FEFDFC080808E6CF2FF6B2
:1034150018E6CE3EF618E6CD3DF618E6CC3CF6228B
:10342500FAE6FB0808E6F925F0F618E6CA3AF622A8
:00000001FF
