:033000000236266F
:10362600787FE4F6D8FD9000007FFF7E01E4F0A3EA
:0A363600DFFCDEFA75814D02367BE1
:093AF000410000004200E8000062
:1038D2001239B8123C53123BE6900000EFF07543E8
:1038E2000075446470051236C0802F7F01123C724D
:1038F2007D307FFF123B8543BD107B017A00790149
:1039020012301EEF24FE600280EDC3E546954DE5C0
:0E39120045954C50E212357980DDE4FEFF222F
:1039B800758E5090FE917402F0A37410F075BD5F7F
:1039C80090FEA074FFF090FF02E054F04402F090E3
:1039D800FE80E4F0F589758DF5758B96D2ABC28EB5
:0D39E80075BBAA90FEA774FFF053BBF72239
:0C3C530090FF08E04488F0D290D291224B
:103C13005398EF8F99E59830E1FB5398FD43981043
:013C2300227E
:063B40008B398A3A893B33
:103B4600E4FEEEC39D5015AB39AA3AA93B8E8275A9
:0C3B560083001232DBFF123C130E80E6ED
:013B62002240
:103C2400E59830E00A5398FEE599123308D322C38D
:013C3400226D
:103A61008B108A1189128F168E158D148C1343BDFC
:103A710010781374FF123343E4FBFAF9F8C31233DD
:103A810030500CAB10AA11A912123C2450E322C3EE
:013A91002212
:1039F5000704010002132191060401021321910A13
:103A05004843383953303033463400000000000055
:103A150000000000000000000000000000000000A1
:0A3A25000000000000000000000097
:103AF90004480000000002410000024C0000024599
:093B090000000147000243000026
:10373900AB08AA09A90A0232DB74172DF582E43411
:1037490000F583E0FF74102DF8A60774102DF8E634
:103759002542F542E43541F5410D22AB08AA09A9F4
:103769000A0232DBFFEE4CFCEF4DFDE04CFEEDFFB3
:10377900A3E0FDEF4DFF22AB08AA09A90A22F582B1
:10378900E43400F58322AB4BAA4AA949A848C302ED
:1037990033309000E7E0FB9000EAE0F53822C3E51A
:0837A90046954DE545954C22C3
:1036C0007F01123C72E47F1EFEFDFC12378F400327
:1036D000123C5F2084EF7DF87FFF123B857F7912DB
:1036E0003C137B007D007C0012372D4003123C5FB1
:1036F000E508647F6003123C5F7F1F123C13E4F512
:1037000008FBFDFC12372D4003123C5FE508647F87
:103710006003123C5F90FEA474C1F0A37414F075B2
:0D372000BBA290FEA774FFF07F1F023C13B8
:0C372D007A0079087FA07E0F123A61221A
:03301B000237B1C8
:1037B100C0E0C0F0C083C082C0D075D000C000C0DE
:1037C10001C002C003C004C005C006C007AF4BAEB4
:1037D1004AAD49AC48EF2401FFE43EFEE43DFDE47F
:1037E1003C8F4B8E4A8D49F548AE43AF44E4FCFD16
:1037F10012378F400E754B00754A007549007548A8
:1038010000B290D007D006D005D004D003D002D0AA
:0E38110001D000D0D0D082D083D0F0D0E032F1
:06301E008B088A09890AF3
:10302400E4F50FFC1231C240037F022212378012F2
:1030340032C26455600302317FE9240112318240B7
:10304400037F022290000112373964AA600302311F
:103054007CE9240212318240037F02229000021292
:10306400373964026003023179E924031231924052
:10307400037F02229000031237649000E7F0E924F2
:103084000412319240037F022290000412376490AC
:1030940000EAF0E924051231A240037F022212372C
:1030A400809000051232DBF50BE924061231A240B0
:1030B400037F02221237809000061232DBF50DE9FD
:1030C40024071231B240037F022212378090000796
:1030D4001232DBF50CE4F50EE50EC3950C5022AB71
:1030E40008E50A2408F9E43509FA7E00E9250EF911
:1030F400EE3AFA7C001231C240037F0222050E80B0
:10310400D7AB087E00E50A250CF9EE3509FAE92467
:10311400081231B240037F0222123780E50C2408E2
:10312400FDE433FC123AC38F0F7408250CF582E4D6
:1031340033F583123739650F7038E50B24F46010CA
:10314400146013146023240370251230037F0122BA
:103154001233717F012212347AEF70077F01123823
:103164001F80031235797F0122123C457F01227FA3
:0D31740000227F00227F00227F00227F00CA
:1031810022F9E43AFA7FC07E277D097C00123A6178
:1031910022F9E43AFA7FC07E277D097C00123A6168
:1031A10022F9E43AFA7FC07E277D097C00123A6158
:1031B10022F9E43AFA7FC07E277D097C00123A6148
:0B31C100227FC07E277D09123A6122A8
:103BE600E47B017A0079E8F50D750E027F807E2E62
:083BF600123A2F9000E8E0FFF5
:013BFE0022A4
:103C3500AB077F807E2E123BC6AD037F80023B63C0
:103B850090FF10E054F04408F090FFA07420F0A3DB
:103B95007404F075CC068FCE8DCD759E0275981088
:013BA50022FD
:0A3AC3008B398A3A893B8C3C8D3D1B
:103ACD00E4FFFDFCC3ED953DEC953C50157839E4D4
:103ADD0075F0011233611232C22FFF0DBD00010CC2
:023AED0080E275
:013AEF0022B4
:10300300E4FDFCFFFE123BFFAC06AD0712379B7FCE
:043013000B023879FB
:10337100E4FFF510F511F512F51374092FF582E448
:103381003400F583E0FE74EB2F123787EEF00FBFA8
:1033910008E8900011E09000F3F0900013E07E0047
:1033A1007810C333CE33CED8F9FDAC06900012E0CD
:1033B1007E007818C333CE33CED8F990001412377B
:1033C1006D9000F4EEF0A3EFF0900017E07E00782E
:1033D10010C333CE33CED8F9FDAC06900016E07E93
:1033E100007818C333CE33CED8F990001812376D58
:1033F1009000F8EEF0A3EFF09000F3E0D3940040DA
:103401004FD39000F5E094009000F4E09400404028
:10341100E4F510F5119000F6F0A3F09000F4E0FC53
:10342100A3E0FDAE047805CEC313CE13D8F9F54D54
:103431008E4CED541FF547E4F545F546F541F5424F
:10344100123A927F01123C357543017544F48006AE
:10345100751000751101AD11AF13AE12123BFF8E45
:10346100128F1312379BAD13AC127F0C123879E512
:083471001145107003123579BA
:013479002230
:0D3C4500900009E07007FF123C35123C5F53
:013C5200224F
:10347A0078107C007D007BFF7A3A790F7E007F20EE
:10348A0012329C900009E0B401037F0022E4FD742B
:10349A000A2DF582E43400F583E0FF74EB2D123730
:1034AA0087E06F60037F00220DBD08E3900012E001
:1034BA00FF9000F3E06F60037F0022E4FDF530F532
:1034CA003174132DF582E43400F583E0FF7E00EDBC
:1034DA0075F008A4FCC374189CFCEFA804088005C6
:1034EA00C333CE33CED8F94231EE42300DBD04D1CA
:1034FA009000F6E065307004A3E06531706E123713
:10350A00A7501CE4FD123742BD20FA9000F6E4757C
:10351A00F02012331A0546E546703E0545803AE426
:10352A00FDEDC39547500512374280F59000F8E04B
:10353A0065417004A3E0654260037F00227B007A44
:10354A00007910854737AF31AE30123C69E4F54552
:10355A00F546FF12381F7F01227B007A0079107529
:0E356A003720AF31AE30123C697F01227F0066
:013578002230
:10357900E4FDFCF514F5159000F4E0FEA3E0FFC3AB
:103589009000F7E09F9000F6E09E4001221237A7D5
:1035990050057515208003854715E514C394085017
:1035A90012AF05AE0474EB251412378712361C05C9
:1035B9001480E7AF05AE049000F312361CE4F5144D
:1035C900AF05AE04C006C007E51475F008A4FFC333
:1035D90074189FFF9000F6E0FEA3E0A80708800595
:1035E900CEC313CE13D8F9FDD007D006123BFFACDA
:1035F90006AD070514E514C3940440C4AF05AE0431
:10360900AD15123BFFAC06AD07E4F538FB7F0D1293
:023619003879FE
:0B361B0022E0FD123BFFAC06AD0722D1
:02381F008F32E6
:10382100E4FCF533FFFEAD32123BFFAC06AD07E51C
:1038310033C394085012AF05AE0474EB253312372D
:103841008712386F053380E7AF05AE049000F3129D
:10385100386FE4F538FB7F0E123879E532B4010D8B
:0D3861007B017A0079EB7D0F7C00123BA605
:0B386E0022E0FD123BFFAC06AD07227C
:093C6900753D0085373E02396DFE
:103BA6008B348A358936ED1DAE0470011C4E600FCC
:0F3BB6007834E475F001123361E412330880E7CC
:013BC50022DD
:043879008C358D36C7
:10387D009000C97455F0A374AAF0A37402F0A3EBE1
:10388D00F0A3E538F0A3EFF0E535A3F0E536A3F0AE
:10389D002409F536E43535F5357B017A0079C9E52E
:1038AD003624FFFDE53534FFFC123AC374C82536C6
:1038BD00F58274003535F583EFF07B017A0079C917
:0538CD00AD36023B4096
:103BFF0074D12FF974003EFA7B01ED1233080FBF19
:033C0F0000010EA3
:013C1200228F
:083C7200EF24FF928E92AF22B5
:053B12004200FA000072
:073C7A0075FDF075FC0F223F
:103B1800E4F51AF51B43BD10ED1DAA0470011C4AFB
:103B280060130FEFAA0670010E14F5828A83E493DE
:073B380060E67F01227F001F
:013B3F002263
:083920008E148F158C168D1713
:1039280043BD10E4F518F519D3E5199517E5189571
:10393800165031C3E5149430502A7D807C00AF15B1
:10394800AE14123B18EF6007AF15AE14123BC674E5
:10395800802515F515E43514F5140519E51970C811
:04396800051880C4FA
:01396C002238
:103A92007D207C00E4FFFE123AB97E10123AB97E14
:103AA200201239207DFF7C2FE4FFFE123B18EF60CD
:103AB200037F00227F01221239207D207C007F00BB
:013AC20022E1
:103BC600AD07AC06E4FF123C72123C7A8CFA8DF912
:103BD60075FDD275FC2D75FDE175FC1E0F023C725C
:103B6300AB07AA06E4FF123C728DFB123C7A8AFA79
:103B73008BF975FDB475FC4B75FDE175FC1E0F02E9
:023B83003C7292
:0A396D008E388F398B3A8A3B893C73
:10397700E4F53FF540C3E540953EE53F953D5030C2
:10398700C3E53894305029AB3AAA3BA93C8540821D
:10399700853F831232DBFDAF39AE38123B63053901
:1039A700E539700205380540E54070C9053F80C517
:0139B70022ED
:103A2F008B0A8A0B890CE50E150EAC0D7002150D65
:103A3F004C601E0FEFAC0670010E14F5828C83E400
:103A4F0093FD780AE475F001123361ED12330880AB
:023A5F00D5226E
:0A3C5F00123C7A75FD8775FC78228F
:103640000238D2E493A3F8E493A34003F68001F296
:1036500008DFF48029E493A3F85407240CC8C3338B
:10366000C4540F4420C8834004F456800146F6DF5A
:10367000E4800B0102040810204080903AF0E47EC0
:10368000019360BCA3FF543F30E509541FFEE4934F
:10369000A360010ECF54C025E060A840B8E493A316
:1036A000FAE493A3F8E493A3C8C582C8CAC583CA41
:1036B000F0A3C8C582C8CAC583CADFE9DEE780BEF9
:013B170000AD
:1031CC00E709F608DFFA8046E709F208DFFA803EE5
:1031DC0088828C83E709F0A3DFFA8032E309F608D2
:1031EC00DFFA8078E309F208DFFA807088828C833A
:1031FC00E309F0A3DFFA806489828A83E0A3F608EE
:10320C00DFFA805889828A83E0A3F208DFFA804CC7
:10321C0080D280FA80C680D4806980F2803380109E
:10322C0080A680EA809A80A880DA80E280CA803307
:10323C0089828A83ECFAE493A3C8C582C8CCC5837F
:10324C00CCF0A3C8C582C8CCC583CCDFE9DEE7804F
:10325C000D89828A83E493A3F608DFF9ECFAA9F0CE
:10326C00EDFB2289828A83ECFAE0A3C8C582C8CC24
:10327C00C583CCF0A3C8C582C8CCC583CCDFEADE3D
:10328C00E880DB89828A83E493A3F208DFF980CC9F
:10329C0088F0EF60010E4E60C388F0ED2402B40498
:1032AC000050B9F582EB2402B4040050AF2323453F
:0632BC00822390321C7316
:1032C200BB010689828A83E0225002E722BBFE020A
:0932D200E32289828A83E493223D
:1032DB00BB010CE58229F582E5833AF583E02250A8
:1032EB0006E92582F8E622BBFE06E92582F8E222F2
:0D32FB00E58229F582E5833AF583E493220C
:10330800BB010689828A83F0225002F722BBFE01A4
:02331800F3229E
:10331A00C5F0F8A3E028F0C5F0F8E582158270023E
:06332A001583E038F022DB
:10333000EB9FF5F0EA9E42F0E99D42F0E89C45F0F3
:01334000226A
:103341007401FF3395E0FEFDFC080808E6CF2FF677
:1033510018E6CE3EF618E6CD3DF618E6CC3CF62250
:10336100FAE6FB0808E6F925F0F618E6CA3AF6226D
:00000001FF
