:0330000002396032
:10396000787FE4F6D8FD9000007FFF7E01E4F0A3AD
:0A397000DFFCDEFA7581490239B56B
:09300300410000004200E8000059
:0A3ECC0043BD107B017A007901224A
:103C2900123C64123F07900000EFF070231239FA3A
:103C3900123ECC12301EEF600B24FE600E0470F0B1
:103C49007F7980027F1F123E9A80E5123EE080E074
:0B3C5900123EBC123ECC12343580F845
:103C640075BD5490FEA074FFF0758E5090FE917453
:103C740002F0A37410F090FF02E054F04402F090BC
:103C8400FE80E4F0F589758DF5758B96D2ABC28E06
:043C940053BBF72205
:103E9A005398EF8F99E59830E1FB5398FD439810BA
:013EAA0022F5
:063DF3008B448A4589465D
:103DF900E4FEEEC39D5015AB44AA45A9468E8275D3
:0C3E0900830012339FFF123E9A0E80E6E9
:013E1500228A
:103EAB00E59830E00A5398FEE5991233CCD322C340
:013EBB0022E4
:103CCA008B298A2A892B8F2F8E2E8D2D8C2C43BDE2
:103CDA0010782C74FF123407E4FBFAF9F8C3123394
:103CEA00F4500CAB29AA2AA92B123EAB50E322C3EB
:013CFA0022A7
:103D2C000704010002132191060401021321910AD8
:103D3C0048433839533030334634FF00000000001C
:0A3D4C00000000000000000000006D
:07300C00010A0002080000A8
:1036D400AB21E5232402F9E43522FA7E00E925240E
:1036E400F9EE3AFA7F807E1A7D067C00229000086B
:1036F400AA22A92302339FAB21AA22A92302339F22
:10370400AB21AA22A92390000412339FFE90000546
:1037140012339FFDEDFF2274172DF582E43400F57A
:1037240083E0FF74292DF8A60774292DF8E6FF33EA
:1037340095E0FEEF2509F509EE3508F5080D22FFA1
:103744007E002401FDEE33FCE92FF9EE3AFAE92478
:1037540009F9E43A8B2CF52D892ED20022AB21AA4B
:1037640022A92302339FFFEE4CFCEF4DFDE04CFEFB
:10377400EDFFA3E0FDEF4DFF22AB21E5232408F983
:10378400E4352222AB21AA22A92322F582E43400C3
:10379400F58322C39000F5E0953AFF9000F4E0959C
:1037A4003922E475F0010234259000E7E0FB900033
:0C37B400EAE0F54322E92409F9E43A2296
:1039FA00D28ED2AFE50AC3941E4003123EE0208461
:103A0A00F3C28EC2AF90FF10E054F04408F090FF6A
:103A1A00A07420F0A37404F075CC0675CEFF75CDA2
:103A2A00F8759E027598107F79123E9A7B007D0088
:103A3A007C00123A814003123EE0E521647F600374
:103A4A00123EE07F1F123E9AE4F521FBFDFC123A7A
:103A5A00814003123EE0E521647F6003123EE0905C
:103A6A00FEA474C1F0A37414F075BBA290FEA774EF
:073A7A00FFF07F1F023E9ADE
:0C3A81007A0079217FA07E0F123CCA223F
:06301E008B218A228923A8
:103024001236E8123CCA40037F0222AB21E5232476
:1030340001F9E435221236E7123CCA40037F02222A
:10304400AB219000011236F4F4FF123386FE6F6058
:10305400037F0022EE14603814604E24EF700302E4
:1030640030F324F2700302314F249070030232676C
:10307400249160030232727F79123E9A7F07123ED6
:103084009A7A3D792D7D071232757A3D792C8047E5
:103094007F79123E9A7F06123E9A7A3D79357D06F3
:1030A4001232757A3D7934802E7F79123E9A123D20
:1030B400CF40037F00227F0A123E9A7BFF7A3D793C
:1030C4003C7D0A123DF385212C85222D85232EC2B9
:1030D400007BFF7A3D793B0D7C00123B448E258FAB
:1030E40026E525FF123E9AAF26123E9A7F01227FE3
:1030F40079123E9AE4F5241236D4123CCA40037F76
:1031040002220524E524C3940240ECAB21AA22A99F
:103114002390000212339FF4702E90000312339F09
:1031240070267DFF7C2FFFFE123DA7EF70037F0109
:10313400221236E8123D7F40037F0022123CFBEF4F
:1031440060037F01227F00227F00227F79123E9A52
:10315400E4F5241236D4123CCA40037F022205242B
:10316400E524C3940640ECAB21E5232402F9E435BD
:1031740022FAC003C002C001E5232406F9E4352283
:10318400123758D001D002D0037D047C001232885B
:1031940060037F00227F79123E9A12377D1236E750
:1031A400123CCA40037F0222E4F524AB211236F11B
:1031B4002402FFE433FEC3E5249FEE6480F87480A8
:1031C4009850121237B91236DE123CCA40037F02FD
:1031D40022052480D612377DFAC003C002C0011232
:1031E40036F1123743D001D002D003123288600383
:1031F4007F00221236E8123D7F40037F002275943F
:103204000FE4F5951237041237B9FAC002C001125F
:1032140036F1754600F547D001D002123BDE123775
:10322400041237B9FAC002C0011236F1752C00F548
:103234002DD001D002123C9812377DFAC003C0028F
:10324400C0011236F1123743D001D002D003123B31
:1032540044EF64014E6009123704123E377F0022A6
:103264007F01227F79123E9A123EE07F01227F0085
:10327400227BFF123DF385212C85222D85232EC22E
:0C328400007BFF22123B44EF64014E224D
:103B44008B278A28892990FEA27401F0ED1DAE040A
:103B540070011C4E600C78271237A6123386F5BE0E
:103B640080EA300023E5BFFFAB2CAA2DA92E123327
:103B740086B5071090000112339FAEBEB506057ED0
:0D3B8400007F0122E4FEFF22AFBEAEBF2293
:103D7F008F2A8E298D288C2743BD10782774FF1228
:103D8F003407E4FBFAF9F8C31233F4500953BBF7C5
:083D9F00E5BB20E3E622C3228C
:03301B00023F046D
:033F0400050A3279
:063435008B218A2289238D
:10343B00E4F5287F807E1A7D06FC123CCA40037F90
:10344B000222123788123386645560030235BCE9B9
:10345B002401F9E41236E6123CCA40037F022290A3
:10346B0000011236FB64AA60030235B9E92402F9A4
:10347B00E41236E6123CCA40037F0222900002128D
:10348B003761640260030235B6E92403F9E41236AE
:10349B00E6123CCA40037F02229000031237619070
:1034AB0000E7F0E92404F9E41236E6123CCA4003C3
:1034BB007F02229000041236FB9000EAF0E924050B
:1034CB00F9E41236E6123CCA40037F022212378817
:1034DB0090000512339FF524E92406F9E41236E631
:1034EB00123CCA40037F0222123788900006123327
:1034FB009FF526E92407F9E41236E6123CCA40038D
:10350B007F022212378890000712339FF525E4F5CE
:10351B0027E527C39525501FAB21E5232408F9E4A4
:10352B003522FA7E00E925271236E4123CCA400305
:10353B007F0222052780DAAB217E00E5232525F9C2
:10354B00EE3522FAE92408F9E41236E6123CCA40B9
:10355B00037F0222123788E5252408FDE433FC1291
:10356B003D568F2874082525F582E433F5831236F2
:10357B00FB65287033E52424F46010146013146089
:10358B001E24037020123E167F01221237C07F01CA
:10359B00221235BFEF70057F01123A8D7F01221287
:1035AB003ED67F01227F00227F00227F00227F00F8
:0335BB00227F006C
:0135BE0022EA
:033F07007F002216
:103EBC0075CC0675CEFF75CD30759E0275981022A7
:0A3D56008B448A4589468C478D484E
:103D6000E4FFFDFCC3ED9548EC95475011784412F3
:0E3D700037A61233862FFF0DBD00010C80E632
:013D7E002222
:103E1600E4F529F52A123F0AAD07AF2AAE29123E6C
:103E2600868E298F2A1237ADAD2AAC297F0B023A2E
:013E3600EBA0
:033F0A007F4122D2
:1037C000E4FFF529F52AF52BF52C74092FF582E491
:1037D0003400F583E0FE74EB2F12378FEEF00FBF4D
:1037E00008E8900011E09000F3F0900013E07E00F4
:1037F0007810C333CE33CED8F9FDAC06900012E07A
:103800007E007818C333CE33CED8F9900014123727
:103810006A9000F4EEF0A3EFF0900017E07E0078DD
:1038200010C333CE33CED8F9FDAC06900016E07E3F
:10383000007818C333CE33CED8F990001812376A07
:103840009000F8EEF0A3EFF0123F0A9000F3E0D3FF
:103850009F4019D39000F5E094009000F4E09400AC
:10386000400AE4F529F52A123CFB8006752900750B
:103870002A01AD2AAF2CAE2B123E868E2B8F2CE464
:103880009000F6F0A3F01237ADAD2CAC2B7F0C02FC
:023890003AEB11
:093ED600900009E07003123EE0C7
:013EDF0022C0
:1035BF0078297C007D007BFF7A3D79467E007F1065
:1035CF00123360E4FD900009E0B401037F0022EDA7
:1035DF00C39408501C740A2DF582E43400F583E07F
:1035EF00FF74EB2D12378FE06F60037F00220D8089
:1035FF00DE900012E0FF9000F3E06F60037F002287
:10360F00E4FD74132DF582E43400F583E0FF7E00B2
:10361F00ED75F008A4FCC374189CFCEFA804088097
:10362F0005C333CE33CED8F9423AEE42390DBD043D
:10363F00D1E4FD9000F6E065397004A3E0653A60CF
:10364F00030236D1123797C4F854F0C868FEEFC49E
:10365F00540F484E6017EDC39410500512371B805E
:10366F00F59000F6E475F0101233DE8042E4FD129F
:10367F003797FEEDC39FE49E500512371B80F090E5
:10368F0000F8E065087004A3E0650960037F00227D
:10369F007B007A0079299000F4A3E0C3953AF540B6
:1036AF00AF3AAE39123EF4E4FF123A8D7F01227B1E
:1036BF00007A007929754010AF3AAE39123EF47F87
:0436CF0001227F0055
:0136D30022D4
:10389200E4FDFCF50BF50C9000F4E0FEA3E0FFC3A1
:1038A2009000F7E09F9000F6E09E4001229000F623
:1038B200E0FEA3E0FFC39000F5E09FFB9000F4E080
:1038C2009EFAC4F854F0C868FEEBC4540F484E6028
:1038D20005750C108005EB540FF50CE50BC394082D
:1038E2005012AF05AE0474EB250B12378F12395606
:1038F200050B80E7AF05AE049000F3123956E4F5EC
:103902000BAF05AE04C006C007E50B75F008A4FFB7
:10391200C374189FFF9000F6E0FEA3E0A80708809A
:1039220005CEC313CE13D8F9FDD007D006123E86BA
:10393200AC06AD07050BE50BC3940440C4AF05AE5E
:1039420004AD0C123E86AC06AD07E4F543FB7F0DD9
:03395200123AEB3B
:0B39550022E0FD123E86AC06AD07220A
:023A8D008F3B6D
:103A8F00E4F53CF53DF53EE53BB4010D7B017A00D5
:103A9F0079EB7D0F7C00123E54AD3BAF3DAE3C1237
:103AAF003E868E3C8F3DE53EC39408500E74EB2549
:103ABF003E12378F123ADD053E80EB9000F3123A3B
:0E3ACF00DDE4F543FBAD3DAC3C7F0E023AEB6F
:0E3ADD00E0FDAF3DAE3C123E868E3C8F3D229A
:093EF400754600854047023BDEE3
:103E54008B3F8A408941ED1DAE0470011C4E600BFE
:0B3E6400783F1237A6E41233CC80EB4D
:013E6F002230
:043AEB008C408D413D
:103AEF009000C97455F0A374AAF0A37402F0A3EB6D
:103AFF00F0A3E543F0A3EFF0E540A3F0E541A3F019
:103B0F002409F541E43540F5407B017A0079C9E598
:103B1F004124FFFDE54034FFFC123D5674C825419A
:103B2F00F58274003540F583EFF07B017A0079C997
:053B3F00AD41023DF361
:103E860074D12FF974003EFA7B01ED1233CC0FBFCB
:033E960000010E1A
:013E99002206
:053013004200FA00007C
:073EFD0075FDF075FC0F22BA
:103DA700E4F533F53443BD10ED1DAA0470011C4A38
:103DB70060130FEFAA0670010E14F5828A83E4934D
:073DC70060E67F01227F008E
:013DCE0022D2
:103E3700C3EE9430501675FDF075FC0F8EFA8FF9AE
:0D3E470075FDD275FC2D75FDE175FC1E2288
:083B91008E2D8F2E8C2F8D303C
:103B990043BD10E4F531F532D3E5329530E5319581
:103BA9002F5031C3E52D9430502A7D807C00AF2EF3
:103BB900AE2D123DA7EF6007AF2EAE2D123E377422
:103BC90080252EF52EE4352DF52D0532E53270C808
:043BD900053180C46E
:013BDD0022C5
:103CFB007D207C00E4FFFE123D227E10123D227ED1
:103D0B0020123B917DFF7C2FE4FFFE123DA7EF605D
:103D1B00037F00227F0122123B917D207C007F00DC
:013D2B002275
:103E70008DFB123EFD8EFA8FF975FDB475FC4B7506
:063E8000FDE175FC1E22AD
:0A3BDE008E418F428B438A448945D3
:103BE800E4F548F549C3E5499547E5489546503019
:103BF800C3E54194305029AB43AA44A9458549827D
:103C080085488312339FFDAF42AE41123E70054294
:103C1800E542700205410549E54970C9054880C576
:013C28002279
:103C98008B298A2A892BE52D152DAC2C7002152C21
:103CA8004C601E0FEFAC0670010E14F5828C83E495
:103CB80093FD7829E475F001123425ED1233CC8098
:023CC800D52203
:0A3EE000123EFD75FD8775FC782287
:0A3EEA00123EFD75FD7875FC87227D
:103DCF0075A2107B017A0079FA752C00752D017F91
:103DDF00207E01123C98E4F5A29000FAE0B40802AC
:043DEF00D322C322F6
:10397A00023C29E493A3F8E493A34003F68001F2FE
:10398A0008DFF48029E493A3F85407240CC8C3334E
:10399A00C4540F4420C8834004F456800146F6DF1D
:1039AA00E4800B0102040810204080903003E47E7A
:1039BA00019360BCA3FF543F30E509541FFEE49312
:1039CA00A360010ECF54C025E060A840B8E493A3D9
:1039DA00FAE493A3F8E493A3C8C582C8CAC583CA04
:1039EA00F0A3C8C582C8CAC583CADFE9DEE780BEBC
:0130180000B7
:10329000E709F608DFFA8046E709F208DFFA803E20
:1032A00088828C83E709F0A3DFFA8032E309F6080D
:1032B000DFFA8078E309F208DFFA807088828C8375
:1032C000E309F0A3DFFA806489828A83E0A3F60829
:1032D000DFFA805889828A83E0A3F208DFFA804C03
:1032E00080D280FA80C680D4806980F280338010DA
:1032F00080A680EA809A80A880DA80E280CA803343
:1033000089828A83ECFAE493A3C8C582C8CCC583BA
:10331000CCF0A3C8C582C8CCC583CCDFE9DEE7808A
:103320000D89828A83E493A3F608DFF9ECFAA9F009
:10333000EDFB2289828A83ECFAE0A3C8C582C8CC5F
:10334000C583CCF0A3C8C582C8CCC583CCDFEADE78
:10335000E880DB89828A83E493A3F208DFF980CCDA
:1033600088F0EF60010E4E60C388F0ED2402B404D3
:103370000050B9F582EB2402B4040050AF2323457A
:0633800082239032E0738D
:10338600BB010689828A83E0225002E722BBFE0245
:09339600E32289828A83E4932278
:10339F00BB010CE58229F582E5833AF583E02250E3
:1033AF0006E92582F8E622BBFE06E92582F8E2222D
:0D33BF00E58229F582E5833AF583E4932247
:1033CC00BB010689828A83F0225002F722BBFE01E0
:0233DC00F322DA
:1033DE00C5F0F8A3E028F0C5F0F8E582158270027A
:0633EE001583E038F02217
:1033F400EB9FF5F0EA9E42F0E99D42F0E89C45F02F
:0134040022A5
:103405007401FF3395E0FEFDFC080808E6CF2FF6B2
:1034150018E6CE3EF618E6CD3DF618E6CC3CF6228B
:10342500FAE6FB0808E6F925F0F618E6CA3AF622A8
:00000001FF
