:03380000023B7117
:103B7100787FE4F6D8FD9000007FFF7E01E4F0A39A
:0A3B8100DFFCDEFA758120023BC66E
:103EB500123E53123C0B43BD107B017A0079001270
:103EC500381EEF600B24FE600E0470EA7F798002D5
:0C3ED5007F1F123FB280DF123FD480DA62
:103E530075BD5490FEA074FFF0758E5090FE917462
:103E630002F0A37410F090FF027402F090FE80E45D
:103E7300F0F589758DF5758B96D2ABC28E53BBF772
:013E8300221C
:103FB2005398EF8F99E59830E1FB5398FD439810A1
:013FC20022DC
:063F55008B0E8A0F89109B
:103F5B00E4FEEEC39D5015AB0EAA0FA9108E827511
:0C3F6B008300123ACBFF123FB20E80E63A
:013F77002227
:103FC300E59830E00A5398FEE599123AF8D322C3F4
:013FD30022CB
:103E84008B0E8A0F89108F148E138D128C1143BDE3
:103E940010781174FF123B1DE4FBFAF9F8C3123BCE
:103EA4000A500CAB0EAA0FA910123FC350E322C351
:013EB40022EB
:103F7800090401000213213191920704010213215F
:0D3F880091920A48433839533030334634A3
:033FE800011700BE
:103C9B00900008AA09A90A023ACBAB08AA09A90AFB
:103CAB00900004123ACBFE900005123ACBFDEDFFCB
:103CBB0022F9E43509FA7F807E1A7D067C0022FF0B
:103CCB007E002401FDEE33FCE92FF9EE3AFAE924EC
:103CDB0009F9E43A8B13F5148915D20022E924096A
:103CEB00F9E43AFA22AB08E50A2408F9E43509FAB3
:013CFB0022A6
:103C0B00D28ED2AFE517C3941E4003123FD420844B
:103C1B00F3C28EC2AF90FF107408F090FFA0742017
:103C2B00F0A37404F075CC0675CEFF75CDF8759EB8
:103C3B00027598107F79123FB27B007D007C0012D9
:103C4B003C8F4003123FD4E508647F6003123FD4DE
:103C5B007F1F123FB2E4F508FBFDFC123C8F4003C3
:103C6B00123FD4E508647F6003123FD490FEA47426
:103C7B00C1F0A37414F075BBA290FEA774FFF07F84
:043C8B001F023FB223
:0C3C8F007A0079087FA07E0F123E84228C
:06381E008B088A09890AEB
:10382400123CC1123E8440037F0222AB08E50A2405
:1038340001123CBC123E8440037F0222AB0890007C
:1038440001123C9EF4FF123AB2FE6F60037F002225
:10385400EE123B4B387100388A0138A30238E91361
:103864003942213A5E913A699200003A747F7912A2
:103874003FB27F09123FB27A3F79797D09123A97B4
:103884007A3F797880477F79123FB27F07123FB23F
:103894007A3F79837D07123A977A3F7982802E7F27
:1038A40079123FB2123F3140037F00227F0A123F58
:1038B400B27BFF7A3F798B7D0A123F5585081385C9
:1038C4000914850A15C2007BFF7A3F798A0D7C00B2
:1038D400123CFC8E0C8F0DE50CFF123FB2AF0D12A3
:1038E4003FB27F01227F79123FB2E4F50B123A779F
:1038F40040037F0222050BE50BC3940240EFAB08A3
:10390400AA09A90A900002123ACBF4702E9000037F
:10391400123ACB70267DFF7C37FFFE123F09EF7011
:10392400037F0122123CC1123EE140037F002212B8
:103934003DE5EF60037F01227F00227F00227F7933
:10394400123FB2E4F50B123A7740037F0222050BD3
:10395400E50BC3940640EFAB08E50A2402F9E4350D
:1039640009FAC003C002C001E50A2406F9E43509D6
:10397400123CDFD001D002D0037D047C00123AAAAD
:1039840060037F00227F79123FB2AB08E50A240866
:10399400123CBC123E8440037F0222E4F50BAB08C8
:1039A400123C9B2402FFE433FEC3E50B9FEE6480CC
:1039B400F8748098501A123CE87E00E9250BF9EE61
:1039C4003A123CC0123E8440037F0222050B80CE93
:1039D400123CF0C003C002C001123C9B123CCAD08E
:1039E40001D002D003123AAA60037F0022123CC124
:1039F400123EE140037F002275940FE4F595123CDA
:103A0400A5123CE8C002C001123C9B751300F514DA
:103A1400D001D002123D9A123CA5123CE8C002C06B
:103A240001123C9B751300F514D001D002123E2103
:103A3400123CF0C003C002C001123C9B123CCAD02D
:103A440001D002D003123CFCEF64014E6009123C29
:103A5400A5123F957F00227F01227F79123FB21287
:103A64003FD47F01227F79123FB2123FDE7F0122D1
:023A74007F00D1
:103A760022AB08E50A2402F9E43509FA7E00E925B5
:103A86000BF9EE3AFA7F807E1A7D067C00123E84A0
:103A9600227BFF123F55850813850914850A15C236
:0C3AA600007BFF22123CFCEF64014E226A
:103CFC008B0E8A0F891090FEA27401F0ED1DAE049C
:103D0C0070011C4E6010780EE475F001123B3B12F2
:103D1C003AB2F5BE80E6300023E5BFFFAB13AA1420
:103D2C00A915123AB2B50710900001123ACBAEBEEB
:103D3C00B506057E007F0122E4FEFF22AFBEAEBFBA
:013D4C002254
:103EE1008F118E108D0F8C0E43BD10780E74FF1242
:103EF1003B1DE4FBFAF9F8C3123B0A500953BBF727
:083F0100E5BB20E3E622C32228
:03381B00023FF871
:033FF80005173278
:053FEB004200C80000C7
:073FF10075FDF075FC0F22C5
:103F0900E4F514F51543BD10ED1DAA0470011C4A12
:103F190060130FEFAA0670010E14F5828A83E493E9
:073F290060E67F01227F002A
:013F3000226E
:103F9500C3EE9438501675FDF075FC0F8EFA8FF947
:0D3FA50075FDD275FC2D75FDE175FC1E2229
:083D4D008E0E8F0F8C108D11FA
:103D550043BD10E4F512F513D3E5139511E512955E
:103D6500105031C3E50E9438502A7D807C00AF0F8A
:103D7500AE0E123F09EF6007AF0FAE0E123F9574FE
:103D850080250FF50FE4350EF50E0513E51370C804
:043D9500051280C4CF
:013D99002207
:103DE5007D207C00E4FFFE123D4D7E10123E177EC5
:103DF50020123E177D107C007F007E30123D4D7DE8
:103E0500FF7C37E4FFFE123F09EF60037F00227F4E
:0C3E150001227D207C007F00123D4D2228
:103803008DFB123FF18EFA8FF975FDB475FC4B7584
:06381300FDE175FC1E2220
:0A3D9A008E0E8F0F8B108A11891214
:103DA400E4F515F516C3E5169514E515951350308D
:103DB400C3E50E94385029AB10AA11A912851682B6
:103DC400851583123ACBFDAF0FAE0E123803050FE3
:103DD400E50F7002050E0516E51670C9051580C5B8
:013DE40022BC
:103E21008B108A118912E5141514AC137002151345
:103E31004C601E0FEFAC0670010E14F5828C83E40A
:103E410093FD7810E475F001123B3BED123AF880D6
:023E5100D52278
:0A3FD400123FF175FD8775FC78229D
:0A3FDE00123FF175FD7875FC872293
:103F310075A2107B017A0079C87513007514017F91
:103F4100207E01123E21E4F5A29000C8E0B40802EF
:043F5100D322C32292
:103B8B00023EB5E493A3F8E493A34003F68001F25D
:103B9B0008DFF48029E493A3F85407240CC8C3333B
:103BAB00C4540F4420C8834004F456800146F6DF0A
:103BBB00E4800B0102040810204080903FE8E47E73
:103BCB00019360BCA3FF543F30E509541FFEE493FF
:103BDB00A360010ECF54C025E060A840B8E493A3C6
:103BEB00FAE493A3F8E493A3C8C582C8CAC583CAF1
:103BFB00F0A3C8C582C8CAC583CADFE9DEE780BEA9
:013FF00000D0
:103AB200BB010689828A83E0225002E722BBFE0212
:093AC200E32289828A83E4932245
:103ACB00BB010CE58229F582E5833AF583E02250B0
:103ADB0006E92582F8E622BBFE06E92582F8E222FA
:0D3AEB00E58229F582E5833AF583E4932214
:103AF800BB010689828A83F0225002F722BBFE01AD
:023B0800F322A6
:103B0A00EB9FF5F0EA9E42F0E99D42F0E89C45F011
:013B1A002288
:103B1B007401FF3395E0FEFDFC080808E6CF2FF695
:103B2B0018E6CE3EF618E6CD3DF618E6CC3CF6226E
:103B3B00FAE6FB0808E6F925F0F618E6CA3AF6228B
:103B4B00D083D082F8E4937012740193700DA3A309
:103B5B0093F8740193F5828883E47374029368601D
:063B6B00EFA3A3A380DF1D
:00000001FF
