:033000000233C5D3
:0C33C500787FE4F6D8FD75812002340CFE
:043780004100000004
:0A37B40043BD107B017A0079012269
:1035D7001236121237E5900000EFF07023123332E3
:1035E7001237B412301EEF600B24FE600E0470F029
:1035F7007F7980027F1F12379280E51237BE80E005
:0B3607001230191237B41237D280F8CD
:1036120075BD5490FEA074FFF0758E5090FE9174AB
:1036220002F0A37410F090FF02E054F04402F09014
:10363200FE80E4F0F589758DF5758B96D2ABC28E5E
:0436420053BBF7225D
:103792005398EF8F99E59830E1FB5398FD439810C9
:0137A2002204
:06371D008B0E8A0F8910DB
:10372300E4FEEEC39D5015AB0EAA0FA9108E827551
:0C37330083001232B2FF1237920E80E6C3
:01373F002267
:1037A300E59830E00A5398FEE5991232DFD322C33D
:0137B30022F3
:103678008B0E8A0F89108F148E138D128C1143BDF7
:1036880010781174FF123304E4FBFAF9F8C312320C
:10369800F1500CAB0EAA0FA9101237A350E322C3A6
:0136A80022FF
:103740000C0301000213122122313291920A03016B
:1037500002131221223291920A48433839533030F1
:03376000334634B9
:05378400011700C10067
:10345100900008AA09A90A0232B2AB08AA09A90A6E
:103461009000041232B2FE9000051232B2FDEDFF5F
:1034710022F9E43509FA7F807E1A7D067C0022FF5D
:103481007E002401FDEE33FCE92FF9EE3AFAE9243E
:1034910009F9E43A8B13F5148915D20122E92409BB
:1034A100F9E43AFA22AB08E50A2408F9E43509FA05
:0134B10022F8
:10333200D28ED2AFE517C3941440031237BE208455
:10334200F3C28EC2AF90FF10E054F04408F090FF39
:10335200A07420F0A37404F075CC0675CEFF75CD71
:10336200F8759E027598107F791237927B007D0066
:103372007C001233B940031237BEE508647F600354
:103382001237BE7F1F123792E4F508FBFDFC1233A1
:10339200B940031237BEE508647F60031237BE905E
:1033A200FEA474C1F0A37414F075BBA290FEA774BE
:0733B200FFF07F1F023792BC
:0C33B9007A0079087FA07E0F123678227F
:06301E008B088A09890AF3
:1030240012347712367840037F0222AB08E50A2473
:103034000112347212367840037F0222AB089000EA
:1030440001123454F4FF123299FE6F60037F0022A0
:10305400EE24FE603C24EF605B24F2700302311125
:103064002490700302322D147003023238249160CC
:10307400030232437F791237927F0A1237927A37EA
:10308400794E12327E7A37794D123266D2007F0140
:10309400227F791237921236F940037F00227F0A89
:1030A4001237927A37795912327E7A377958123236
:1030B400667F01227F79123792E4F50B1232464083
:1030C400037F0222050BE50BC3940240EFAB08AA71
:1030D40009A90A9000021232B2F4702E9000031271
:1030E40032B270267DFF7C2FFFFE1236D1EF7003C3
:1030F4007F01221234771236A940037F0022123551
:103104009BEF60037F01227F00227F00227F7912E0
:103114003792E4F50B12324640037F0222050BE599
:103124000BC3940640EFAB08E50A2402F9E4350921
:10313400FAC003C002C001E50A2406F9E435091205
:103144003495D001D002D0037D047C00123291600A
:10315400037F00227F79123792AB08E50A24081214
:10316400347212367840037F0222E4F50BAB081266
:1031740034512402FFE433FEC3E50B9FEE6480F870
:10318400748098501A12349E7E00E9250BF9EE3AA9
:1031940012347612367840037F0222050B80CE1259
:1031A40034A6C003C002C001123451123480D001CD
:1031B400D002D00312329160037F002212347712BE
:1031C40036A940037F002275940FE4F59512345B11
:1031D40012349EC002C001123451751300F514D08C
:1031E40001D00212355012345B12349EC002C00169
:1031F400123451751300F514D001D0021236461260
:1032040034A6C003C002C001123451123480D0016C
:10321400D002D0031234B2EF64014E600912345B61
:103224001237637F00227F01227F7912379212378F
:10323400BE7F01227F791237921237C87F01227F25
:013244000089
:1032450022AB08E50A2402F9E43509FA7E00E925EE
:103255000BF9EE3AFA7F807E1A7D067C00123678ED
:10326500227BFF0D7C001234B28E0C8F0DE50CFF16
:10327500123792AF0D123792227BFF7D0A12371D4E
:10328500850813850914850A15C201221234B2EF87
:0432950064014E2260
:1034B2008B0E8A0F891090FEA27401F0ED1DAE04EE
:1034C20070011C4E6010780EE475F0011233221266
:1034D2003299F5BE80E6300123E5BFFFAB13AA1493
:1034E200A915123299B507109000011232B2AEBE80
:1034F200B506057E007F0122E4FEFF22AFBEAEBF0D
:0135020022A6
:1036A9008F118E108D0F8C0E43BD10780E74FF1282
:1036B9003304E4FBFAF9F8C31232F1500953BBF7AA
:0836C900E5BB20E3E622C32269
:03301B000237E297
:0337E20005173296
:0837D2008B088A09890A7F01B6
:0137DA0022CC
:0337E5007F002240
:013019002294
:083789000118004200C9000014
:0737DB0075FDF075FC0F22E3
:1036D100E4F514F51543BD10ED1DAA0470011C4A53
:1036E10060130FEFAA0670010E14F5828A83E4932A
:0736F10060E67F01227F006B
:0136F80022AF
:10376300C3EE9438501675FDF075FC0F8EFA8FF981
:0D37730075FDD275FC2D75FDE175FC1E2263
:083503008E0E8F0F8C108D114C
:10350B0043BD10E4F512F513D3E5139511E51295B0
:10351B00105031C3E50E9438502A7D807C00AF0FDC
:10352B00AE0E1236D1EF6007AF0FAE0E12376374CB
:10353B0080250FF50FE4350EF50E0513E51370C856
:04354B00051280C421
:01354F002259
:10359B007D207C00E4FFFE1235037E101235CD7EBC
:1035AB00201235CD7D107C007F007E301235037DDF
:1035BB00FF7C2FE4FFFE1236D1EF60037F00227FEA
:0C35CB0001227D207C007F0012350322CD
:103003008DFB1237DB8EFA8FF975FDB475FC4B75AA
:06301300FDE175FC1E2228
:0A3550008E0E8F0F8B108A11891266
:10355A00E4F515F516C3E5169514E51595135030DF
:10356A00C3E50E94385029AB10AA11A91285168208
:10357A008515831232B2FDAF0FAE0E123003050F5E
:10358A00E50F7002050E0516E51670C9051580C50A
:01359A00220E
:103646008B108A118912E5141514AC137002151328
:103656004C601E0FEFAC0670010E14F5828C83E4ED
:1036660093FD7810E475F001123322ED1232DF80FB
:02367600D5225B
:0A37BE001237DB75FD8775FC7822D9
:0A37C8001237DB75FD7875FC8722CF
:1036F90075A2107B017A0079C97513007514017FD1
:10370900207E01123646E4F5A29000C9E0B4080211
:04371900D322C322D2
:1033D1000235D7E493A3F8E493A34003F68001F206
:1033E10008DFF48029E493A3F85407240CC8C333FD
:1033F100C4540F4420C8834004F456800146F6DFCC
:10340100E4800B0102040810204080903780E47EA4
:10341100019360BCA3FF543F30E509541FFEE493C0
:10342100A360010ECF54C025E060A840B8E493A387
:10343100FAE493A3F8E493A3C8C582C8CAC583CAB2
:10344100F0A3C8C582C8CAC583CADFE9DEE780BE6A
:013791000037
:10329900BB010689828A83E0225002E722BBFE0233
:0932A900E32289828A83E4932266
:1032B200BB010CE58229F582E5833AF583E02250D1
:1032C20006E92582F8E622BBFE06E92582F8E2221B
:0D32D200E58229F582E5833AF583E4932235
:1032DF00BB010689828A83F0225002F722BBFE01CE
:0232EF00F322C8
:1032F100EB9FF5F0EA9E42F0E99D42F0E89C45F033
:0133010022A9
:103302007401FF3395E0FEFDFC080808E6CF2FF6B6
:1033120018E6CE3EF618E6CD3DF618E6CC3CF6228F
:10332200FAE6FB0808E6F925F0F618E6CA3AF622AC
:00000001FF
